:100000000C9421020C943E020C943E020C94CE1BE4
:100010000C943E020C943E020C943E020C943E0260
:100020000C943E020C943E020C9476220C944A23CB
:100030000C94AD1D0C943E020C943E020C943E02B6
:100040000C943E020C943E020C943E020C943E0230
:100050000C943E020C94501E0C943E020C943E02F2
:100060000C943E020C943E020C943E020C943E0210
:100070000C943E020C943E020C943E020C943E0200
:100080000C943E020C943E020C943E020C943E02F0
:100090000C943E020C943E020C943E020C943E02E0
:1000A0000C943E020C943E020C943E0200050105A5
:1000B0000205030504050505000601060206030600
:1000C00004060506000701070207030704070507E2
:1000D00000080108020803080408050800090109CE
:1000E00002090309040905090000010002000300D8
:1000F00004000500000101010201030104010501E2
:1001000000020102020203020402050200030103CD
:1001100002030303040305030004010402040304AF
:1001200004040504000000000000000000000000BE
:100130002B0014001A000900130005002A00040017
:100140001500160017000A0035001D001B000600F0
:1001500007001900E000E200E3002352282200001B
:100160000000000000000000000000002F0033002D
:100170001C0018000F000D00340012000C000800D5
:100180001100100026123800370036000B000E0058
:1001900000000000225221522C000000000000004C
:1001A00000000000000000002E122D002E0037126B
:1001B0003812310024122D123300331236001E1271
:1001C00020121F12361221123500351200000000D5
:1001D00000000000290000000000000000000000F6
:1001E0000000000020142E182D1830122F12231298
:1001F000311237003412271226123400251235002E
:10020000380030002F002212000000000000000023
:100210000452000000000000000000000000000088
:1002200000005011511152114F11000000005014E4
:10023000511452144F140000000050185118521855
:100240004F1800000000000000000000E100000066
:100250000000000000000000000000000000450059
:100260004400520043000000000041004F005100D4
:10027000500000000000420040003B003A00000037
:10028000000000000000000000000000000000006E
:10029000000000000000000000001E0F1F0F200FD4
:1002A000210F2808000035071D071B0D060D2C0D1A
:1002B0000000350F1D0F1B0506052B0C000000006C
:1002C000000000002C0800000000000000000000FA
:1002D000000000000000000000000000000000001E
:1002E000000000000000000000000000000000000E
:1002F00000000000000000000000000000000000FE
:1003000000000000000000000000000000000000ED
:1003100000000000000000000000000000000000DD
:1003200000000000000000000000000000000000CD
:100330000000000000000000000000522A00000041
:100340000000000000000000000000000000560057
:10035000610060005F005400000057005E005D0017
:100360005C00550000002B005B005A00590067003C
:1003700000000000630062002800000000AE00AF33
:1003800000DA0281FFD9F1DB20A4A62EAF00A0C0C5
:1003900000A1C800AED580A81FD300408D14200056
:1003A0000C0353006F0066006C00650000001A0328
:1003B0004A006F0073006500660041006400610040
:1003C0006D00630069006B0000000403090409026A
:1003D0002200010100A0FA0904000001030101004C
:1003E00009211101000122400007058103080001D5
:1003F000120100020000000832FC87020100010225
:10040000000105010906A101050719E029E715000A
:10041000250195087501810295017508810105077F
:10042000190029FF150026FF0095067508810005B3
:10043000081901290595057501910295017503912A
:1004400001C011241FBECFEFDAE0DEBFCDBF11E047
:10045000A0E0B1E0E0E1FCE402C005900D92A2361C
:10046000B107D9F724E0A2E6B1E001C01D92A03A9D
:10047000B207E1F70E94F6140C94C0250C9400001A
:100480008530B8F46A30A8F4463098F450E096E02D
:10049000699F400D511D1124FA019CE3899FE00DD5
:1004A000F11D1124EE0FFF1FEC5DFE4F859194911D
:1004B000089581E090E008950E944002089581E04F
:1004C000089581E008950E946102089508950E94B0
:1004D00066020895A5E0B0E0E0E7F2E00C94402564
:1004E00049835A833091710189819A81311119C0F0
:1004F000662399F0222389F00E949C08182F682F08
:1005000089819A810E94780869817A81812F0E946D
:10051000AB0F2596E3E00C945C250E948A08182F07
:10052000F3CF0E949C0869817A81F1CFFC01262FCC
:10053000408151816281738184810E946A020895A1
:1005400081E00895CF93DF93EC0160E00E94960272
:10055000BE010E946702DF91CF91089508950E9425
:1005600047070E94AE022FEF84E39CE021508040B9
:100570009040E1F700C0000008950E94AF020E9481
:10058000741E08950E94AF020E94851E08950F9365
:100590001F93CF93DF938C0161E00E949602EC01E0
:1005A000B8010E946302811106C080E0DF91CF9103
:1005B0001F910F910895B801CE010E94FE19882362
:1005C000A1F3B801CE010E942217882371F3B8016C
:1005D000CE010E947019882341F3F801828188239B
:1005E00061F0C330FCE7DF07E9F058F4C115ECE730
:1005F000DE07A9F0C130DC47B9F0C8010E945F02F4
:10060000D5CFCB358CE7D807A9F0CC35ECE7DE07A2
:1006100071F0CA35DC4789F70E94F30CEECF0E94D7
:10062000BD02C3CF0E94FB0C0E94C202BECF0E943B
:10063000E90CE3CF0E94F70CE0CF0E948A1D0E94D4
:1006400046030E94CA1608950E944A030E948F1D05
:100650000895089581E008950895CF93DF93D82FEA
:100660000E942A03C82F882319F08D2F0E942C0383
:100670008C2FDF91CF9108950895CF93C82F0E94BA
:1006800029038C2F0E942D03CF91089580E00E94B2
:100690003D0308950E94F41C0E943D030895CF93EA
:1006A0000E94F41CC82F809164018C1779F0C093CC
:1006B00064010E94191E6093650170936601809326
:1006C0006701909368018C2F0E943D03CF9108959C
:1006D000442319F08091730108959C0143E03695FD
:1006E00027954A95E1F7620F731F8770992721E0DC
:1006F00030E001C0220F8A95EAF7FB019081922336
:1007000081E009F480E00895FC01E770FF2721E013
:1007100030E001C0220FEA95EAF733E0969587951D
:100720003A95E1F7FB01E80FF91F8081442319F0A6
:10073000282B2083089520952823FBCF0F931F9308
:10074000CF93DF938C01DC0111968C9111978A3045
:1007500048F5CC91C63030F5D0E0B6E08B9FC00DA7
:10076000D11D1124F801428169E671E0CE010E9499
:10077000680340E0882389F0CE01880F991FFC01AF
:10078000E355FF4FE491D8011196EC931197FC01CA
:10079000E455FF4FE491EC9341E069E671E0CE014E
:1007A0000E948403DF91CF911F910F910895ABE0D8
:1007B000B0E0EDEDF3E00C9441254F835887698755
:1007C0007A878B8761110E94340C8A859B85892BDF
:1007D00029F08F81988589238F3F39F51E821D82EC
:1007E00085E0FE013796DE01119601900D928A9503
:1007F000E1F78C819D81892B61F449815A816B815C
:100800007C818D819E810E94360B2B96E2E00C94B8
:100810005D2589819A8189238F3F79F3CE010196E5
:100820000E94A0028111E9CFF0CFCE0107960E946D
:100830009E03D4CFFC01808191810E94CE089295C5
:100840009F70963051F4863F41F08091730191E0A2
:10085000892780937301909372010895CF93C82FD5
:100860008823B9F08CEF8C0F813AA8F46C2F80911B
:100870000001909101010E94251D882329F08C2FF1
:100880000E94CE0B0E94550C8C2F0E94C60B0E941A
:10089000550CCF91089580E28C0F8830D0F7C77047
:1008A00081E001C0880FCA95EAF70E94170CEFCFCC
:1008B000882341F09CEF980F913A28F40E94CE0BC8
:1008C0000E94550C089590E2980F9830D8F78770E1
:1008D00091E001C0990F8A95EAF7892F0E941D0CBB
:1008E000EFCF1F93CF93DF93182FEB010E942E04BD
:1008F000209739F4812F0E945804DF91CF911F91E6
:1009000008958FE99FE00197F1F700C0000021975B
:10091000EFCF6AE070E0893311F460E570E00E9487
:1009200071040895882321F00E94170C0E94550C31
:100930000895882321F00E941D0C0E94550C0895F3
:10094000B0E0A0E0E6EAF4E00C943A256C01C62F92
:10095000172FFC01D281058102950F700E940D0CAA
:10096000E82E882301F1DD2359F1812F807F803427
:1009700071F090E29C0F983018F1011104C0912F92
:10098000907E9032E9F0803611F4C63FC9F0809134
:10099000700282FF15C082E00E94B80C0E940D0C0C
:1009A00091E0E82EE926B12EB2949FE0B922FBE057
:1009B000FB15C0F1EB2DF0E0EE53FA4D0C942B2516
:1009C000E12CF1CF012F0F70812F807F11F0029564
:1009D000007FDD2399F0002359F080E28C0F8830EE
:1009E00010F0C11107C0802F0E94170C0E94550CF7
:1009F0008C2F6DC0802F0E94270CF8CF8C2F0E9467
:100A00005804002379F080E28C0F883010F0C11177
:100A100004C0802F0E941D0C03C0802F0E942D0C4B
:100A20000E94550C2B2D2850330B2430310520F417
:100A30000E94F41C0E943D03DD2339F0107F103624
:100A400011F4C63F11F00E94000CEE2089F00E94C4
:100A5000E30B80FD0DC0F60112820E94DD0B0E94A7
:100A6000D607C6010E9413070E94DD0B0E94E6070D
:100A7000CDB7DEB7E9E00C945625212F2F70F22E6A
:100A8000812F807F803219F0F29480EFF822CC23FE
:100A900081F0C13009F449C0DD2309F451C00023BD
:100AA00009F448C0F601858180FFA2CF8F7085834D
:100AB00041C08091700282FD15C0DD2359F0FF20F6
:100AC00029F08F2D0E94170C0E94550C80E00E9487
:100AD0002E04A8CF80E00E945804FF2009F4A2CF82
:100AE0008F2D98CFDD2381F0011106C00E94370CB5
:100AF0008F290E94920496CF0130C1F70E94370CD3
:100B00008F290E943E0C8ECF011106C00E944B0C13
:100B10008F2D0E94990486CF013009F483CF8F2D49
:100B20000E9499040E944B0C7DCFDD2329F00630F2
:100B300008F078CF8F2DDDCF053008F073CFE8CFE8
:100B4000002331F3C93309F0EDC0FFEF27EE33E0A6
:100B5000F15020403040E1F700C000008C2F0E948F
:100B6000580460CF812F8370A9F5D1115BCF2C2F52
:100B7000229526952770220F220F4C2F4F7050E0A0
:100B8000022E02C0440F551F0A94E2F790E080E065
:100B9000C4FF09C08FE090E002C0880F991F2A951A
:100BA000E2F780959095212F269526952370842B2A
:100BB000952B223049F058F4213019F00E94A607F5
:100BC00031CF0E949D072ECF0E94AF072BCF0E94EE
:100BD0009A0728CF8695DD2311F0812F8170882315
:100BE00009F420CF2C2F229526952770220F220F53
:100BF0004C2F4F7050E0022E02C0440F551F0A9434
:100C0000E2F790E080E0C4FF09C08FE090E002C00E
:100C1000880F991F2A95E2F780959095212F2695A8
:100C200026952370842B952B223049F058F42130DF
:100C300019F00E941108F6CE0E940808F3CE0E9417
:100C40001A08F0CE0E94BE07EDCE012F0F70DD23F3
:100C500029F0802F0E94D6078C2F4BCF8C2F0E941B
:100C60009904802F0E94E607DDCEC23F41F160F477
:100C7000C03FB9F0C13F81F0DD2309F447C0011145
:100C8000B7CE812F8F711FC0C33F01F1C43FA1F7C1
:100C90008091700282FD24C0812F8F71DD2311F3BA
:100CA00012C0DD2341F0053008F0BCCE812F8F71DA
:100CB0000E94F807B7CE063008F0B4CEF7CF812FE8
:100CC0008F71D111CFCF0E94D607ACCEDD2329F092
:100CD000812F8F710E94CA07A5CE0E94C507A2CEA0
:100CE000DD2351F0012F0F71802F0E94D60763E0A2
:100CF000802F0E949A0C96CE81E00E94B80C0230A0
:100D000008F490CE82E00E94B80C8CCE002379F0DB
:100D1000C93341F49FEFE7EEF3E09150E040F0403B
:100D2000E1F71ACF8FE39CE90197F1F715CF812FF7
:100D30008F7198CFE0E1EC0FE73090F5F0E0E253EF
:100D4000FA4D0C942B25DD2309F46CCE80917301B0
:100D500091E089278093730165CED093730162CEB1
:100D600081E08D27F7CFD1115DCE81E0F3CFD11196
:100D700059CE1092730156CEDD2319F00E94E70B75
:100D800051CE0E94F30B4ECEDD2339F080917201DB
:100D90008823E1F21092720145CE0530B8F242CEBE
:100DA000809172010023D9F0882341F08091730172
:100DB00091E089278093730110927201D11118CEAE
:100DC000EFE3FCE93197F1F700C000008C2F0E949F
:100DD000580486E0F60111928A95E9F723CE88231C
:100DE00009F420CED1111ECE8091730191E08927A4
:100DF00080937301CFCF0F931F93CF93DF93EC01B9
:100E0000688179818A810E94D9088C010E94230817
:100E10000E949907B801CE010E94A004DF91CF91F2
:100E20001F910F910895CF93DF93EC018B819C81EB
:100E3000892B29F08881998189238F3F51F4DF9193
:100E4000CF910895CE010E94FB06CE010E94A2021E
:100E5000F6CFCE010E94C7028111F4CF0E940D0C83
:100E6000882369F38A81882351F38091700282FF7D
:100E7000E6CF82E00E94B80CE2CF0E94340C0E94C0
:100E8000550C08950E94D60B0E943D0708950E94BC
:100E9000240C0E944207089592959F70963091F01D
:100EA00058F4925F9F70923058F4803F19F030F4FC
:100EB000883E30F481E008959A5FF4CF843FD1F307
:100EC00080E00895883EB0F3813FD1F7F3CFFC0175
:100ED00083819481892B29F08081918189238F3F9F
:100EE00011F480E00895808191810E94CE080E94D3
:100EF0004C070895A5E0B0E0E0E8F7E00C94412548
:100F00002596E2E00C945D25A6E0B0E0EAE8F7E083
:100F10000C9441252696E2E00C945D2508950E94EC
:100F20008E0708950E948F079093970180939601F2
:100F3000089508950E949207089520919601309196
:100F40009701822B932B0E9492070895209196017E
:100F500030919701822393230E9492070895209154
:100F6000960130919701822793270E949207089556
:100F70000E948E0708950E94B80708950E94BB073B
:100F80009093950180939401089590E080E00E94F1
:100F9000BE07089521E030E0A90102C0440F551FAB
:100FA0008A95E2F7CA010E94BE07089521E030E069
:100FB00002C0220F331F8A95E2F78091940190912D
:100FC0009501822B932B0E94BE07089521E030E00B
:100FD00002C0220F331F8A95E2F720953095809149
:100FE000940190919501822393230E94BE07089556
:100FF00021E030E002C0220F331F8A95E2F7809192
:10100000940190919501822793270E94BE0708952D
:101010002091940130919501822B932B0E94BE0761
:1010200008952091940130919501822393230E9489
:10103000BE0708952091940130919501822793274E
:101040000E94BE0708950895262F277091E001C0E1
:10105000990F2A95EAF723E0769567952A95E1F7A7
:10106000660F771F660F771FFA01E60FF71F50E034
:1010700040E0682F70E08191DF0111979B01042E01
:1010800002C0369527950A94E2F72170219528270A
:10109000292328272C934F5F5F4F4430510559F780
:1010A0000895A82FA77023E0969587952A95E1F7D4
:1010B000880F991F880F991FFB01E80FF91F50E057
:1010C00040E080E0219130E00A2E02C0369527955D
:1010D0000A94E2F721703327042E01C0220F0A94EC
:1010E000EAF7822B4F5F5F4F4430510559F708955F
:1010F000262F9A3070F4863060F4682F70E086E016
:10110000989F600D711D112444E751E0822F0E94C9
:1011100024080895292F9A3068F4863058F490E016
:1011200064E771E036E0239F800D911D11240E9439
:101130005108089580E00895B0E0A0E0E2EAF8E008
:101140000C943A257C0100919401109195018091B5
:10115000960190919701082B192BCFE0D0E0CC2479
:10116000C394D12CBC2EC6010C2E02C0880F991F2F
:101170000A94E2F780239123892B49F4219790F771
:10118000B12C8B2DCDB7DEB7E9E00C945625B70115
:101190008C2F0E94B70F019789F3F3CFCF93DF9382
:1011A000EC010E949C08BE010E94B70FDF91CF9115
:1011B00008951F93CF93DF93EB01909171019923D1
:1011C00039F0CB010E94CE08DF91CF911F91089595
:1011D000882369F0CB010E949C08182F682FCE014C
:1011E0000E947808BE01812F0E94B70FEDCFCB017E
:1011F0000E948A08182FF6CF1F93CF93DF93C091D8
:10120000980116E0809199018C1304C0DF91CF9171
:101210001F910895D0E01C9FF0011D9FF00D112437
:10122000E656FE4F408151816281738184819581B0
:101230000E9484072196C770E5CF4091CA01509162
:10124000CB016091CC017091CD018091CE01909144
:10125000CF010E94840708952091980190919901EF
:1012600056E0291302C080E0089530E0529FF0015B
:10127000539FF00D1124E656FE4F7181761306C080
:101280007081781303C07281741304C02F5F3F4FC5
:101290002770E7CF81E008951F93CF93DF9380916C
:1012A000CF01807F09F04BC08091CC01882309F4E5
:1012B00046C080919801C09199014091CA01509116
:1012C000CB016091CD017091CE01D42FD52316E0D2
:1012D000C817A9F190E061157105A9F1DF3F99F1F7
:1012E000189FF001199FF00D1124DF01A656BE4F83
:1012F00011962C911197251326C02C91241323C0ED
:1013000012962C91129721111EC013962D913C918B
:10131000261B370B24363105B0F48091CF018F7036
:1013200080618093CF01E156FE4F80818F70806194
:1013300080838AEC91E00E9413070E94FC08DF91F1
:10134000CF911F91089501968770C2CFA1E1B0E0BF
:10135000ECEAF9E00C9437258C0185E0F801DE0118
:101360001D9601900D928A95E1F7F801F2808AECC2
:10137000A82E81E0B82E4091CD015091CE014115AB
:10138000510509F45AC19091CA012091CB01892FCE
:1013900082238F3F09F451C1C080D1808380948023
:1013A000E090CC01B401641B750BEE2009F4F6C08B
:1013B0008091CF01382F307F6436710508F0AFC0BF
:1013C00031117AC0EF2C2D1116C09C1114C0F110F0
:1013D00012C08F7080618093CF010E941D09C501EA
:1013E0000E9413078091CF01F80185838E2D6196AD
:1013F000ECE00C94532581149104C9F18C2D8D21BE
:101400008F3FA9F181E08F2580FF05C04F2D6D2D05
:101410008C2D0E942C098114910459F18C2D8D2161
:101420008F3F39F181E08F25F82FF170BF2E80FFBB
:1014300039C04F2D6D2D8C2D0E942C09A82E8111A5
:1014400031C0CD86DE868D859E850E94CE08292FEF
:1014500022952F70243078F49F702230A8F09923C1
:10146000B9F0F8019581907F99F4EA2CBFCF80E024
:10147000CBCF80E0D9CF2A5F2F70223068F0C8012F
:101480000E941307AB2CF1CF992311F0882369F345
:10149000805E883050F3F3CF803F38F3815F833034
:1014A00070F7E3CFFF2009F4A1CF8091CF018160D5
:1014B0008093CF01E12C9ACF2D1105C09C1103C060
:1014C000FF2009F486C0C8010E946707882319F12C
:1014D000FF2009F18091CF01803270F02091CA0184
:1014E0003091CB0138872F8319869B868A868C871B
:1014F000CE0107960E94130786E0F801AAECB1E03E
:1015000001900D928A95E1F70E944C090E941D09F5
:10151000EE24E3946BCFC8010E941307F9CF311179
:1015200014C0782D998A888AA6016F2D89890E9416
:101530007A078AEC91E00E94130786E0F501119288
:101540008A95E9F70E941D09B5CF2D110EC09C1197
:101550000CC0F1100AC08583C8010E94130786E001
:10156000F50111928A95E9F741CFC8010E946707FA
:10157000882389F2FF2079F28091CF01803208F42C
:10158000BBCF2091CA013091CB013A8329831B82C2
:101590009D828C828E83CE010196ACCF643671051C
:1015A00008F03DC0EF2CFF2009F4B5CF2D1129C064
:1015B0009C1127C08091CF0180FD1AC0982F907F89
:1015C000B9F08583903F31F0982F907F905F8F70B6
:1015D000892B8583C8010E94130786E0F801AAECD5
:1015E000B1E001900D928A95E1F70E941D09FECEAF
:1015F00086E0F801AAECB1E001900D928A95E1F73E
:10160000F5CEC8010E946707811176CF8091CF0186
:1016100081608093CF01C8010E941307E7CE782D27
:10162000998A888AA6016F2D89890E947A0786E0A7
:10163000F50111928A95E9F7D8CFFF2009F46BCF15
:10164000C8010E946707E82E882309F464CF86E06A
:10165000F801AAECB1E001900D928A95E1F78AECCD
:1016600091E00E941A040E944C09BFCFACE0B0E0A8
:10167000ECE3FBE00C9440254F83588769877A8719
:101680008B879C87CE0107960E94A6098823B1F01C
:101690008A859B85892B39F04F815885842F852336
:1016A0008F3F09F06CC016E08091980190919901EC
:1016B000891343C02C96E3E00C945C2586E0FE0180
:1016C0003796DE01119601900D928A95E1F78A8591
:1016D0009B85892B41F38F81988589238F3F19F34F
:1016E0002091990130E0C9010196877099274091B6
:1016F00098014817190671F40E9447071092990142
:101700001092980186E0EAECF1E0DF011D928A95E3
:10171000E9F7C9CF96E0929FD001939FB00D1124B5
:10172000A656BE4FFE01319601900D929A95E1F7B3
:10173000809399010E94FC08B6CF819FC0011124BB
:1017400086569E4F0E94A609882309F4B3CFE091E4
:1017500098011E9FF0011124E656FE4F40815181F1
:1017600062817381848195810E94840780919801B0
:1017700090E00196877099278093980195CF6985AD
:101780007A858B859C850E9484078DCF682F8091F8
:101790000001909101010E945B1D0895682F8091C6
:1017A0000001909101010E945E1D08958091000149
:1017B000909101010E94611D08958091D901859544
:1017C0008595859508958091D9018770089582E067
:1017D0008093D80181E08093730108951092D8011D
:1017E0001092730108958091D801823021F481E034
:1017F0008093D8010895833011F40E94EE0B089570
:101800008091D801823021F483E08093D80108953B
:10181000813011F40E94EE0B08959091D9019770D8
:1018200081E009F480E008958091E40108959091A9
:10183000E401892B8093E401089580959091E4015F
:1018400098239093E40108951092E40108959091F3
:10185000E301892B8093E301089580959091E30142
:1018600098239093E30108951092E30108958091E5
:10187000DA01089508950E943A0C0895909170023B
:1018800092FF08C09091DA01981721F08093DA0155
:101890000E943B0C08958091DA01882329F0109270
:1018A000DA0180E00E943B0C0895CF93DF93E09132
:1018B0000001F09101018091E4018083E091000139
:1018C000F091010180819091E301892B80839091B7
:1018D000DA01992381F0E0910001F091010180810A
:1018E000892B808380910001909101010E94131D3A
:1018F00081110E944B0CC0910001D091010148E080
:1019000050E060ED71E0CE010E946825892B59F00E
:1019100088E0FE01A0EDB1E001900D928A95E1F71B
:10192000CE010E94081DDF91CF91089508950E9475
:10193000960C08959091700292FF11C098E0899FD3
:1019400090011124622B6093D9010E94D6078091E7
:10195000D9018595859585950E94970C08950E94DB
:10196000D60708951092D90180E00E94970C08953F
:101970009091D901809589238093D901282F2770D0
:1019800091F4282F082E000C330B9217130659F0F0
:101990009091700292FF07C08595859585950E946C
:1019A000E6070E94B20C08959091700292FB2227E4
:1019B00020F9281769F080FB92F9909370028091CA
:1019C0006F02909170020E941C0D82E00E94B80C80
:1019D00008958091700282FB882780F991E0892721
:1019E0000E94D40C089581E00E94D40C089580E0F8
:1019F0000E94D40C08956FEF7FEF90E080E00E948A
:101A0000AA25089590E080E00E94862521E0873E87
:101A10009E4F09F020E0822F089582E090E00E941E
:101A20007E25089583E090E00E947E25089584E05D
:101A300090E00E9486250895BC0184E090E00E9419
:101A4000AA250895AB01BC018FE090E00E949E257D
:101A50000895AB01BC0183E190E00E949E250895AA
:101A600060E070E0CB010E94290D089560E070E015
:101A7000CB010E94220D0E94300D089567EE7EEF8B
:101A800090E080E00E94AA2560E082E090E00E9461
:101A90008C2560E083E090E00E948C2510929701F5
:101AA0001092960160E074E184E090E00E94AA2523
:101AB00060E086E090E00E948C256FEF87E090E088
:101AC0000E948C2540E050E0BA0188E090E00E943E
:101AD0009E2560E08DE090E00E948C2540E050E083
:101AE000BA0188E190E00E949E2560E087E190E0E5
:101AF0000E948C2540E050E0BA018CE190E00E9409
:101B00009E2570E060E080E290E00E94AA2540E01F
:101B100050E0BA0188E190E00E949E250E94360DB7
:101B200008950E943E0D0895682F8EE090E00E9477
:101B30008C250895A5E0B0E0E0EAFDE00C943F2597
:101B40000E940D1E8C018091E5019091E6018017A5
:101B50009107A1F08FEF89838A831B820E940D1E5B
:101B60008160782F9D838C8349815A816B818D811F
:101B70000E94D7031093E6010093E5012596E4E067
:101B80000C945B250E94191E6093F9017093FA0171
:101B90008093FB019093FC016093F5017093F60133
:101BA0008093F7019093F80108950E94191E6093A5
:101BB000F9017093FA018093FB019093FC0160930B
:101BC000F1017093F2018093F3019093F401089571
:101BD000089508950E94E90D089508950E94ED0D5D
:101BE000089581E0089581EE90E10E94EA1C0E9430
:101BF000E80D0E94EA0D08950E94AD12089508951F
:101C000008950E94FF0D0E94000E08950E94E410A6
:101C10000E943C0308950E94041E0E94A1100E948D
:101C2000C8120E940D180E940E120E94060E0E94F9
:101C3000031580E00E945E150E94D2120E94EE0DF4
:101C40000895A5E0B0E0E7E2FEE00C9438250E949C
:101C5000F10DC82E811118C00E949A0DC12C0E944E
:101C6000AD120E949118182F81110E94D50D0E946B
:101C7000EA16C11001C011110E94BD150E944F0348
:101C80002596EBE00C9454250E94311287EEA82E85
:101C900081E0B82E750110E0F70101917F01812FDD
:101CA0000E940A111F5F1A3009F440C00817A1F3FF
:101CB0008091FD0181FD0E9410110E94FC0D982E63
:101CC00010E0812F0E940A11082FF50181915F0118
:101CD000081731F1F12CEE24E394D02ED8268D2D67
:101CE0008E21B1F09920A1F0F9821A8391E0802F22
:101CF0008E2109F490E09B830E940D1E8160782F55
:101D00009D838C8349815A816B818D810E94D70389
:101D1000F394EE0CF6E0FF12E2CFF5013197008369
:101D20001F5F1A3071F60E94C20D99CF0813C0CF01
:101D300093CF0F931F93CF93DF930E94BC0FEC01BF
:101D4000C03282E5D80708F040C0C11582E5D80747
:101D500008F094C0C11580E2D80710F5C11581E0E4
:101D6000D80708F07AC0C03ED10588F4CD3CD10533
:101D700008F071C0C130D10569F0209759F0CE014B
:101D80000497813A910530F0D0E0C0E003C0C83E2E
:101D9000D105D0F7CE01DF91CF911F910F9108951A
:101DA000C11580E5D80708F0ACC08E011127C11518
:101DB00080E4D80708F4BFC0C8010E94BC0FCC273C
:101DC000DF70C82BD92BD06AE5CFC03A82E5D8079F
:101DD00020F5C03882E5D80708F080C0C03682E51B
:101DE000D80708F066C0C03482E5D80708F45AC0A6
:101DF0002C2F26952695277080E2289F900111248C
:101E00008C2F8370C1E0D0E002C0CC0FDD1F8A951B
:101E1000E2F7C22BD32BDC68BDCFC03E82E5D807EA
:101E200060F4C03C82E5D80708F45FC0DC2FCC2703
:101E3000CC27DF71C06FD06AADCFCE0196558F3FF2
:101E4000910511F008F0A0CFCE0199270E94BC0F98
:101E5000EC01D0669FCFD0659DCF8D2F0E945E1084
:101E6000182FCE0199270E94BC0FC12FD0E0DC2F84
:101E7000CC27CC27DF71C82BD92B8CCF2C2F2695C4
:101E8000269580E2289F900111248C2F8370C1E059
:101E9000D0E002C0CC0FDD1F8A95E2F7C22BD32B16
:101EA000DD6878CFCF71D0E0DC2FCC27C16FD06A4E
:101EB00071CF2C2F26952695277080E2289F9001C0
:101EC00011248C2F8370C1E0D0E002C0CC0FDD1F45
:101ED0008A95E2F7C22BD32BDA685CCFCF71D0E0C2
:101EE000DC2FCC27C46FD06A55CF8C2F8F710E9406
:101EF0005E10C82FD0E0DC2FCC27CC27DF71D0625A
:101F000049CF8C2F8F710E945E1055E0D695C795F2
:101F10005A95E1F7CF70D0E0DC2FCC27282F30E0A6
:101F200084FF05C044E0220F331F4A95E1F7C22B1E
:101F3000D32BD0692FCF8D2F8F710E945E10C82FA9
:101F4000C8010E94BC0FD0E0DC2FCC27CC27DF716A
:101F5000C82BD92BD4CF462F7A3030F4663020F4FA
:101F6000672F0E945C02089590E080E008950E942F
:101F7000AB0F0E94990E089582389105B9F1B0F423
:101F80008133910509F47DC048F48932910509F443
:101F90006DC08A32910509F47BC00895853391059F
:101FA00009F45FC08933910509F10895833E9105D5
:101FB000D9F138F4803E910529F1823E910579F1FD
:101FC0000895863E9105D9F1873E910509F43EC0FA
:101FD000843E910541F52091700221FF24C080913B
:101FE0006F0284FD19C087EE90E0089520916F0282
:101FF000237009F05AC02091700223FF14C089E2B7
:1020000090E0089520916F0220FD38C03091700259
:1020100030FF09C024FF43C090E080E00895209184
:102020006F0222FDF7CF089520916F0222FD3AC082
:102030003091700230FD39C024FFF5CFEDCF2091F3
:102040006F0223FFF0CF24FDE7CFCDCF20916F02A9
:1020500023FD2EC03091700231FFEECF84EE90E070
:10206000089520916F0225FFDECFC9CF20916F0226
:1020700025FD21C02091700223FFD5CF89E390E098
:10208000D2CF20916F0226FFCECF8AE290E0089552
:1020900020916F0226FFC7CF81E390E0089583EE81
:1020A00090E0089582EE90E0089580EE90E008952B
:1020B00086EE90E0089585E390E0089590916F0298
:1020C00092FF06C0282F28712830F9F4877F84609A
:1020D00093FF06C0282F28712831F1F4877E846190
:1020E0002091700220FF06C0382F38713830D9F4A3
:1020F000877F816021FF06C0282F28712831D1F405
:10210000877E816194FD877E0895282F2471243075
:10211000F9F68B7F8860DCCF282F2471243101F7FA
:102120008B7E8861DDCF382F3171313019F78E7F8A
:102130008860E0CF282F2171213121F78E7E8861C0
:10214000E1CF10926B0210926C0210926D0210920D
:102150006E020895CF92DF92EF92FF926B017C01A5
:102160000E94AD1281110EC00E94191EC61AD70A14
:10217000E80AF90AC0926B02D0926C02E0926D02FA
:10218000F0926E02FF90EF90DF90CF9008950F9342
:102190001F930E94AD12882329F00E94191E1F91DF
:1021A0000F9108950E94191E00916B0210916C020C
:1021B00020916D0230916E02600F711F821F931F7C
:1021C000EECF80E0089508950E94020D811102C0B3
:1021D0000E94910D0E940D0D8093FD010E94170D2C
:1021E0009093700280936F020E94E3100E94120D80
:1021F00090E00E949A0780919401909195010E942D
:10220000BB07089508950E940211089508950E9441
:1022100006110895E82FF0E0E458FD4F80810895FD
:10222000089580EA8A95F1F7089500C008950E9404
:102230001111089508950E941A110895A5E0B0E0C3
:10224000E4E2F1E10C943D250E94AD12F82E60917C
:102250008602882309F440C085E0E82E8E010F5FD6
:102260001F4FF8018E2D11928A95E9F7862F90E085
:10227000B80184589D4F0E94E0128823B9F08091E4
:10228000710290E045E050E0B80184589D4F0E94F3
:10229000682521E02093FE01892B91F4F12C0E9406
:1022A00007118F2D2596E6E00C9459258091FE01AB
:1022B0008823A1F3F8011192EA94E9F71092FE0144
:1022C000A0917102B0E0A458BD4F85E0F8010190E3
:1022D0000D928A95E1F7E3CF70E064587D4F8091CD
:1022E000710290E084589D4F0E9467130E941B1159
:1022F000D8CFF894E82FE295EF70F0E031A1282FC5
:102300002F7081E090E001C0880F2A95EAF7982F9E
:102310009095932391A392A1892B82A378940895F9
:102320000F931F93CF93DF93C3E4D1E089918F3F45
:1023300011F00E94791181E0C834D807B9F7CDE3D4
:10234000D1E003E411E089918F3F11F00E947911EF
:102350000C171D07C1F7DF91CF911F910F910895C1
:10236000B0E0A0E0E6EBF1E10C943B25EC01D62EC9
:10237000062F10E0C8018D5B9E4F7C01FC0180811F
:102380008F3F09F444C0F894E82FE295EF70F0E035
:1023900091A18F7021E030E001C0220F8A95EAF709
:1023A000892F822B81A382A12095282322A37894B0
:1023B0000E941511EDE3F1E031E0C12C21912F3F96
:1023C00059F1A22FA295AF70B0E090968C9190E059
:1023D0002F7002C0959587952A95E2F780FD1CC065
:1023E000832FC82A330F81E0E334F80739F7F70168
:1023F00080818F3F11F00E94791161E0C11001C00E
:1024000060E08D2D0E941711C00FD11FC882CDB77B
:10241000DEB7E8E00C94572580E0E3CF809102011D
:102420008091020195E0811190E09093860285E011
:10243000891B809371020E9490118AE0ECE7F2E020
:10244000DF01982F1D929A95E9F7E2E7F2E0DF01AC
:102450001D928A95E9F785E00E946F120E94031190
:102460000895AAE0B0E0E7E3F2E10C943E258E0186
:102470000F5F1F4F8AE0F80111928A95E9F7F12C5E
:102480006F2DC8010E94B011F394F5E0FF12F8CF50
:102490004AE050E0B80182E792E00E94682521E01E
:1024A000009709F420E0892B41F08AE0F801A2E7C7
:1024B000B2E001900D928A95E1F76091860270E09A
:1024C00064587D4F45E082E792E00E947012182F19
:1024D0000E941E11812B2A96E5E00C945A2508953E
:1024E000CF92DF92EF92FF920F931F93CF936C01E5
:1024F0007B01042F222349F081E0809301020E9496
:102500000D1E909300028093FF01C0910102C11142
:102510000AC0C0E08C2FCF911F910F91FF90EF90D8
:10252000DF90CF9008958091FF01909100020E946A
:10253000251E059770F310E0A801B601C7010E949F
:102540006825892B41F0A801B601C7010E947525B5
:1025500010920102DFCFC0E0FBCF80910402811115
:1025600007C00E94F624882351F081E08093040282
:1025700081E090910402913009F080E0089582E0BA
:10258000809304020E94F124F3CF0E94AD120895BB
:102590000E94C512809302010E94AD1281110E9417
:1025A000161308950E94AD12811102C00E941913E2
:1025B000089581E0909105029A3008F080E0089536
:1025C0000F931F93CF93DF93EC018B018091050252
:1025D0008A30B8F4B801CE010E946413C82F81116B
:1025E00022C0809105028F3FB9F40E940D1E909386
:1025F0000302809302028C2FDF91CF911F910F91E4
:10260000089580910202909103020E94251E843F4A
:10261000914000F7C0E0EFCF8F5F809305028A30D2
:1026200020F7C1E0E8CF10920502E5CF0E94881B99
:1026300008950E948B1B0895B0E0A0E0E2E2F3E170
:102640000C943C257901C82F880FDD0B41155105ED
:10265000A9F0FE0193E0EE0FFF1F9A95E1F7ED5F01
:10266000FE4F818192818A5F9D4F208130E0421729
:10267000530708F49A01A9010E947525CE010E9412
:10268000741CD82E8823D1F001151105B9F083E010
:10269000CC0FDD1F8A95E1F7FE01ED5FFE4F438110
:1026A00050E00417150708F4A801CD5FDE4F6C81D8
:1026B0007D816A5F7D4FC7010E9475258D2DCDB745
:1026C000DEB7E7E00C9458250E94801408950E941C
:1026D000A1140895A4E0B0E0E0E7F3E10C943F25F5
:1026E000609123027091240280912502909126022C
:1026F0000E94341E11E0643671058105910518F1C0
:102700000E94C7106E5F7F4F8F4F9F4F69837A8300
:102710008B839C8310E000E030E020E044E050E058
:10272000BE016F5F7F4F84E00E941C13182F882327
:1027300051F00E94191E609323027093240280932B
:10274000250290932602812F2496E4E00C945B25C9
:10275000A1E0B0E0EEEAF3E10C943625762E4A01D2
:102760005901680101E010E09E012F5F3F4F50E0EA
:1027700040E070E060E00E941C13182F882399F15C
:10278000F40160817181828193810E94341E6436DC
:1027900071058105910500F18701950150E040E048
:1027A00070E060E0872D0E941C13B82EB701C601AF
:1027B0000E94041511E09981981310E01B2139F053
:1027C0000E94191EF4016083718382839383812F99
:1027D0002196EDE00C945225B701C6010E94041524
:1027E00099818913D9CFA701B601C5010E9475252A
:1027F000EECFA1E0B0E0EFEFF3E10C943D250091C6
:10280000480110914901095F1F4FEE24E394F12C18
:102810009E012F5F3F4F4FE152E063E082E00E9454
:10282000A813182F882321F0CE0101960E942C199D
:10283000812F2196E6E00C945925A5E0B0E0E3E273
:10284000F4E10C943B256B01009148011091490182
:102850000F5F1F4F85E0E82EF12C9E012F5F3F4F49
:102860004BE152E061E080E00E94A813882349F028
:1028700095E0FE013196A6E1B2E001900D929A95A5
:10288000E1F795E0E6E1F2E0D60101900D929A952C
:10289000E1F72596E8E00C945725B0E0A0E0E3E5E9
:1028A000F4E10C9439257C015B016A010E94D91284
:1028B00001E010E0882311F00AE010E0C1E0D0E070
:1028C000B501C701F6010995811104C021960C17C5
:1028D0001D072CF4CDB7DEB7EAE00C945525CC9F4C
:1028E0009001CD9F300D300D112490E080E045E344
:1028F0004A95F1F70000019682179307C1F7E0CFE0
:102900000F931F93CF93DF93EC018B014DE154E1C3
:102910000E944D14811106C080E0DF91CF911F917C
:102920000F91089549EF53E1B801CE010E944D1473
:10293000882391F34AE653E1B801CE010E944D1479
:10294000ECCFA1E0B0E0E7EAF4E10C943F25009180
:10295000480110914901C801019625E0FB01DC0105
:1029600001900D922A95E1F765E070E00E94041550
:10297000F8018083CE0101960E9421198981F80116
:10298000878361E070E0CE0101960E940415F80192
:1029900086836085718582859385009112021091EE
:1029A00013022091140230911502601771078207FB
:1029B000930751F0609312027093130280931402F4
:1029C000909315020E94AA102196E4E00C945B25D6
:1029D0000E94D91F0E940B0E0E94E61F08950E94BC
:1029E000EB1F0E94210E0E94052008950E94A61D43
:1029F0000E94BF1F0E94F30D0E94E8140E94EF1472
:102A00000E94010EFBCF0895FC01680F791F8FEF24
:102A100091E3E617F70709F408952191822728E04A
:102A200030E087FF06C0880F892721503109C9F798
:102A3000F0CF880FFACFB0E0A0E0E1E2F5E10C942E
:102A40003B256C017B0164E670E088E70E94481A30
:102A5000EC0197FD12C010E000E0F601E00FF11F5D
:102A6000849164E670E00E94B41AEC01892B29F489
:102A70000F5F1F4F0E151F0581F70E942A1BCE0105
:102A8000CDB7DEB7E8E00C94572508950E944515B0
:102A90000895E7E8F2E080E092E0DF019C011D92FA
:102AA00021503040E1F7F0938E04E0938D048FEFD6
:102AB0009FEF90934D0280934C0208950E9445151C
:102AC0000E9446158093480280FD0FC080E88093E5
:102AD00047020E94421A6DE070E083E993E00E9491
:102AE0001B15892B21F080E0089580E2F0CF8091C2
:102AF000480263E070E081FD26C080E993E00E9417
:102B00001B15892B81F76DE070E080E893E00E944F
:102B10001B15892B41F70E94191E605A75418F4F72
:102B20009F4F6093890470938A0480938B049093E1
:102B30008C040E94491581E080934B0280934A02E5
:102B40001092490208958DE893E0D9CF2091470271
:102B500036E0839FC0011124629F800D911D1124D6
:102B6000811522E0920714F090E080E089579D4F94
:102B700090938E0480938D04089580914B0281116F
:102B800003C080914A0208950E94191E605A75413F
:102B90008F4F9F4F6093890470938A0480938B04B6
:102BA00090938C0480914A028111EBCF62E070E037
:102BB0008EE793E00E941B15892B19F781E0809323
:102BC0004A02DFCFB0E0A0E0E8EEF5E10C94352555
:102BD00080914C0290914D02892B09F4BDC08091E7
:102BE0004B02882309F4B8C0809149028111B4C016
:102BF0000E94BD1520914C0230914D0221153105E6
:102C000009F4AAC080E041E050E0082F10E0EA019A
:102C1000082E02C0CC0FDD1F0A94E2F7BE0162232A
:102C20007323672B11F48F5FF0CF9091480290FFD0
:102C300098C0880F880F880F80932D011092300163
:102C4000895F80932E0183E08093310124E630E098
:102C500047E050E06BE271E088E70E94E21A892BBE
:102C600009F07AC0A80125E0440F551F2A95E1F725
:102C70008091480280FF87C0E7E2F2E080E2DF0156
:102C80001D928A95E9F70EE411E08AE4E82E81E0CE
:102C9000F82E97E0992E88248394D801ED918D0128
:102CA000D7016D917D01640F752F711D69577D4F9F
:102CB000F0E0E95DFD4F30E020E0792C721AA82C9D
:102CC000022E01C0AA0C0A94EAF76B0190E0D6012B
:102CD0008D916D018A21A72DA91BA770BA2E0A2EEE
:102CE000000CBB0B682E01C0660CBA94EAF7B62C38
:102CF000B195A195B109A770BB2701C08695AA958A
:102D0000EAF7A62DA82B80818A2B80839F5F9830BD
:102D1000F1F62F5F3F4F31962830310571F681E093
:102D20000235180709F0B9CF04E610E020E230E0E0
:102D300047E252E060E488E70E94031B892B61F4BC
:102D4000C095D09580914C0290914D02C823D92313
:102D5000D0934D02C0934C02CDB7DEB7EEE00C9499
:102D600051258295880F807680932D0198013695A4
:102D700027953695279520933001815E80932E010B
:102D80001092310163CF49575D4F04E610E020E215
:102D900030E0D0CF80914A0290914B02911103C054
:102DA00091E089270895882369F062E070E08CE75C
:102DB00093E00E941B15892B19F080914A02089517
:102DC00010924A0280914A02EBCF81E008950E945E
:102DD000E51608950F931F9380914B02882379F194
:102DE00080918704909188040E94251EC29760F00C
:102DF0000E940D1E909388048093870460E080E019
:102E00000E94A6150E94E7160E94E21580914A02D0
:102E10008823A9F00E94191E0091890410918A0448
:102E200020918B0430918C04601B710B820B930BEF
:102E30006F3F7F4F8F4F9F4710F40E94CA161F911C
:102E40000F910895CF93DF93EC01FB0182818823DA
:102E500009F4D2C09E0130572332310508F0B2C0C8
:102E60000E94170D9093700280936F02FE01E15053
:102E7000F047E232F10520F4EB52FA4D0C942B2589
:102E800080916F02816080936F0293C08091700285
:102E90008860809370028DC080916F028260F3CF52
:102EA00080916F028460EFCF80916F028860EBCFDA
:102EB000809170028160EDCF809170028260E9CFD5
:102EC00080916F028061DFCF80916F028062DBCFE3
:102ED00080916F028064D7CF0E94470780916F0274
:102EE0008068D1CF80916F028C60CDCF80917002CD
:102EF0008360CFCF80916F028E7FC5CF80917002AB
:102F0000877FC7CF80916F028D7FBDCF80916F0289
:102F10008B7FB9CF80916F02877FB5CF8091700290
:102F20008E7FB7CF809170028D7FB3CF80916F027B
:102F30008F7EA9CF80916F028F7DA5CF80916F0288
:102F40008F7BA1CF0E94470780916F028F779BCF25
:102F500080916F02837F97CF809170028C7F99CF91
:102F600080916F0282FB992790F921E0922790FBD4
:102F700082F990FB83F987CF80917002982F90950A
:102F800091708E7F892B90FB81F983CF90916F0296
:102F9000892F8F7B96FF806476CF0E9447079091A0
:102FA0006F02892F97FB87F980586DCF81E00E94CF
:102FB000940D80916F02909170020E941C0D0E94EE
:102FC000470780E0DF91CF91089580E0F0CF9091A6
:102FD0006F02892F8F7E94FF806155CF90916F0291
:102FE000892F8E7F90FF81604ECF90917002892F44
:102FF000877F93FF88604DCF81E0E4CF8FE891E039
:103000000197F1F700C00000089581E008950E9443
:10301000051808950E94AD1208950F931F93CF9342
:10302000DF939091020181E0982790935202282F1C
:10303000291B209351029091020180935302909199
:1030400002018093500280910201811106C084EF39
:103050008093330185EF8093320120913301E22F79
:10306000E295EF70F0E061A12F7081E090E0AC019B
:1030700001C0440F2A95EAF7342F3095362331A347
:1030800022A1242B22A320913201E22FE295EF709E
:10309000F0E031A12F7001C0880F2A95EAF7982F30
:1030A0009095932391A392A1892B82A30E94FE174E
:1030B0006091530246E552E0C3E3D1E002E311E040
:1030C000FA0126C02991822F82958F7090E0DC0151
:1030D00090968C9190E02F7002C0959587952A95D7
:1030E000E2F78170D8019D918D01292F22952F70D3
:1030F00030E0D90190962C9130E09F7002C0359558
:1031000027959A95E2F790E020FD92E0892B819334
:103110008E2F841B8617B0F2DF91CF911F910F91F4
:103120000895B0E0A0E0E7E9F8E10C943B2510E059
:1031300000E082E0C82ED12C80915302181730F0A5
:10314000802FCDB7DEB7E8E00C945725C12FD0E033
:10315000FE01ED5CFE4F8081E82FE295EF70F0E01C
:10316000E0A1F0E08F7002C0F595E7958A95E2F74F
:10317000E170DE01AE5CBE4F4C91A42FA295AF7002
:10318000B0E090968C9190E04F7002C09595879535
:103190004A95E2F780FD4DC080E08E2BDE01AA5AF1
:1031A000BD4FEC919E2F9370981709F440C0EE0F1D
:1031B000EE0FE82BEC93E0905202E10EEF70F0E09E
:1031C000EE5AFE4FCC5ADD4F80819881890F88835B
:1031D000F12C823084F0EE2DF0E0E25BFD4F808137
:1031E0008F5F80830E940A18F82E882321F160E007
:1031F0008E2D0E94071888818F3F84F4EE2DF0E019
:10320000E25BFD4F8081815080830E940A18F82E76
:103210008823A1F061E08E2D0E9407188881082E76
:10322000000C990BB6010E94172588830F291F5F98
:1032300083CF82E0B2CFFF24F394DDCFFF24F39459
:10324000EDCF4091530250E06091520270E0625B1A
:103250007D4F0E9475250895B0E0A0E0E2E3F9E11A
:103260000C943B256C01D0E080E090915002D9177E
:1032700040F081110E94D50DCDB7DEB7E8E00C9487
:103280005725F0905102FD0E0F2D10E0025B1D4FEF
:10329000F601ED0FF11DC081F8019081C91BEC2EE4
:1032A0001E1444F09C2FC7FD90E0C91BC1110DC036
:1032B000DF5FDBCFEA94F80180818F5F808360E07D
:1032C0008F2D0E94071881E0EBCFCF5FF80180813E
:1032D0008150808361E08F2D0E94071881E0E6CF46
:1032E000CF93DF93EB0186319C4711F50E94140CBC
:1032F0009A81992399F08A7A91E009F490E0909369
:103300005802811109C089E20E94C60B0E94550C27
:1033100080E0DF91CF91089585E3F6CF8091580248
:10332000811104C089E20E94CE0BF0CF85E3FBCF70
:1033300081E0EFCF0F931F93CF93DF93C42FD22F52
:10334000FC0182818823C9F040935B020E940D1E1C
:1033500090935A028093590280E28C0F883040F497
:10336000C77081E001C0880FCA95EAF70E949204F5
:10337000DF91CF911F910F91089510915B0214136B
:1033800032C08091590290915A020E94251E8436C3
:10339000910548F5C0E2CD0F1D17B9F080E2810F0D
:1033A000883040F4177081E001C0880F1A95EAF761
:1033B0000E949904C83048F481E09D2F977001C0A5
:1033C000880F9A95EAF70E949204802F0E94890440
:1033D000C83070F6D77081E001C0880FDA95EAF73F
:1033E0000E949904C5CF80E28C0F883008F6C77020
:1033F00081E001C0880FCA95EAF7F2CF0F93DB0195
:1034000088519C4787309105A0F5FC01E950FA4DA1
:103410000C942B2506E221EE41EE6AE17CE7CD011A
:103420000E949A1980E00F91089507E225EE45EE7B
:103430006BE17CE7F4CF06E221EE40EE68E17CE749
:10344000EECF07E225EE44EE69E17CE7E8CF06E245
:1034500021EE42EE6CE17CE7E2CF07E225EE46EE9C
:103460006DE17CE7DCCF08E221E045EE6EE17CE730
:10347000D6CF12968C91882319F010925B02D3CF8D
:1034800081E0D1CF1092B9008CE08093B80008950C
:10349000B0E0A0E0EEE4FAE10C943825B82EEB01A0
:1034A0000E940D1E6C01EE24E394F12CC431D10571
:1034B00060F025E0E22EF12CCF3FDC0731F0CE01A9
:1034C00064E170E00E9403257B0184EAA82E94E861
:1034D000992E1092BC00A092BC000E940D1E8C017F
:1034E0008091BC0087FF0DC08091B900887F883033
:1034F000F9F08091B900887F8031D1F00FEF1FEF94
:1035000008C0C8010E94251EE816F90648F70EEF0C
:103510001FEFCF3FDC07E9F2C6010E94251EC81746
:10352000D907B8F6C801CDB7DEB7EBE00C94542547
:10353000B092BB009092BC000E940D1E8C01809145
:10354000BC0087FF0AC08091B900887F883111F0E4
:103550008034A1F610E000E0E5CFC8010E94251EEE
:10356000E816F90660F7D3CF0F931F93CF93DF933D
:10357000EB018093BB0084E88093BC000E940D1E89
:103580008C018091BC0087FF11C02091B900287F79
:1035900081E090E0283211F490E080E091958195EF
:1035A0009109DF91CF911F910F910895CF3FDC07D3
:1035B00041F3C8010E94251EC817D90710F78EEFE6
:1035C0009FEFEFCFB0E0A0E0E8EEFAE10C943B25EE
:1035D0006B018A017901B9010E94481AE6010C0DBC
:1035E0001D1DC017D10711F097FF08C024E92093D3
:1035F000BC00CDB7DEB7E8E00C945725B701899140
:103600000E94B41AEECFB0E0A0E0E9E0FBE10C9438
:103610003B25C62F6A017901B8010E94481A97FD1F
:103620000CC0B8018C2F0E94B41AE601EC0CFD1CF2
:10363000CE15DF0511F097FF08C024E92093BC00E8
:10364000CDB7DEB7E8E00C945725B80189910E9408
:10365000B41AEECF84E98093BC0008958EE14A9BB2
:1036600002C08150E1F74A9BFECF08955A9880E24C
:103670008A95F1F75A9A0895FC013BE03A95F1F7E3
:1036800098E020E080E031E040E14A95F1F7880FD2
:103690004A9B02C08160232742E04A95F1F700006F
:1036A00040E14A95F1F7915079F790E19A95F1F759
:1036B00099B132E03A95F1F7000040E14A95F1F70F
:1036C00092FB992790F992272081920F9083089579
:1036D000A1E0B0E0EEE6FBE10C943D2519828C01FF
:1036E0007C01E60EF11C0E151F0541F481E0998165
:1036F000911180E02196E6E00C9459250E942E1B42
:10370000CE0101960E943C1BF80181938F01EBCF03
:10371000529A5A9A089552985A9AEA9AE9E6F0E02B
:1037200080818F7C808308956150770B91E001C088
:10373000990F6A95EAF720E031E0911108C0222341
:1037400091F05A9A80E28A95F1F75A980895492F94
:10375000482339F05A9A232740E24A95F1F7969583
:10376000ECCF5A98F9CF5A98EDCFFF920F931F9351
:10377000CF93DF93EC018C01060F111DC017D10709
:1037800029F4CDB7DEB7E5E00C945A25F9900E94F4
:10379000361B68E08F2D0E94941BF0CF1F920F9272
:1037A0000FB60F9211240F931F932F933F934F93B4
:1037B0005F936F937F938F939F93AF93BF93EF9399
:1037C000FF93CF93DF930F92CDB7DEB719820E949C
:1037D0002E1BCE0101960E943C1B082F06950695D4
:1037E0000695282F22952570902F9570290F922FDE
:1037F000937026952695920F982797708981982B1C
:1038000009F05CC0063008F059C080E18A95F1F7F4
:103810005A9A529A82E08A95F1F700C05A9888E045
:10382000089F80011124D801AD5FBE4F1696ED911F
:10383000FC9117973097A9F0609148017091490168
:1038400014962D913C911597260F371F11968D9147
:103850009C911297680F791F13964C9113978C9136
:103860000995F801ED5FFE4F6381662351F02091C9
:1038700048013091490184819581820F931F0E94F4
:10388000B51B0E94361B80E18A95F1F75A98529831
:103890005A9A80E18A95F1F7F801ED5FFE4F608159
:1038A000662351F020914801309149018181928134
:1038B000820F931F0E94681B0E942E1B0F90DF91A6
:1038C000CF91FF91EF91BF91AF919F918F917F9198
:1038D0006F915F914F913F912F911F910F910F9099
:1038E0000FBE0F901F9018950F931F93CF93DF93E8
:1038F000EC0106970CF04CC0F894529A5A9885E067
:103900008A95F1F700009C2F969595708C2F857005
:10391000980F892F83709695969523E0CC0FDD1F25
:103920002A95E1F7980F8E01092B0E94361B00C0E3
:1039300068E0802F0E94941B80E18A95F1F75298ED
:103940005A9A4A9B1EC087E090E04A991CC0FE012B
:10395000ED5FFE4F63816623F9F0209148013091BD
:10396000490184819581820F931F0E94681B8111F8
:1039700013C0529A5A9A7894DF91CF911F910F9168
:10398000089500C0DECF019729F4529A5A9A78948C
:1039900080E0F2CF00C0D9CF0E942E1B80E28A9532
:1039A000F1F75A98529A80E18A95F1F7CD5FDE4F90
:1039B0006881662351F02091480130914901898145
:1039C0009A81820F931F0E94B51B0E94361B789428
:1039D00081E0D2CF90936301809362010895909328
:1039E0005E0280935D0208950E94AD12811103C0B2
:1039F00080915C020895E0915D02F0915E02309743
:103A000029F00190F081E02D0995089580E0089556
:103A1000E0915D02F0915E02309721F00280F38127
:103A2000E02D099508959C012E5F3F4FAC01485F42
:103A30005F4F80E02417350709F40895F90191914B
:103A40009F019923B9F38F5FF5CF662349F0FC01FD
:103A5000329608962191261729F0E817F907D1F731
:103A600080E0089581E008959C01FC0132969FEF6B
:103A700080E04191461751F09F3F19F4411101C078
:103A8000982F8F5F8630A9F79F3F09F40895290F7B
:103A9000311D97FD3A95F90162830895FC01329634
:103AA00008962191261303C0DF0111971C92E81795
:103AB000F907B9F708950E94341D08950E944E1D1C
:103AC0000895029626E0FC0111922A95E9F70895DF
:103AD00008950E94681D0895811106C081E08093B9
:103AE0005F020E94691D089582E0F9CF83E0809310
:103AF0005F020E94691D08950E946C1D089581E077
:103B000080935F020E94691D08950E947F1D0895A1
:103B1000089508950E94891D0895089508950E94AA
:103B2000881D0895CF930E948D1D0E9431120E941E
:103B30008E1DC0E08C2F0E940A11811105C0CF5F3D
:103B4000CA30C1F7CF91089581E0FCCF85B7806876
:103B500085BF85B7806885BF08951F921FB61F92E5
:103B600011248F939F93AF93BF9380916002811133
:103B700013C080918F0490919004A0919104B09112
:103B800092044196A11DB11D80938F0490939004DF
:103B9000A0939104B0939204BF91AF919F918F91A4
:103BA0001F901FBE1F90189580919704843031F1AB
:103BB0000E941D031092600288E190E020E40FB69D
:103BC000F894A895809360000FBE2093600083B79F
:103BD000817F846083BF83B7816083BF7894889539
:103BE00083B78E7F83BF0FB6F894A895809160004D
:103BF000886180936000109260000FBE08950E945B
:103C000047070E942403089582E084BD93E095BD98
:103C10009AEF97BD80936E0008952FB7F894809126
:103C20008F0490919004A0919104B09192042FBFC1
:103C300008952FB7F89460918F047091900480914B
:103C40009104909192042FBF08959C014FB7F8946E
:103C500080918F0490919004A0919104B09192046E
:103C60004FBF821B930B0895CF92DF92EF92FF928A
:103C70002FB7F894C0908F04D0909004E0909104F6
:103C8000F09092042FBFA7019601261B370B480B1B
:103C9000590BCA01B901FF90EF90DF90CF900895C2
:103CA00078941F921FB61F9211248F939F93AF9306
:103CB000BF9380918F0490919004A0919104B09152
:103CC00092040196A11DB11D80938F0490939004DE
:103CD000A0939104B0939204BF91AF919F918F9163
:103CE0001F901FBE1F90189587E797E790930108D4
:103CF0008093000888E19AE00FB6F894A895809325
:103D000060000FBE90936000FFCF88E19AE00FB68D
:103D1000F894A895809360000FBE90936000FFCF49
:103D2000809169020895089508959B01BA019091C8
:103D300097049430E9F48F708093E9009FEF8091AD
:103D4000E800915085FD06C085ED8A95F1F70000E9
:103D50009111F5CF8091E80085FF0AC050E040E066
:103D6000C9010E946A208091E8008E778093E80064
:103D70000895CF93DF93EC0148E050E0BC0181E06F
:103D80000E94951E88E0FE01A1E6B2E001900D922E
:103D90008A95E1F7DF91CF91089580919604811182
:103DA00009C00E94FA210E9457228091E20084609B
:103DB0008093E20008951092960408950E947F1D5A
:103DC00008956091930481E0611101C080E00E9438
:103DD000761D08959091970481E0943009F080E079
:103DE000609193040E947C1D089542E061EC81E0A3
:103DF0000E9476219091970481E0943009F080E050
:103E0000609193040E946C1D089580919904833001
:103E100009F461C030F48130D1F1823009F49EC0E0
:103E200008958A3009F48AC08B3009F46FC0893054
:103E300009F050C080919804813209F04BC0809104
:103E40009C0490919D04892B09F044C08091E80066
:103E5000877F8093E8008091E80082FF37C09091CF
:103E6000F3008091F200029731F48091F1008130EB
:103E700011F0863021F48091F100809369028091E5
:103E8000E8008B778093E8000E94AA2123C08091EC
:103E90009804813AF9F48091E800877F8093E800E4
:103EA00080919C0490919D04892B61F468E081E6E7
:103EB00092E070E00E94B9208091E8008B778093B7
:103EC000E800089560E090E080E0F3CF80919704EF
:103ED0008111C1CF089580919804813AD9F78091DA
:103EE0009C0490919D04892BA9F78091E800877F1D
:103EF0008093E8008091E80080FFFCCF80913C0136
:103F00008093F1008091E8008E77BCCF8091980477
:103F1000813201F780919C0490919D04892BD1F608
:103F20008091E800877F8093E8000E94AA21809119
:103F30009A0480933C010E94470708958091980459
:103F4000813241F68091E800877F8093E8000E94EB
:103F5000AA2180919B0480936A020895809198041D
:103F6000813A09F0B7CF8091E800877F8093E8001D
:103F70008091E80080FFFCCF80916A02C1CF84B7B6
:103F8000877F84BF0FB6F894A89580916000886100
:103F900080936000109260000FBE80E890E00FB642
:103FA000F89480936100909361000FBE0E94851D7C
:103FB00008950E94FA210E945722E2EEF0E08081EB
:103FC0008460808378940E94D624089584E391E0ED
:103FD0000E94EF1C089580919704853031F4809100
:103FE0009704853019F00E94FF1D08950E94D41D8A
:103FF00080919504882399F30E94921D882379F378
:104000000E9454200E944707EACF08959A014091E8
:104010009E0450919F040E940E200895492F552719
:1040200043305105C9F058F44130510599F14230FF
:104030005105A9F190E080E050E040E01DC0413220
:10404000510509F142325105A9F780E490E042E0C0
:1040500054E0672B79F710C099278130910581F0E2
:10406000009729F0029731F7E0EAF3E002C0EAECAA
:10407000F3E0849190E0AF01F9015183408308950A
:10408000EEEAF3E0F6CF89E090E040EE53E0672BF4
:1040900089F6F2CF82E190E040EF53E0EDCF82E28B
:1040A00090E04EEC53E0E8CF80E189BD82E189BD2C
:1040B00009B400FEFDCF8091D8008F7D8093D80099
:1040C0008091E00082608093E0008091E00081FDBB
:1040D000FCCF0895AF92BF92CF92DF92FF920F93E1
:1040E0001F93CF93DF936C01EB018A010E94C921DA
:1040F000F82E811123C00115110539F0F8018081D6
:104100009181C81BD90BC80ED91EB12CA12C2097A8
:10411000A9F08091E80085FD22C08091E8008E77AB
:104120008093E80001151105A1F0F80180819181CB
:10413000A80EB91EB182A08285E0F82E8F2DDF91E6
:10414000CF911F910F91FF90DF90CF90BF90AF90D4
:1041500008950E94C9218823D1F2F82EEFCFF601ED
:1041600081916F018093F1002197FFEFAF1ABF0A91
:10417000CECFFC0180919E0490919F0486179707F3
:10418000A0F06115710529F49091E8009E77909355
:10419000E80090E06115710551F4911108C080911B
:1041A000E80082FF34C080E00895BC01F2CF809126
:1041B00097048823C1F18530C1F18091E80083FD27
:1041C00030C08091E80082FDEACF8091E80080FF56
:1041D000E1CF8091F3002091F200382F6115710535
:1041E00019F02830310558F091E02830310509F0F8
:1041F00090E02091E8002E772093E800CBCF8191CA
:104200008093F100615071092F5F3F4FE7CF80919C
:104210009704882341F0853041F08091E80083FFC6
:10422000BECF81E0089582E0089583E00895FC0107
:1042300080919E0490919F0486179707A0F06115C6
:10424000710529F48091E8008E778093E80090E072
:104250006115710551F4911108C08091E80082FF49
:1042600035C080E00895BC01F2CF80919704882387
:10427000C9F18530C9F18091E80083FD31C080919A
:10428000E80082FDEACF8091E80080FFE1CF8091D5
:10429000F3002091F200382F6115710519F02830D4
:1042A000310558F091E02830310509F090E0809117
:1042B000E8008E778093E800CBCF84918093F10063
:1042C0003196615071092F5F3F4FE6CF809197047F
:1042D000882341F0853041F08091E80083FFBDCF15
:1042E00081E0089582E0089583E00895982F973043
:1042F00028F08F708093E90081E008959093E900A1
:10430000242F762F50E0981731F07091EC00209117
:10431000ED005091F00021FD02C09F5FE8CF309189
:10432000EB003E7F3093EB003091ED003D7F30930A
:10433000ED003091EB0031603093EB007093EC00B6
:104340002093ED005093F0002091EE0027FDE5CF83
:1043500080E008958091980487FF13C08091E80061
:1043600082FF06C08091E8008B778093E80004C04C
:10437000809197048111F2CF08958091970488234A
:10438000D9F38091E80080FFF8CF8091E8008E7724
:10439000ECCF2091E4003091E50095E6A901209151
:1043A000EC00822F817020FF06C08091E80080FF22
:1043B00006C080E008952091E80022FD1AC0809197
:1043C0009704882389F0853089F08091EB0085FD82
:1043D0000FC02091E4003091E50042175307F9F235
:1043E0009150E1F684E0089582E0089583E0089515
:1043F00081E008950E9469220E947122E0EEF0E0BF
:10440000808181608083E8EDF0E080818F77808318
:1044100019BCA7EDB0E08C918E7F8C9380818F7E4C
:1044200080831092960408950F931F93CF93DF9388
:104430000E9469220E947122C8EDD0E088818F77A6
:10444000888388818068888388818F7D888319BC70
:104450001092970410929304109295041092940471
:1044600000EE10E0F80180818B7F8083888181607D
:10447000888342E060E080E00E947621E1EEF0E097
:1044800080818E7F8083E2EEF0E080818160808396
:10449000808188608083F80180818E7F808388811D
:1044A00080618883DF91CF911F910F910895E8ED8E
:1044B000F0E080818F7E8083E7EDF0E08081816095
:1044C000808384E082BF81E0809396040E9414225E
:1044D0000895E8EDF0E080818E7F80831092E20005
:1044E00008951092DA001092E10008951F920F9241
:1044F0000FB60F9211242F933F934F935F936F93B7
:104500007F938F939F93AF93BF93EF93FF9380918C
:10451000E10082FF0BC08091E20082FF07C0809122
:10452000E1008B7F8093E1000E94D5248091DA0026
:1045300080FF19C08091D80080FF15C08091DA00FB
:104540008E7F8093DA008091D90080FF96C080E151
:1045500089BD82E189BD09B400FEFDCF81E0809371
:1045600097040E94CD1E8091E10080FF19C08091C8
:10457000E20080FF15C08091E2008E7F8093E20010
:104580008091E20080618093E2008091D800806297
:104590008093D80019BC85E0809397040E94E11EA7
:1045A0008091E10084FF2BC08091E20084FF27C04E
:1045B00080E189BD82E189BD89B5982F917080FF26
:1045C000FBCF8091D8008F7D8093D8008091E1004F
:1045D0008F7E8093E1008091E2008F7E8093E200E5
:1045E0008091E20081608093E200809193048823AF
:1045F00009F449C084E0809397040E94EA1E8091E8
:10460000E10083FF29C08091E20083FF25C08091F3
:10461000E100877F8093E10082E08093970410920D
:1046200093048091E1008E7F8093E1008091E2000D
:104630008E7F8093E2008091E20080618093E200AF
:1046400042E060E080E00E9476218091F000886086
:104650008093F0000E94DE1EFF91EF91BF91AF9119
:104660009F918F917F916F915F914F913F912F918A
:104670000F900FBE0F901F90189519BC10929704C1
:104680000E94DB1E70CF8091E30087FD93E0909342
:104690009704B3CF1F920F920FB60F9211242F934E
:1046A0003F934F935F936F937F938F939F93AF93BA
:1046B000BF93CF93DF93EF93FF93D091E900DF7027
:1046C0008091EC00C82FC17080FDC0E81092E90015
:1046D0008091F000877F8093F00078940E948E2371
:1046E0001092E9008091F00088608093F000CD2B5B
:1046F000CF70C093E900FF91EF91DF91CF91BF910F
:10470000AF919F918F917F916F915F914F913F9169
:104710002F910F900FBE0F901F901895AAE2B0E056
:10472000E4E9F3E20C94402588E994E02091F1005B
:10473000FC012193CF01F4E0803A9F07B9F70E9472
:10474000051F8091E80083FF1EC18091980490911D
:1047500099049A3008F017C1E92FF0E0E250FA4DC1
:104760000C942B25803899F0823809F00CC1809187
:104770009C048F70873008F006C18093E900809117
:10478000EB0085FB882780F91092E90006C0809134
:10479000940490919504911182609091E800977F24
:1047A0009093E8008093F1001092F1008091E8006E
:1047B0008E77E5C0882309F4D3C0823009F0E3C0C6
:1047C00080919A048111D6C080919C048F702FEF44
:1047D000280F263008F0D7C08093E9002091EB0025
:1047E00020FFC8C0933031F48091EB008062809349
:1047F000EB00C0C09091EB0090619093EB0021E042
:1048000030E001C0220F8A95EAF72093EA00109267
:10481000EA008091EB008860EACF8111B4C010916A
:104820009A041F778091E3008078812B8093E300C6
:104830008091E800877F8093E8000E94AA21809100
:10484000E80080FFFCCF8091E30080688093E30064
:1048500082E0111183E08093970495C080588230E4
:1048600008F091C080919A0490919B048C3D23E0C4
:104870009207A1F583E08A838AE289834FB7F8948F
:10488000DE01139620E03EE051E2E32FF0E050938A
:104890005700E49120FF03C0E295EF703F5FEF7097
:1048A0008E2F90E0EA30C0F0C7968D939D932F5FD6
:1048B000243159F74FBF8091E800877F8093E8004B
:1048C0006AE270E0CE0101960E94B9208091E80072
:1048D0008B778093E80057C0C096E7CF60919C0427
:1048E00070919D04AE014F5F5F4F0E940620BC0196
:1048F000892B09F448C09091E800977F9093E800D5
:1049000089819A810E941721E1CF8038E1F5809159
:10491000E800877F8093E800809193048093F10002
:1049200045CF811130C090919A04923060F580910A
:10493000E800877F8093E800909393040E94AA2167
:1049400080919304882311F084E005C08091E300F6
:1049500087FDFACF81E0809397040E94F51E13C073
:1049600080919A04813079F481E0933009F080E0FD
:10497000809395041092E9008091E800877F8093EE
:10498000E8000E94AA218091E80083FF0AC080917C
:10499000E800877F8093E8008091EB00806280933D
:1049A000EB00AA96E3E00C945C250895CF938091E8
:1049B00097048823A1F0C091E900CF709091EC009A
:1049C000892F817090FD80E8C82B1092E9008091BA
:1049D000E80083FD0E948E23CF70C093E900CF9141
:1049E00008950E94FA21109297040895E8EDF0E0EE
:1049F0008081806180838AE18A95F1F700C080918F
:104A0000D90081700895AA1BBB1B51E107C0AA1FE2
:104A1000BB1FA617B70710F0A61BB70B881F991F5F
:104A20005A95A9F780959095BC01CD01089597FB03
:104A3000072E16F4009407D077FD09D00E940325B5
:104A400007FC05D03EF4909581959F4F0895709591
:104A500061957F4F0895EE0FFF1F0590F491E02DB3
:104A600009942F923F924F925F926F927F928F9212
:104A70009F92AF92BF92CF92DF92EF92FF920F93ED
:104A80001F93CF93DF93CDB7DEB7CA1BDB0B0FB6F7
:104A9000F894DEBF0FBECDBF09942A8839884888B4
:104AA0005F846E847D848C849B84AA84B984C8844A
:104AB000DF80EE80FD800C811B81AA81B981CE0F41
:104AC000D11D0FB6F894DEBF0FBECDBFED01089526
:104AD000FB01DC0104C08D910190801921F441504B
:104AE0005040C8F7881B990B0895FB01DC0102C0F8
:104AF00001900D9241505040D8F70895F999FECF9A
:104B000092BD81BDF89A992780B50895A8E1B0E0DB
:104B100042E050E00C94B225262FF999FECF92BDC9
:104B200081BDF89A019700B4021639F01FBA20BD72
:104B30000FB6F894FA9AF99A0FBE08950396272FA4
:104B40000E948D250E948C25252F0E948D25242FC3
:104B50000C948D250196272F0E948D250C948C2571
:104B6000DC01CB01FC01F999FECF06C0F2BDE1BD2D
:104B7000F89A319600B40D9241505040B8F708951C
:104B8000F894FFCFE204E2043D053D05120512054D
:104B90009A061205B205250635063506A306C40693
:104BA000AD06B006B706B306BC067A17EE17821735
:104BB0004C175017861754178A1796176017E71760
:104BC00064179A1768179E17C6176C17A217CD1788
:104BD0007217A817B01758178E175C179217761709
:104BE000AC17BC17D617E51746177E17F5171B1A13
:104BF000211A0A1A151A271A2D1A331AB223DA2380
:104C0000C324DA23C3240D242E24C3248524912411
:104C1000DB010100000001000000000000000501B0
:104C20000000000000000106000000000000010775
:104C300000000004080000000000000021007F22A6
:104C40000003F4F5901EB91E941E931E01F6F73171
:104C50003332366697C6343506020008101818102D
:104C6000080000FF0100010000FFFF00000100013B
:024C7000FF0043
:00000001FF
