:100000000C94D4050C94F1050C94F1050C942C2659
:100010000C94F1050C94F1050C94F1050C94F10588
:100020000C94F1050C94F1050C943B2D0C940F2EBF
:100030000C9455280C94F1050C94F1050C94F105E1
:100040000C94F1050C94F1050C94F1050C94F10558
:100050000C94F1050C94F8280C94F1050C94F1051E
:100060000C94F1050C94F1050C94F1050C94F10538
:100070000C94F1050C94F1050C94F1050C94F10528
:100080000C94F1050C94F1050C94F1050C94F10518
:100090000C94F1050C94F1050C94F1050C94F10508
:1000A0000C94F1050C94F1050C94F1050005010583
:1000B0000205030504050505000601060206030600
:1000C00004060506000701070207030704070507E2
:1000D00000080108020803080408050800090109CE
:1000E00002090309040905090000010002000300D8
:1000F00004000500000101010201030104010501E2
:1001000000020102020203020402050200030103CD
:1001100002030303040305030004010402040304AF
:1001200004040504556E6B6E6F776E004B65796243
:100130006F61726420436F6E666967004E756D6211
:10014000657220506164004F6E652053686F7420A3
:100150004D6F64730041707020436F6E74726F6CEA
:10016000004E617669676174650053796D626F6CEA
:10017000730042617365204C6179657200436D6460
:10018000002020000A00416C74002020000A004377
:10019000746C002020000A00536674002020000ABE
:1001A0000057504D002020002020000A00000000D1
:1001B0000000000102040C1010202020283E1C200A
:1001C000203E0F111F000000000000000000000092
:1001D0000000E09008186010080403000000000010
:1001E0000000020E827C03000000000000000000FE
:1001F0000000000000000000000000E01C020502FA
:1002000024040402A91EE000000000000000000019
:100210000000000000000000002B0014001A00097C
:1002200000130005002A0004001500160017000A3C
:100230000029001D001B0006000700190000000037
:100240000024522352E100140900000000000000C5
:1002500000000000002F0033001C0018000F000DEC
:1002600000280012000C00080011001000340038B3
:1002700000370036000B000E000000000022522163
:10028000522C0043000000000000000000000000AD
:100290000020122D002E0037123812310064002D7C
:1002A000123300331236001E1200001F12361221C4
:1002B0001235003512000000000652055200000001
:1002C0000000000000000000000000000025122EC9
:1002D00012370030122F1223122412311234122737
:1002E000122612340000002014380030002F0022A3
:1002F00012000000000000000000000000000000EC
:1003000000000000000000000000005018511852CA
:10031000184F18000000005014511452144F1400CC
:100320000000002A082A044C040E0100000000000E
:100330000000000000E100000000000000000000DC
:1003400000000000000000450044003B003A0000AF
:100350000000004F00520051005000000000004318
:100360000027182E182D18000000000000000000C3
:10037000000000000000000000000000000000007D
:100380000000001E0F1F0F200F210F28080000354E
:10039000071D071B0D060D2C0D0000350F1D0F1B33
:1003A0000506052B0C00000000000000002C0800D2
:1003B000000000000000000000000000000000003D
:1003C000000000000000000000000000000000002D
:1003D000000000000000000000000000000000001D
:1003E000000000000000000000000000000000000D
:1003F00000000000000000000000000000000000FD
:1004000000000000000000A252A152A452A852AF66
:10041000520000000000000000000000000000008A
:1004200000000000000000000000000000000000CC
:1004300000000000000000000000000000000000BC
:1004400000000000000000000000000000000000AC
:10045000000000000000000000000000000000009C
:10046000000000000000000000000000000000008C
:10047000002B00000000000000000000002A000027
:100480000000000000000000002900000000000043
:10049000000000000000000000000000520000000A
:1004A00000000000000000000000000000000056F6
:1004B00000610060005F005400000057005E005DB6
:1004C000005C00550000002B005B005A00590067DB
:1004D000000000000063006200280000000000002F
:1004E000000000000000000000007C000000000090
:1004F00000000000000000000000000000000000FC
:1005000000000000000000000000000000000000EB
:100510000000000052000000000000000000000089
:1005200000000000000000000000000000000000CB
:1005300000000000000000000000000000000000BB
:1005400000000000000000000000000000000000AB
:10055000000000000000AE00AF00DA0281FFD9F118
:10056000DB20A4A62EAF00A0C0D30000A1C8D300FA
:1005700000AED580A81F408D14200007087F080713
:10058000003E5B4F5B3E003E6B4F6B3E001C3E7C73
:100590003E1C00183C7E3C18001C577D571C001C5C
:1005A0005E7F5E1C0000183C180000FFE7C3E7FFF9
:1005B00000001824180000FFE7DBE7FF0030483A8E
:1005C000060E00262979292600407F0505070040F0
:1005D0007F05253F005A3CE73C5A007F3E1C1C0823
:1005E00000081C1C3E7F0014227F2214005F5F0065
:1005F0005F5F0006097F017F00006689956A0060E1
:10060000606060600094A2FFA2940008047E040869
:100610000010207E20100008082A1C0800081C2A50
:100620000808001E10101010000C1E0C1E0C0030CC
:10063000383E383000060E3E0E0600000000000076
:100640000000005F000000000700070000147F1496
:100650007F1400242A7F2A120023130864620036C4
:100660004956205000000807030000001C224100EA
:10067000000041221C00002A1C7F1C2A0008083EA2
:100680000808000080703000000808080808000012
:1006900000606000002010080402003E5149453E01
:1006A0000000427F4000007249494946002141490B
:1006B0004D33001814127F10002745454539003C82
:1006C0004A49493100412111090700364949493653
:1006D00000464949291E0000001400000000403473
:1006E0000000000008142241001414141414000027
:1006F00041221408000201590906003E415D594E8D
:10070000007C1211127C007F49494936003E41416C
:100710004122007F4141413E007F49494941007FDC
:1007200009090901003E41415173007F0808087F13
:100730000000417F4100002040413F01007F08143C
:100740002241007F40404040007F021C027F007F2A
:100750000408107F003E4141413E007F090909061F
:10076000003E4151215E007F091929460026494972
:1007700049320003017F0103003F4040403F001F1A
:100780002040201F003F4038403F0063140814639E
:10079000000304780403006159494D4300007F4180
:1007A000414100020408102000004141417F000443
:1007B00002010204004040404040000003070800DE
:1007C000002054547840007F284444380038444482
:1007D000442800384444287F0038545454180000FA
:1007E000087E09020018A4A49C78007F08040478FD
:1007F0000000447D4000002040403D00007F102864
:1008000044000000417F4000007C04780478007CB4
:100810000804047800384444443800FC18242418A0
:100820000018242418FC007C0804040800485454D0
:1008300054240004043F4424003C4040207C001C1D
:100840002040201C003C4030403C004428102844FC
:10085000004C9090907C004464544C440000083656
:10086000410000000077000000004136080000024F
:1008700001020402003C2623263C00000000000088
:1008800000404040F0F8F8FF38FFF8F83FF8F8FF74
:1008900038FFF8F8F040404000000000000080C041
:1008A000C0C0800000C0C08000000080C0C000C088
:1008B000C0000080C0C00000000000C0C0C0C0C0B8
:1008C00000C0C000000000000000000000000000A8
:1008D0000000000000000000000000000000000018
:1008E0000000000000000000000000000000000008
:1008F00000000000000000000000C0F0F8FC3E1EF8
:1009000006010000007F4141417F007F4141417F5E
:10091000000080C0E07E5B4F5BFEC00000C000DCDA
:10092000D7DEDEDED7DC00C00000000000000000E3
:1009300000000000000000000000000000000000B7
:1009400000494949FFFFFFFFE0DFBFBF00BFBFDF36
:10095000E0FFFFFFFF49494900000000001F3F6022
:1009600060E0BF1F007F7F071E381E077F7F007F6C
:100970007F0E1F3B716000000000007F7F0C0C0C9D
:10098000007E7E007F7E0303007F7E03037E7E0366
:10099000037F7E000F3E703C063C703E0F00327BB2
:1009A00049493F7E007F7E0303001E3F69696F2631
:1009B00000000000000000000000030F1F3F3C7813
:1009C00070600000007F4141417F007F4141417FD5
:1009D00000307B7F7830202030787F3B0003000F91
:1009E0007F0F0F0F7F0F00030000000000000000CA
:1009F00000000000000000000000000000000000F7
:100A000000010101070F0F7F0F7F0F0F7E0F0F7F78
:100A10000F7F0F0F07010101000000000000000020
:100A200000000101000000000000000000000000C4
:100A300000000000000000000000000000000000B6
:100A400000000000000000000000000000000000A6
:100A50000000000000000000000000000000000096
:100A60000000000000000000000000000000000086
:100A70000000000000000000000000000000000076
:100A80000000000000000000000000000000000066
:100A90000000000000000000000000000000000056
:100AA0000000000000000000000000000000000046
:100AB00000000000000000000000000C0353006F65
:100AC0000066006C00650000001A034A006F0073A6
:100AD00000650066004100640061006D006300690C
:100AE000006B0000000403090409023B000201003E
:100AF000A0FA09040000010301010009211101000D
:100B000001224000070581030800010904010001DA
:100B100003000000092111010001223200070582B3
:100B200003200001120100020000000832FC8702CD
:100B300001000102000105010980A10185031901DD
:100B40002AB700150126B700950175108100C00570
:100B50000C0901A101850419012AA002150126A092
:100B600002950175108100C005010906A101050764
:100B700019E029E715002501950875018102950105
:100B8000750881010507190029FF150026FF00954A
:100B9000067508810005081901290595057501915B
:100BA00002950175039101C011241FBECFEFDAE059
:100BB000DEBFCDBF11E0A0E0B1E0E8EBF2E602C09D
:100BC00005900D92A63FB107D9F725E0A6EFB1E059
:100BD00001C01D92A53AB207E1F70E948F1C0C9448
:100BE0000D310C9400000E942219882311F083E03B
:100BF000089582E00895CF93DF930E9422198823FD
:100C000009F4E9C00E94021D0E948723C82F60E0FA
:100C100088EA91E00E94A21E60E38C2F0E94AE0839
:100C200060E00E94601E60E085EA91E00E94A21EE2
:100C300060E081EA91E00E94A21E60E08BEA91E010
:100C40000E94B41E0E943212C82F0E945E12D82F3A
:100C500060E08FE991E00E94A21E60E08CE991E0E3
:100C60000E94A21ECD2B8C2F827261E009F460E0FD
:100C700088E991E00E94A21E60E086E991E00E946E
:100C8000A21E60E083E991E00E94A21E61E08C2F29
:100C9000817109F460E08FE891E00E94A21E60E09B
:100CA0008DE891E00E94A21E60E08AE891E00E9437
:100CB000A21E61E08C2F847409F460E086E891E064
:100CC0000E94A21E60E084E891E00E94A21E60E003
:100CD00081E891E00E94A21EC87861E009F460E01A
:100CE0008DE791E00E94A21E41E062E28AE00E944C
:100CF000661E41E062E28BE00E94661E41E062E215
:100D00008CE00E94661E41E062E28DE00E94661E59
:100D100041E062E28EE00E94661E41E062E28FE006
:100D20000E94661E41E062E280E10E94661E41E090
:100D300062E281E10E94661E41E062E282E10E947D
:100D4000661E41E062E283E10E94661E41E062E2CB
:100D500084E10E94661E41E062E285E10E94661E17
:100D600041E062E286E10E94661E41E062E287E1C4
:100D70000E94661E41E062E288E10E94661E41E038
:100D800062E289E10E94661E41E062E28AE10E941D
:100D9000661E41E062E28BE10E94661E41E062E273
:100DA0008CE10E94661E41E062E28DE10E94661EB7
:100DB00041E062E28EE10E94661E41E062E28FE164
:100DC0000E94661E41E062E280E20E94661E80E0B0
:100DD000DF91CF9108950E94021D60E080E00E94A3
:100DE000631D60E270E08DEE91E00E94BA1E61E04A
:100DF00080E00E94631D60E270E08DEC91E00E9453
:100E0000BA1E62E080E00E94631D60E270E08DEA3D
:100E100091E00E94BA1E61E086E00E94631D80910D
:100E20002F02909130020E94CB088730F0F4E82F17
:100E3000F0E0E15FFE4C60E00C943D3082E791E031
:100E40000E94A21EC4CF8AE691E0FACF81E691E02B
:100E5000F7CF85E591E0F4CF87E491E0F1CF8CE323
:100E600091E0EECF8CE291E0EBCF60E084E291E0A4
:100E7000E7CF81E00895CF93C62F811107C08AE3A1
:100E8000611109C08BE30E94830A08C0813059F4C4
:100E9000662339F08AEA0E94830AC0E08C2FCF9142
:100EA000089589EAF0CFC1E0F9CF8730B8F46A300D
:100EB000A8F4463098F450E096E0699F400D511D2B
:100EC0001124FA019CE3899FE00DF11D1124EE0F1E
:100ED000FF1FE35FFD4F85919491089581E090E0BD
:100EE00008950E945507089581E008950E947407AF
:100EF000089581E008950E943907089508950E9499
:100F00007E070895A6E0B0E0E8E8F7E00C946530CD
:100F100049835A839E8330910A0289819A813111D3
:100F20001AC03E81332399F0222389F00E94C80E13
:100F3000182F682F89819A810E94A40E69817A8175
:100F4000812F0E9424162696E3E00C9481300E94A3
:100F5000B60E182FF3CF0E94C80E69817A81F1CFA7
:100F6000FC01262F408151816281738184819581AA
:100F70000E9482070895CF93DF93EC0161E00E9405
:100F8000B007BE010E947607DF91CF910895CF93FD
:100F9000DF93EC0160E00E94B007BE010E947F0772
:100FA000DF91CF91089508950E94AC0A0E94D30763
:100FB0002FEF84E39CE0215080409040E1F700C097
:100FC000000008950E94D4070E941C2908950E94E1
:100FD000D4070E942D2908950F931F93CF93DF9379
:100FE0008C0161E00E94B007EC01F8018581882343
:100FF00019F0CE010E94AA23B801CE010E947B07FE
:10100000811106C080E0DF91CF911F910F9108956B
:10101000B801CE010E9440238823A1F3B801CE017C
:101020000E945520882371F3B801CE010E94B2229C
:10103000882341F3F8018581882361F0C330FCE700
:10104000DF07E9F058F4C115ECE7DE07A9F0C1307D
:10105000DC47B9F0C8010E947907D5CFCB358CE7C2
:10106000D807A9F0CC35ECE7DE0771F0CA35DC47CC
:1010700089F70E943D13EECF0E94E207C3CF0E9482
:1010800045130E94E707BECF0E943313E3CF0E94AF
:101090004113E0CF0E9432280E940C090E94FF1FDA
:1010A00008950E9410090E94372808952F923F92B8
:1010B0004F925F926F927F928F929F92AF92BF9268
:1010C000CF92DF92EF92FF920F93CF93DF931C01A9
:1010D00029013A016B0181E0C81AD108E101CC0D68
:1010E000DD1D1882F12CE12C8AE0882E912CA12C98
:1010F000B12CEC14FD0498F0C101DF91CF910F9158
:10110000FF90EF90DF90CF90BF90AF909F908F9027
:101110007F906F905F904F903F902F900895C30104
:10112000B201A50194010E94FC2F605D603319F4A7
:10113000E114F10431F0411451046104710409F423
:10114000602F6A93C301B201A50194010E94FC2F94
:1011500029013A018FEFE81AF80ACBCF0F9390914B
:101160000001981304C09091FC01961789F08093B8
:1011700000016093FC01282F30E050E040E0062F92
:1011800064E070E088EF91E00E9456080F910895A6
:1011900088EF91E0FBCF292F332740E0211531055F
:1011A00011F0C90148E09C0164E0369527956A95E5
:1011B000E1F72115310511F04C5FC9019C0136950D
:1011C0002795369527952115310511F04E5FC901F8
:1011D00096958795892B09F04F5F842F0895089580
:1011E00081E008950895CF93DF93D82F0E94F008EF
:1011F000C82F882319F08D2F0E94F2088C2FDF91C1
:10120000CF9108950895CF93C82F0E94EF088C2F97
:101210000E94F308CF91089580E00E940309089589
:101220000E9452270E9403090895CF930E945227DB
:10123000C82F8091FD018C1779F0C093FD010E94A9
:10124000C1286093FE017093FF0180930002909388
:1012500001028C2F0E940309CF910895442319F0B5
:1012600080910C0208959C0143E0369527954A959C
:10127000E1F7620F731F8770992721E030E001C00A
:10128000220F8A95EAF7FB019081922381E009F40D
:1012900080E00895FC01E770FF2721E030E001C005
:1012A000220FEA95EAF733E0969587953A95E1F7AC
:1012B000FB01E80FF91F8081442319F0282B2083BC
:1012C000089520952823FBCF0F931F93CF93DF938F
:1012D0008C01DC0114968C911497813071F5119674
:1012E0008C9111978A3048F5CC91C63030F5D0E01A
:1012F000B6E08B9FC00DD11D1124F801458162E03D
:1013000072E0CE010E942E0940E0882389F0CE01D0
:10131000880F991FFC01E355FF4FE491D801119606
:10132000EC931197FC01E455FF4FE491EC9341E0FD
:1013300062E072E0CE010E944A09DF91CF911F91D5
:101340000F910895ADE0B0E0E8EAF9E00C94663062
:10135000488759876A877B878C879D87882349F0D0
:1013600080910D0290910E02019690930E0280934F
:101370000D028D8581110E945B128C85882321F0DE
:10138000CE0108960E9464091F8286E0FE0138960D
:10139000DE01119601900D928A95E1F78D81811100
:1013A0000DC029813A814B815C816D817E818F8165
:1013B0000E945F112D96E2E00C948230CE010196DE
:1013C0000E94BB078111EDCFF5CFCF93FC01C48103
:1013D000C13089F4808191810E94FA0E92959F70AC
:1013E000963049F4863F39F080910C028C27809327
:1013F0000C02C0930B02CF910895CF93C82F88237E
:10140000B9F08CEF8C0F813AA8F46C2F8091010118
:10141000909102010E94CD27882329F08C2F0E94F1
:10142000EC110E94A4128C2F0E94E4110E94A412BD
:10143000CF91089580E28C0F883048F4C77081E026
:1014400001C0880FCA95EAF70E943512EFCFEBE58D
:10145000EC0FE33040F4F0E0EB56FE4F808190E07B
:101460000E947127E5CFC85ACB3110F7EC2FF0E07E
:10147000EE0FFF1FE15AFE4F808191810E94962757
:10148000D7CF882339F19CEF980F913A28F40E9426
:10149000EC110E94A412089590E2980F983050F435
:1014A000877091E001C0990F8A95EAF7892F0E9411
:1014B0003B12EFCF9BE5980F933028F490E080E04B
:1014C0000E9471270895885A8B3120F490E080E0C3
:1014D0000E94962708951F93CF93DF93182FEB0157
:1014E0000E94FD09209739F4812F0E94410ADF9163
:1014F000CF911F9108958FE99FE00197F1F700C008
:1015000000002197EFCF6AE070E0893311F460E5C5
:1015100070E00E946B0A0895882321F00E94351222
:101520000E94A4120895882321F00E943B120E9479
:10153000A412089590E080E00E94712790E080E07E
:101540000E9496270E945B120E94A41208950E9496
:10155000F4110E949A0A08950E9445120E94A70A57
:10156000089592959F70963091F058F4925F9F7015
:10157000923058F4803F19F030F4883E30F481E026
:1015800008959A5FF4CF843FD1F380E00895883EB8
:10159000B0F3813FD1F7F3CFFC012481222339F04E
:1015A000808191810E94FA0E0E94B10A089580E024
:1015B0000895B0E0A0E0EFEDFAE00C945F306C012C
:1015C000C62F172FFC01D581068102950F700E944E
:1015D0002B12E82E882301F1DD2361F1812F807F1A
:1015E000803471F090E29C0F983020F1011104C01A
:1015F000912F907E9032F1F0803611F4C63FD1F0F9
:101600008091750382FF16C082E00E9407130E943A
:101610002B1291E0E82EE926B12EB2942FE0B222EF
:10162000FBE0FB1508F467C0EB2DF0E0EA5EFE4C32
:101630000C943D30E12CF0CF212F2F70F22E812F12
:10164000807F19F0F29490EFF922DD2399F0FF20CA
:1016500059F080E28C0F883010F0C11107C08F2D37
:101660000E9435120E94A4128C2F3DC08F2D0E9423
:101670004B12F8CF8C2F0E94410AFF20E1F180E24B
:101680008C0F883010F0C11104C08F2D0E943B12C6
:1016900003C08F2D0E9451120E94A4122CC0312F22
:1016A0003F70F32E812F807F803219F0F29480EF0B
:1016B000F822CC2351F0C13009F465C0DD2309F4D0
:1016C0006FC0002309F449C0CFCF8091750382FD1C
:1016D00040C0DD2359F0FF2029F08F2D0E943512E4
:1016E0000E94A41280E00E94FD0905C080E00E94D3
:1016F000410AF110CACF2B2D2850330B243031056D
:1017000020F40E9452270E9403098C2F912F0E94DF
:10171000B10A8111BEC110920E0210920D02D111B8
:10172000C0C1EE2089F00E94011280FD0DC0F601BB
:1017300015820E94FB110E94020EC6010E94830DB9
:101740000E94FB110E94120ECDB7DEB7E9E00C94A7
:101750007B30DD2361F0011104C08F2D0E948C0AC3
:10176000CACF013041F68F2D0E947512C4CF0111EE
:10177000C2CF8F2D0E94930A8F2D0E9481128F2D30
:101780000E946512B8CFDD2321F0063008F0B3CFF8
:10179000E4CF053008F0AFCF8F2D0E94930AABCF76
:1017A0000023D1F3C93309F00BC18FEF97EEE3E0CB
:1017B00081509040E040E1F700C000008C2F0E9473
:1017C000410A99CF812F86958695837069F0813083
:1017D00009F091CF8C2F912F9370D11102C080E02E
:1017E00090E00E94962787CF8C2F912F9370D11174
:1017F00002C080E090E00E9471277DCF812F83702E
:10180000A9F5D11178CF2C2F229526952770220F7C
:10181000220F4C2F4F7050E0022E02C0440F551F74
:101820000A94E2F790E080E0C4FF09C08FE090E006
:1018300002C0880F991F2A95E2F780959095212F75
:10184000269526952370842B952B223049F058F449
:10185000213019F00E94D20D4ECF0E94C90D4BCFFE
:101860000E94DB0D48CF0E94C60D45CF8695DD2333
:1018700011F0812F8170882309F43DCF2C2F229500
:1018800026952770220F220F4C2F4F7050E0022E0A
:1018900002C0440F551F0A94E2F790E080E0C4FFB5
:1018A00009C08FE090E002C0880F991F2A95E2F7E7
:1018B00080959095212F269526952370842B952B26
:1018C000223049F058F4213019F00E943D0E13CF18
:1018D0000E94340E10CF0E94460E0DCF0E94EA0DDA
:1018E0000ACF912F9F70F92EDD2329F0892F0E94B6
:1018F000020E8C2F33CF8C2F0E94930A8F2D0E94C3
:10190000120EF9CEC23F41F160F4C03FB9F0C13FC1
:1019100081F0DD2309F448C00111A6CE812F8F711B
:101920001FC0C33F01F1C43FA1F78091750382FD41
:1019300024C0812F8F71DD2311F312C0DD2341F00C
:10194000053008F0D8CE812F8F710E94240ED3CE9F
:10195000063008F0D0CEF7CF812F8F71D111CFCFC5
:101960000E94020EC8CEDD2329F0812F8F710E94C4
:10197000F60DC1CE0E94F10DBECEDD2359F0E12F50
:10198000EF71FE2E8E2F0E94020E63E08F2D0E94BB
:10199000E912B1CE81E00E940713023008F4ABCE09
:1019A00082E00E940713A7CE002379F0C93341F4E7
:1019B000FFEF27EE33E0F15020403040E1F7FCCE5E
:1019C0008FE39CE90197F1F7F7CE812F8F7197CFC5
:1019D000E0E1EC0FE73090F5F0E0EE5DFE4C0C94AA
:1019E0003D30DD2309F487CE80910C0291E08927F8
:1019F00080930C0280CED0930C027DCE81E08D27A7
:101A0000F7CF81E0DD23A1F376CED11174CE109211
:101A10000C0271CEDD2319F00E9405126CCE0E94DB
:101A2000111269CEDD2339F080910B028823E1F297
:101A300010920B0260CE0530B8F25DCE80910B02A1
:101A40000023D9F0882341F080910C0291E089278E
:101A500080930C0210920B02D11106CEEFE3FCE949
:101A60003197F1F700C000008C2F0E94410A87E0F7
:101A7000F60111928A95E9F73ECE882309F43BCE10
:101A8000D11139CE80910C0291E0892780930C020C
:101A9000CFCFDD2379F0002321F010920E021092B7
:101AA0000D02107F103619F4C63F09F43ACE0E9499
:101AB0001E1237CE002329F010920E0210920D0252
:101AC00030CE80910D0290910E020297A9F78C2FD3
:101AD0000E94830AF1CF0F931F93CF93DF93EC0102
:101AE000688179818D810E94050F8C010E944F0EC3
:101AF0000E94C50DB801CE010E94D90ADF91CF9195
:101B00001F910F910895CF93DF93EC018C8188236F
:101B100099F0CE010E94EC07811111C00E942B1296
:101B2000882351F08D81882339F08091750382FFDD
:101B300003C082E00E940713DF91CF910895CE0188
:101B40000E946B0DCE010E94C707F6CFA6E0B0E061
:101B5000ECEAFDE00C9466302696E2E00C948230CC
:101B6000A7E0B0E0E6EBFDE00C9466302796E2E0FB
:101B70000C94823008950E94BA0D08950E94BB0D06
:101B80009093320280933102089508950E94BE0D11
:101B900008952091310230913202822B932B0E94C2
:101BA000BE0D089520913102309132028223932399
:101BB0000E94BE0D08952091310230913202822799
:101BC00093270E94BE0D08950E94BA0D08950E94A9
:101BD000E40D08950E94E70D9093300280932F0248
:101BE000089590E080E00E94EA0D089521E030E041
:101BF000A90102C0440F551F8A95E2F7CA010E944D
:101C0000EA0D089521E030E002C0220F331F8A95CB
:101C1000E2F780912F0290913002822B932B0E9449
:101C2000EA0D089521E030E002C0220F331F8A95AB
:101C3000E2F72095309580912F0290913002822317
:101C400093230E94EA0D089521E030E002C0220FA4
:101C5000331F8A95E2F780912F02909130028227FC
:101C600093270E94EA0D089520912F0230913002AF
:101C7000822B932B0E94EA0D089520912F02309120
:101C80003002822393230E94EA0D089520912F02AF
:101C900030913002822793270E94EA0D089508951B
:101CA000262F277091E001C0990F2A95EAF723E0CB
:101CB000769567952A95E1F7660F771F660F771F70
:101CC000FA01E60FF71F50E040E0682F70E08191C5
:101CD000DF0111979B01042E02C0369527950A94C7
:101CE000E2F7217021952827292328272C934F5F7D
:101CF0005F4F4430510559F70895A82FA77023E08E
:101D0000969587952A95E1F7880F991F880F991F57
:101D1000FB01E80FF91F50E040E080E0219130E046
:101D20000A2E02C0369527950A94E2F721703327D0
:101D3000042E01C0220F0A94EAF7822B4F5F5F4FF7
:101D40004430510559F70895262F9A3070F48630A3
:101D500060F4682F70E086E0989F600D711D11247B
:101D60004FE052E0822F0E94500E0895292F9A30A2
:101D700068F4863058F490E06FE072E036E0239F1C
:101D8000800D911D11240E947D0E089580E008951C
:101D9000B0E0A0E0EEECFEE00C945F307C0100913E
:101DA0002F02109130028091310290913202082B63
:101DB000192BCFE0D0E0CC24C394D12CBC2EC6018B
:101DC0000C2E02C0880F991F0A94E2F780239123FA
:101DD000892B49F4219790F7B12C8B2DCDB7DEB725
:101DE000E9E00C947B30B7018C2F0E9430160197EC
:101DF00089F3F3CFCF93DF93EC010E94C80EBE01AD
:101E00000E943016DF91CF9108951F93CF93DF93F7
:101E1000EB0190910A02992339F0CB010E94FA0E4E
:101E2000DF91CF911F910895882369F0CB010E9423
:101E3000C80E182F682FCE010E94A40EBE01812F5C
:101E40000E943016EDCFCB010E94B60E182FF6CFB0
:101E50001F93CF93DF93C091330217E08091340238
:101E60008C1304C0DF91CF911F910895D0E01C9F87
:101E7000F0011D9FF00D1124EB5CFD4F208131819D
:101E8000428153816481758186810E94B00D2196C3
:101E9000C770E4CF20916D0230916E0240916F02C5
:101EA0005091700260917102709172028091730280
:101EB0000E94B00D0895CF93DF9380917302807FCD
:101EC00009F04DC080917202882309F448C0E09166
:101ED000330250913402C0916E02D0916D02609134
:101EE0006F027091700247E05E17C9F18E2F90E08B
:101EF000E49FF0011124EB5CFD4F2481222391F13A
:101F0000489FF001499FF00D1124DF01AB5CBD4FEC
:101F100011962C9111972C1325C02C912D1322C0B2
:101F200015962C91159721111DC012962D913C915B
:101F3000261B370B26393105A8F4809173028F7068
:101F4000806180937302E55CFD4F80818F708061BA
:101F500080838DE692E00E94830D0E94280FDF911E
:101F6000CF910895FC013196E770BECF482F2091A4
:101F700033029091340257E0291302C080E00895A3
:101F800030E0529FF001539FF00D1124EB5CFD4FA8
:101F90008181681306C08081481303C08581811147
:101FA000EECF2F5F3F4F2770E7CFA4E1B0E0EBED1E
:101FB000FFE00C945C308C0186E0F801DE011F9696
:101FC00001900D928A95E1F7F8018481E5809DE604
:101FD000A92E92E0B92E9091710291111FC0882311
:101FE000D1F0EE20A9F0C8010E94CC0AF82E882377
:101FF00079F087E0F801D50101900D928A95E1F71B
:10200000C5010E94E5090E945B0F0E944A0F5FC054
:10201000C8010E94830DFF24F39459C0C080D18071
:1020200082809380F090720220916F023091700252
:10203000A401421B530BFF2009F4F9C04639510596
:1020400008F0A7C0882309F442C090916E028091E5
:102050007302282F207F09F05CC09D1116C090915B
:102060006D02C91212C0E1104EC08F708061809362
:1020700073020E944A0F8DE692E00E94830D8091C8
:102080007302F8018683F12C22C0E1103CC06D2D53
:102090008C2D0E94B60F6D2D8C2D0E94B60FE82E50
:1020A0008111F1CFCF86D88A8F8598890E94FA0E48
:1020B000292F22952F70243078F49F702230A8F0B9
:1020C0009923B9F0F8019681907F99F4FE2C8F2D19
:1020D0006496ECE00C9478302A5F2F70223068F020
:1020E000C8010E94830DEF2CF1CF992311F08823B2
:1020F00069F3805E883050F3F3CF803F38F3815F1F
:10210000833070F7E3CF8091730281608093730214
:10211000BACF9D1113C090916D02C9120FC0E1108A
:102120000DC08683C8010E94830D87E0F801ADE6EB
:10213000B2E001900D928A95E1F767CFC8010E9445
:10214000CC0A882309F464CFEE2009F461CF809192
:102150007302803288F020916D0230916E023987CF
:1021600028879B868A86909171029C871D868E8720
:10217000CE0108960E94830D87E0F801ADE6B2E03B
:1021800001900D928A95E1F70E945B0F0E944A0F21
:1021900042CF90917302292F207FA1F4682D9A8A53
:1021A000898AA6017A899E2D0E94A60D8DE692E06D
:1021B0000E94830D87E0F50111928A95E9F70E944C
:1021C0004A0F61CF882309F482CF80916E028D116E
:1021D00010C080916D02C8120CC0E1100AC0968335
:1021E000C8010E94830D87E0F50111928A95E9F7F5
:1021F0006ECFC8010E94CC0A882309F409CFEE20D3
:1022000009F406CF80917302803208F4B5CF209193
:102210006D0230916E023A8329839C828B82909169
:1022200071029D831E828F83CE010196A3CF463912
:102230005105B8F5882309F4EECEFE2CEE2009F402
:10224000E7CE80916E028D111EC080916D02C81282
:102250001AC08091730280FD0DC0982F907F51F0BD
:102260008683903F09F45ECF982F907F905F8F70A8
:10227000892B57CF87E0F801ADE6B2E001900D92CF
:102280008A95E1F724CFC8010E94CC0A811174CF4E
:1022900080917302816080937302C8010E94830D54
:1022A00016CF682D9A8A898AA6017A899E2D0E9466
:1022B000A60D87E0F50111928A95E9F7A6CEAEE06A
:1022C000B0E0E5E6F1E10C946530288739874A876C
:1022D0005B876C877D878E87CE0108960E94D50F1D
:1022E0008823B1F06C85662341F0288539854A85BD
:1022F0005B857D858E850E94B00D17E0809133024D
:102300009091340289133DC02E96E3E00C94813005
:1023100087E0FE013896DE01119601900D928A95B4
:10232000E1F78C85882349F32091340230E0C9011C
:10233000019687709927409133024817190699F042
:1023400097E0929FD001939FB00D1124AB5CBD4FDD
:10235000FE01319601900D929A95E1F78093340237
:102360000E94280FCACF0E94AC0A10923402109229
:10237000330287E0EDE6F2E0DF011D928A95E9F78E
:10238000BCCF819FC00111248B5C9D4F0E94D50F53
:10239000882309F4B9CFE09133021E9FF001112484
:1023A000EB5CFD4F208131814281538164817581D5
:1023B00086810E94B00D8091330290E00196877073
:1023C0009927809333029ACF682F809101019091D1
:1023D00002010E9403280895682F809101019091C5
:1023E00002010E9406280895809101019091020146
:1023F0000E940928089580917D028695869586958C
:10240000089580917D028770089582E080937C0218
:1024100081E080930C02089510927C0210920C02CD
:10242000089580917C02823021F481E080937C02C7
:102430000895833011F40E940C12089580917C025B
:10244000823021F483E080937C020895813011F47E
:102450000E940C12089590917D02977081E009F41A
:1024600080E0089580918902089590918902892BD6
:102470008093890208958095909189029823909382
:10248000890208958093890208951092890208951F
:1024900080918802089590918802892B8093880208
:1024A00008958095909188029823909388020895CA
:1024B00080938802089510928802089580917F0287
:1024C000089508950E946112089590917E02292F27
:1024D000282331F08095892380937E020E94621226
:1024E000089508950E947112089590917F02292FF6
:1024F0002823281729F0982B90937F020E947212AC
:10250000089590917F02292F282331F08095892307
:1025100080937F020E94721208959091750392FF3A
:1025200008C090917F02981721F080937F020E944B
:102530007212089580917F02882329F010927F0201
:1025400080E00E9472120895CF93DF93E091010121
:10255000F0910201809189028083E0910101F09164
:102560000201808190918802892B808390917F0263
:10257000992381F0E0910101F09102018081892B82
:10258000808380910101909102010E94BB278111FB
:102590000E949A12C0910101D091020148E050E0DE
:1025A00064E772E0CE010E94A530892B59F088E0E3
:1025B000FE01A4E7B2E001900D928A95E1F7CE0109
:1025C0000E946627DF91CF91089508950E94E51239
:1025D00008959091750392FF11C098E0899F900132
:1025E0001124622B60937D020E94020E80917D0275
:1025F0008695869586950E94E61208950E94020EA1
:10260000089510927D0280E00E94E6120895909154
:102610007D028095892380937D02282F277069F49D
:10262000891759F09091750392FF07C0869586959A
:1026300086950E94120E0E940113089590917503D1
:1026400092FB222720F9281769F080FB92F99093DA
:10265000750380917403909175030E94661382E064
:102660000E94071308958091750382FB882780F9E3
:1026700091E089270E941E13089581E00E941E1395
:10268000089580E00E941E1308956FEF7FEF90E0A1
:1026900080E00E94F730089590E080E00E94C3300F
:1026A00021E0863E9E4F09F020E0822F089582E0CF
:1026B00090E00E94BB30089583E090E00E94BB3020
:1026C000089584E090E00E94C3300895BC0184E046
:1026D00090E00E94F7300895AB01BC018FE090E0DC
:1026E0000E94EB300895AB01BC0183E190E00E94B1
:1026F000EB30089560E070E0CB010E947313089501
:1027000060E070E0CB010E946C130E947A13089580
:10271000A8E0B0E0EEE8F3E10C94663066EE7EEF00
:1027200090E080E00E94F73060E082E090E00E945C
:10273000D93060E083E090E00E94D93010923202FC
:102740001092310260E074E184E090E00E94F73082
:1027500060E086E090E00E94D9306FEF87E090E083
:102760000E94D93040E050E0BA0188E090E00E9439
:10277000EB3060E084E290E00E94D93060E087E1D5
:1027800090E00E94D93060E08CE090E00E94D93067
:1027900060E08DE090E00E94D93019821A821B829D
:1027A0001C821D821E821F82188648E050E068E16C
:1027B00070E0CE0101960E94C93040E050E0BA01BD
:1027C00080E290E00E94EB300E9480132896E2E0C5
:1027D0000C9482300E9488130895682F8EE090E058
:1027E0000E94D9300895A6E0B0E0E9EFF3E10C943F
:1027F00064300E94B5288C0180918A0290918B02EE
:102800008017910781F019821A820E94B528682FDB
:1028100049815A81792F80E090E00E94A2091093AB
:102820008B0200938A022696E4E00C9480300E948A
:10283000401760939E0270939F028093A002909332
:10284000A10260939A0270939B0280939C029093E2
:102850009D0208950E94401760939E0270939F020C
:102860008093A0029093A1026093960270939702C6
:1028700080939802909399020895089508950E9474
:102880003E14089508950E944214089581E0089529
:102890008AE597E10E9448270E943D140E943F1458
:1028A00008950E9422190895089508950E945414CD
:1028B0000E94551408950E945D170E940209089510
:1028C0000E94AC280E941A170E943F190E944F21B3
:1028D0000E9483180E945B140E949C1C80E00E944E
:1028E000171D0E9449190E94431408950E9422193D
:1028F00081110E94BF230895A6E0B0E0E2E8F4E170
:102900000C945C300E944614C82E811111C00E94A4
:10291000F313C12C0E9476140E94D321882309F45A
:102920005DC00E942A140E941D200E94FA1E5AC0F7
:102930000E94A6188CE8A82E82E0B82E750110E03F
:10294000F70101917F01812F0E9483171F5F1A30C9
:1029500009F441C00817A1F38091A20281FD0E94F1
:1029600089170E945114982E10E088248394812F97
:102970000E948317082FF50181915F01081729F143
:10298000D02ED826F12CEE24E3948D2D8E21A9F0A3
:10299000992099F0F9821A830E94B5289C838B8331
:1029A0008D8291E0802F8E2109F490E049815A8137
:1029B0006B817C818D810E94A209F394EE0CF6E07C
:1029C000FF12E3CFF501319700831F5F1A3079F6CC
:1029D0000E9417149FCF0813BFCF99CF0E941D20CC
:1029E000C110A3CF0E9415092696ECE00C94783014
:1029F0000F931F93CF93DF930E943516EC01C115FF
:102A000082E5D80708F055C0C11590E5D90708F050
:102A100001C1C03ED10520F5CD3CD10508F092C0E2
:102A2000C83AD10578F4C53AD10508F083C0C13061
:102A3000D10511F1209701F1C430D105E8F4D0E0BF
:102A4000C0E01AC0C33CD105D0F7C85AD0E0CC0FC3
:102A5000DD1FC856DE4F0990D881C02DD4640CC04C
:102A6000C11580E2D80770F4C11591E0D90708F0CC
:102A70006BC0C83ED10518F7CE01DF91CF911F91F1
:102A80000F9108958E011127C11580E4D80708F031
:102A90006CC08D2F8F710E94D716C82FC8010E945D
:102AA0003516D0E0DC2FCC27CC27DF71C82BD92BF3
:102AB0002CC0C03892E5D907B0F4C03682E5D807FB
:102AC00008F085C0C03492E5D90708F06BC0C03269
:102AD00082E5D80708F452C0CF71D0E0DC2FCC27B4
:102AE000C16FD06AC9CFC03C92E5D90780F48C2F62
:102AF0008F71C03AD24508F47FC00E94D716C82F04
:102B0000D0E0DC2FCC27CC27DF71D062B5CFC03E20
:102B100082E5D80708F477C0CE0196558F3F91051E
:102B200011F008F08CCFCE0199270E943516EC01E8
:102B3000D066A2CFC55AD0E0C253DE4FC881D0E0E4
:102B4000D0649ACFD06598CF8D2F0E94D716182FBA
:102B5000CE0199270E943516C12FD0E0DC2FCC275B
:102B6000CC27DF71C82BD92B87CFC8010E9435161F
:102B7000CC27DF70C82BD92BD06A7ECF2C2F26957F
:102B8000269590E2299F900111248C2F8370C1E03B
:102B9000D0E002C0CC0FDD1F8A95E2F7C22BD32B09
:102BA000DD686ACF2C2F26952695277080E2289F16
:102BB000900111248C2F8370C1E0D0E002C0CC0FB3
:102BC000DD1F8A95E2F7C22BD32BDC6855CF2C2F63
:102BD00026952695277090E2299F900111248C2F2D
:102BE0008370C1E0D0E002C0CC0FDD1F8A95E2F710
:102BF000C22BD32BDA6840CFC82FD0E0DC2FCC27F4
:102C0000C46FD06A39CFDC2FCC27CC27DF71C06FDF
:102C1000D06A32CF8C2F8F710E94D71655E0D6958F
:102C2000C7955A95E1F7CF70D0E0DC2FCC27282F3D
:102C300030E084FF05C044E0220F331F4A95E1F7DE
:102C4000C22BD32BD06918CF462F7A3030F46630A0
:102C500020F4672F0E947107089590E080E00895A6
:102C60000E9424160E94F814089582389105B9F143
:102C7000B0F48133910509F47DC048F4893291059F
:102C800009F46DC08A32910509F47BC0089585333B
:102C9000910509F45FC08933910509F10895833ED8
:102CA0009105D9F138F4803E910529F1823E9105D4
:102CB00079F10895863E9105D9F1873E910509F491
:102CC0003EC0843E910541F52091750321FF24C04B
:102CD0008091740384FD19C087EE90E008952091DF
:102CE0007403237009F05AC02091750323FF14C0A8
:102CF00089E290E008952091740320FD38C030915E
:102D0000750330FF09C024FF43C090E080E00895C0
:102D10002091740322FDF7CF08952091740322FDC2
:102D20003AC03091750330FD39C024FFF5CFEDCFA7
:102D30002091740323FFF0CF24FDE7CFCDCF209166
:102D4000740323FD2EC03091750331FFEECF84EE66
:102D500090E008952091740325FFDECFC9CF209124
:102D6000740325FD21C02091750323FFD5CF89E38E
:102D700090E0D2CF2091740326FFCECF8AE290E07C
:102D800008952091740326FFC7CF81E390E0089552
:102D900083EE90E0089582EE90E0089580EE90E05A
:102DA000089586EE90E0089585E390E0089590916F
:102DB000740392FF06C0282F28712830F9F4877F0A
:102DC000846093FF06C0282F28712831F1F4877E94
:102DD00084612091750320FF06C0382F3871383088
:102DE000D9F4877F816021FF06C0282F2871283100
:102DF000D1F4877E816194FD877E0895282F247108
:102E00002430F9F68B7F8860DCCF282F24712431A1
:102E100001F78B7E8861DDCF382F3171313019F7A2
:102E20008E7F8860E0CF282F2171213121F78E7E9F
:102E30008861E1CF109270031092710310927203B7
:102E4000109273030895CF92DF92EF92FF926B017D
:102E50007C010E94221981110EC00E94C128C61A4D
:102E6000D70AE80AF90AC0927003D0927103E0927F
:102E70007203F0927303FF90EF90DF90CF9008956C
:102E80000F931F930E942219882329F00E94C128C2
:102E90001F910F9108950E94C12800917003109115
:102EA00071032091720330917303600F711F821FB1
:102EB000931FEECF80E0089508950E944C13811176
:102EC00002C00E94EA130E9457138093A2020E943C
:102ED000611390937503809374030E945C170E94A2
:102EE0005C1390E00E94C60D80912F0290913002F9
:102EF0000E94E70D089508950E947B170895089594
:102F00000E947F170895E82FF0E0EF57FC4F808173
:102F10000895089580EA8A95F1F7089500C008950C
:102F20000E948A17089508950E9493170895A5E0B6
:102F3000B0E0EDE9F7E10C9462300E942219F82E1E
:102F400060918B03882309F440C085E0E82E8E0150
:102F50000F5F1F4FF8018E2D11928A95E9F7862F8A
:102F600090E0B8018F579C4F0E9457198823B9F001
:102F70008091760390E045E050E0B8018F579C4F78
:102F80000E94A53021E02093A302892B91F4F12C1B
:102F90000E9480178F2D2596E6E00C947E3080915C
:102FA000A3028823A1F3F8011192EA94E9F71092A1
:102FB000A302A0917603B0E0AF57BC4F85E0F801C3
:102FC00001900D928A95E1F7E3CF70E06F577C4F47
:102FD0008091760390E08F579C4F0E94DE190E94EB
:102FE0009417D8CFF894E82FE295EF70F0E031A174
:102FF000282F2F7081E090E001C0880F2A95EAF712
:10300000982F9095932391A392A1892B82A37894D2
:103010000895CF93DF93C7EDD1E089918F3F11F0F1
:103020000E94F21781E0CC3DD807B9F7C1EDD1E09D
:1030300089918F3F11F00E94F21781E0C73DD807B8
:10304000B9F7DF91CF910895B0E0A0E0EAE2F8E1AE
:103050000C946030EC01D62E062F10E0C801895286
:103060009E4F7C01FC0180818F3F09F445C0F8949C
:10307000E82FE295EF70F0E091A18F7021E030E051
:1030800001C0220F8A95EAF7892F822B81A382A1A2
:103090002095282322A378940E948E17E1EDF1E079
:1030A00047ED51E031E0C12C21912F3F51F1A22F8A
:1030B000A295AF70B0E090968C9190E02F7002C016
:1030C000959587952A95E2F780FD1BC0832FC82A26
:1030D000330F4E175F0741F7F70180818F3F11F0E3
:1030E0000E94F21761E0C11001C060E08D2D0E94C6
:1030F0009017C00FD11FC882CDB7DEB7E8E00C949F
:103100007C3080E0E4CF809103018091030195E061
:10311000811190E090938B0385E0891B8093760367
:103120000E9409188AE0E1E8F3E0DF01982F1D9280
:103130009A95E9F7E7E7F3E0DF011D928A95E9F751
:1031400085E00E94E4180E947C170895AAE0B0E090
:10315000ECEAF8E10C9463308E010F5F1F4F8AE0B8
:10316000F80111928A95E9F7F12C6F2DC8010E94A0
:103170002418F394F5E0FF12F8CF4AE050E0B801CC
:1031800087E793E00E94A53021E0009709F420E052
:10319000892B41F08AE0F801A7E7B3E001900D9296
:1031A0008A95E1F760918B0370E06F577C4F45E0A3
:1031B00087E793E00E94E518182F0E949717812B4C
:1031C0002A96E5E00C947F300895CF92DF92EF923B
:1031D000FF920F931F93CF936C017B01042F222347
:1031E00049F081E08093A6020E94B5289093A50241
:1031F0008093A402C091A602C1110AC0C0E08C2F26
:10320000CF911F910F91FF90EF90DF90CF90089595
:103210008091A4029091A5020E94CD28059770F399
:1032200010E0A801B601C7010E94A530892B41F02A
:10323000A801B601C7010E94B2301092A602DFCFEA
:10324000C0E0FBCF8091A902811107C00E94BB2F73
:10325000882351F081E08093A90281E09091A90236
:10326000913009F080E0089582E08093A9020E94E5
:10327000B62FF3CF0E94221991E0892708950E946A
:103280003A19809303010E94221981110E948D191D
:1032900008950E942219811102C00E949019089578
:1032A00081E09091AA029A3008F080E008950F938F
:1032B0001F93CF93DF93EC018B018091AA028A3098
:1032C000B8F4B801CE010E94DB19C82F811122C0C9
:1032D0008091AA028F3FB9F40E94B5289093A8026A
:1032E0008093A7028C2FDF91CF911F910F910895AA
:1032F0008091A7029091A8020E94CD28843F91401E
:1033000000F7C0E0EFCF8F5F8093AA028A3020F7EA
:10331000C1E0E8CF1092AA02E5CF0E94E625089509
:103320000E94E9250895B0E0A0E0E9E9F9E10C94F4
:1033300061307901C82F880FDD0B41155105A9F0C7
:10334000FE0193E0EE0FFF1F9A95E1F7EC5FFE4F51
:103350008181928185559D4F208130E0421753072E
:1033600008F49A01A9010E94B230CE010E94D2262F
:10337000D82E8823D1F001151105B9F083E0CC0FC8
:10338000DD1F8A95E1F7FE01EC5FFE4F438150E0BF
:103390000417150708F4A801CC5FDE4F6C817D810E
:1033A00065557D4FC7010E94B2308D2DCDB7DEB778
:1033B000E7E00C947D300E94E51B08950E941E1CDE
:1033C0000895A3E0B0E0E7EEF9E10C94603060917D
:1033D000DC027091DD028091DE029091DF020E949A
:1033E000DC286B017C0111E084E6C816D104E104FD
:1033F000F10408F410E00E943212898394E6C916A1
:10340000D104E104F10438F4E091DC01F091DD0134
:103410009089891311E00E9448128A83111109C012
:10342000E091DC01F091DD0111E09189981301C078
:1034300010E00E945E128B83111108C0E091DC0144
:10344000F091DD01928911E08917C9F010E000E0E8
:1034500030E020E043E050E0BE016F5F7F4F87E047
:103460000E949319182F882351F00E94C12860935D
:10347000DC027093DD028093DE029093DF02812FE5
:103480002396E8E00C947C30A4E0B0E0EAE4FAE1B2
:103490000C9464306091D0027091D1028091D2027C
:1034A0009091D3020E94DC2811E0643671058105F9
:1034B000910518F10E9440176E5F7F4F8F4F9F4F0D
:1034C00069837A838B839C8310E000E030E020E006
:1034D00044E050E0BE016F5F7F4F84E00E9493198B
:1034E000182F882351F00E94C1286093D002709356
:1034F000D1028093D2029093D302812F2496E4E0EC
:103500000C948030B0E0A0E0E8E8FAE10C945E3082
:10351000C82F7B01D42F69015801FB0160817181A3
:10352000828193810E94DC286436710581059105B2
:1035300010F4DD23C9F010E000E030E020E0A50148
:10354000B6018C2F0E949319C82F882339F00E944E
:10355000C128F70160837183828393838C2FCDB759
:10356000DEB7EAE00C947A30C1E0F8CFA1E0B0E039
:10357000ECEBFAE10C9464300E9487238983E0919C
:10358000DC01F091DD0141E09389981301C040E036
:1035900001E010E09E012F5F3F4F60EE72E088E097
:1035A0000E94821A2196E4E00C9480300F931F93BE
:1035B000CF93DF93C091DC01D091DD0141E02C85F8
:1035C0003D8580912F02909130022817390709F428
:1035D00040E002E010E02FE232E068ED72E085E0CA
:1035E0000E94821A8823A1F041E02E853F858091B8
:1035F0003102909132022817390709F440E002E0C5
:1036000010E021E332E064ED72E086E00E94821A6D
:10361000DF91CF911F910F910895A1E0B0E0E3E118
:10362000FBE10C945B30762E4A015901680101E000
:1036300010E09E012F5F3F4F50E040E070E060E0FF
:103640000E949319182F882399F1F40160817181E8
:10365000828193810E94DC28643671058105910581
:1036600000F18701950150E040E070E060E0872DB7
:103670000E949319B82EB701C6010E949D1C11E04B
:103680009981981310E01B2139F00E94C128F401A0
:103690006083718382839383812F2196EDE00C9464
:1036A0007730B701C6010E949D1C99818913D9CF3B
:1036B000A701B601C5010E94B230EECFA1E0B0E093
:1036C000E4E6FBE10C9462300091DC011091DD0135
:1036D000095F1F4FEE24E394F12C9E012F5F3F4FB3
:1036E0004CEC52E063E082E00E940D1B182F88230F
:1036F00021F0CE0101960E946E22812F2196E6E0F4
:103700000C947E30A5E0B0E0E8E8FBE10C9460307A
:103710006B010091DC011091DD010F5F1F4F85E00F
:10372000E82EF12C9E012F5F3F4F48EC52E061E004
:1037300080E00E940D1B882349F095E0FE01319640
:10374000A3ECB2E001900D929A95E1F795E0E3ECDD
:10375000F2E0D60101900D929A95E1F72596E8E006
:103760000C947C30B0E0A0E0E8EBFBE10C945E3020
:103770007C015B016A010E94501901E010E088237E
:1037800011F00AE010E0C1E0D0E0B501C701F60198
:103790000995811104C021960C171D072CF4CDB793
:1037A000DEB7EAE00C947A30CC9F9001CD9F300DCB
:1037B000300D112490E080E045E34A95F1F70000D8
:1037C000019682179307C1F7E0CF0F931F93CF9312
:1037D000DF93EC018B0142E85BE10E94B21B811197
:1037E00006C080E0DF91CF911F910F9108954EE5C3
:1037F0005BE1B801CE010E94B21B882391F344E43F
:103800005AE1B801CE010E94B21B882351F346ED64
:103810005AE1B801CE010E94B21B882311F341EE98
:1038200059E1B801CE010E94B21B8823D1F246EBC8
:103830005AE1B801CE010E94B21BD4CFA1E0B0E0A2
:10384000E4E2FCE10C9460300091DC011091DD01B8
:10385000C801019625E0FB01DC0101900D922A953B
:10386000E1F765E070E00E949D1CF8018083CE01C5
:1038700001960E9463228981F801878361E070E0EC
:10388000CE0101960E949D1CF8018683608571859A
:1038900082859385C090BF02D090C002E090C102A3
:1038A000F090C2026C157D058E059F0551F0609366
:1038B000BF027093C0028093C1029093C2020E9423
:1038C0002317F801848595859093300280932F0209
:1038D000868597859093320280933102E188F28841
:1038E00080890E9442128E2D0E9458128F2D0E94B4
:1038F0008D12F80183890E9484232196E8E00C94BC
:103900007C300E948C2A0E9460140E94992A08959B
:103910000E949E2A0E947C140E94B82A08950E9448
:103920004E280E94722A0E9448140E94811C0E9404
:10393000881C0E945614FBCF0895FC01680F791F64
:103940008FEF91E36E177F0709F408952191822785
:1039500028E030E087FF06C0880F89272150310911
:10396000C9F7F0CF880FFACFAB0124E630E0BC01F5
:1039700088E70E94402521E0892B09F020E0822F72
:103980000895B0E0A0E0E7ECFCE10C9460306C013D
:103990007B0164E670E088E70E94A6248C01E601C2
:1039A000EC0CFD1CCE15DF0561F40E94882581E03A
:1039B0000115110509F080E0CDB7DEB7E8E00C9401
:1039C0007C3017FDF2CFFE01849164E670E00E9426
:1039D00012258C012196E6CF0F931F939B0104E6DD
:1039E00010E0AC0160E488E70E94612521E0892BAA
:1039F00009F020E0822F1F910F9108950E94A024CA
:103A000008950895ECE8F3E080E092E0DF019C0186
:103A10001D9221503040E1F7F0939305E093920519
:103A20008FEF9FEF9093100380930F030895CF9330
:103A30000E94011D0E94F30580930B0380FD11C0BD
:103A400080E880930A030E94FE1C6BE070E080E730
:103A500095E00E94C11C811106C0C0E08C2FCF915F
:103A6000089580E2EECF80910B0365E070E081FD68
:103A700027C08BE695E00E94C11C882371F36DE09E
:103A800070E089E595E00E94C11CC82F882329F3C6
:103A90000E94C128605A75418F4F9F4F60938E05D9
:103AA00070938F0580939005909391050E94021D5D
:103AB00081E080930E0380930D0310920C03CECF10
:103AC00086E695E0D8CF20910A0336E0839FC001B7
:103AD0001124629F800D911D1124811522E092070F
:103AE00014F090E080E084579C4F9093930580936E
:103AF0009205089520919205309193052658334000
:103B000040910A03642F70E0C9010E94D42F481B22
:103B1000463010F4240F311D211582E0380710F0D3
:103B200030E020E024573C4F3093930520939205DA
:103B300008951F93CF93DF93162F8A3039F481E0D5
:103B40000E94121EDF91CF911F9108958D3011F4C4
:103B500080E0F6CFC0919205D091930596E0FE01EA
:103B6000A4EEB2E001900D929A95E1F7803EB8F094
:103B700086E0FE0111928A95E9F711111CC0C091EF
:103B80009205D091930546E050E0BE0184EE92E0AC
:103B90000E94A530892BE9F40E947A1DD3CFF6E06C
:103BA0008F9FB001112465587A4F46E050E0CE0156
:103BB0000E949C30E2CFE0919205F09193059F0125
:103BC0002A5F3F4F2E173F07D1F280818095819366
:103BD000F9CFCC58D340CE0125E0969587952A950C
:103BE000E1F721E030E0A90102C0440F551F8A959A
:103BF000E2F7CA0140910F0350911003842B952BDB
:103C0000259645E0D695C7954A95E1F702C0220F63
:103C1000331FCA95E2F7822B932B90931003809366
:103C20000F03BACFCF93382FE0919205F09193050F
:103C3000EC58F34020910A03622F70E0CF010E94FC
:103C4000D42F281B822F332369F066E00E94C82FEF
:103C5000C82FC15010F4CF91089560E080E20E9417
:103C6000991DF7CF9F01280F311D2115324018F003
:103C700080E0F0E0E0E08E0F9F2F911D84579C4F75
:103C80009093930580939205E6CFFF920F931F9335
:103C9000CF93DF93EC01F62EFC0101900020E9F7B1
:103CA0008F0101501109C017D10728F0CDB7DEB739
:103CB000E5E00C947F306F2D89910E94991DF3CF20
:103CC0000E94451E81E00E94121E089530910A0351
:103CD0008317A0F590E0262F269526952695239FFD
:103CE000800D911D1124811522E092073CF5FC0105
:103CF000E457FC4F5081677021E030E001C0220F93
:103D00006A95EAF74423D9F0252B2517B9F02083CB
:103D100025E0969587952A95E1F721E030E002C0ED
:103D2000220F331F8A95E2F780910F0390911003C1
:103D3000822B932B9093100380930F03089520956B
:103D40002523E3CF1F93CF93DF93EC01162FFE01C2
:103D50008491811104C0DF91CF911F910895612F4B
:103D60000E94991D2196F3CF0E94A21E81E00E941D
:103D7000121E0895CF93DF93209192053091930501
:103D80002C583340A901460F571F4130524020F0B4
:103D900060E072E0621B730B40910F0350911003BF
:103DA000FC01C901620F731FC1E0D0E086179707BD
:103DB00038F05093100340930F03DF91CF91089593
:103DC0002491DC01A457BC4F3C91321781F02C9315
:103DD0009C01A5E036952795AA95E1F7DE0102C082
:103DE000AA0FBB1F2A95E2F79D014A2B532B019680
:103DF0003196DCCF80910E03811103C080910D03B9
:103E000008950E94C128605A75418F4F9F4F60935B
:103E10008E0570938F058093900590939105809106
:103E20000D038111EBCF62E070E087E595E00E9421
:103E3000C11C882319F381E080930D03DFCFB0E02C
:103E4000A0E0E5E2FFE10C945A3080910F039091DD
:103E50001003892B09F4B6C080910E03882309F45E
:103E6000B1C080910C038111ADC00E94FA1E209157
:103E70000F03309110032115310509F4A3C090E020
:103E800041E050E0092F10E0EA01092E02C0CC0FFA
:103E9000DD1F0A94E2F7BE0162237323672B11F43E
:103EA0009F5FF0CF80910B0380FF91C0990F990F16
:103EB000990F90934E0110925101995F90934F0189
:103EC00083E08093520167E070E08CE491E00E940F
:103ED000B41C882309F476C0980145E0220F331FF3
:103EE0004A95E1F780910B0380FF83C0EAEEF2E090
:103EF00080E2DF011D928A95E9F702EE11E08EED76
:103F0000E82E81E0F82E97E0992E88248394D8013A
:103F1000ED918D01D7016D917D01620F732F711DA0
:103F200064577C4FF0E0E651FD4F50E040E0792CC3
:103F3000741AA82C042E01C0AA0C0A94EAF76B018B
:103F400080E0D6019D916D019A21A72DA81BA77035
:103F5000BA2E0A2E000CBB0B692E01C0660CBA9457
:103F6000EAF7B62CB195A195B109A770BB2701C09E
:103F70009695AA95EAF7A62DA92B90819A2B908366
:103F80008F5F8830F1F64F5F5F4F319648305105B3
:103F900071F681E0063E180709F0B9CF60E270E0E3
:103FA0008AEE92E00E94EC1C882361F0C095D095C7
:103FB00080910F0390911003C823D923D09310034D
:103FC000C0930F03CDB7DEB7EEE00C947630929538
:103FD000990F907690934E019801369527953695D6
:103FE000279520935101915E90934F0120935201A8
:103FF0006ACF60E270E0C90184579C4FD3CF8091B3
:104000000D0390910E03911103C091E0892708954B
:10401000882369F062E070E085E595E00E94C11CAC
:10402000811103C080910D03089510920D038091BA
:104030000D03EBCF0E94FB0508950F931F93809112
:104040000E03882379F180918C0590918D050E9453
:10405000CD28C29760F00E94B52890938D0580937B
:104060008C0560E080E00E94631D0E941A200E947F
:104070001F1F80910D038823A9F00E94C128009181
:104080008E0510918F052091900530919105601B50
:10409000710B820B930B6F3F7F4F8F4F9F4710F435
:1040A0000E94FF1F1F910F910895CF93DF93EC01A2
:1040B000FB018581882309F4D2C09E013057233249
:1040C000310508F0B2C00E9461139093750380938C
:1040D0007403FE01E150F047E232F10520F4E75DA0
:1040E000FE4C0C943D308091740381608093740386
:1040F00093C0809175038860809375038DC0809113
:1041000074038260F3CF809174038460EFCF809159
:1041100074038860EBCF809175038160EDCF80914F
:1041200075038260E9CF809174038061DFCF809155
:1041300074038062DBCF809174038064D7CF0E94C8
:10414000AC0A809174038068D1CF809174038C6035
:10415000CDCF809175038360CFCF809174038E7F24
:10416000C5CF80917503877FC7CF809174038D7F02
:10417000BDCF809174038B7FB9CF80917403877F0B
:10418000B5CF809175038E7FB7CF809175038D7FFA
:10419000B3CF809174038F7EA9CF809174038F7DFC
:1041A000A5CF809174038F7BA1CF0E94AC0A809130
:1041B00074038F779BCF80917403837F97CF809117
:1041C00075038C7F99CF8091740382FB992790F9B6
:1041D00021E0922790FB82F990FB83F987CF8091B1
:1041E0007503982F909591708E7F892B90FB81F9A4
:1041F00083CF90917403892F8F7B96FF806476CF55
:104200000E94AC0A90917403892F97FB87F980581C
:104210006DCF81E00E94ED1380917403909175033E
:104220000E9466130E94AC0A80E0DF91CF9108954E
:1042300080E0F0CF90917403892F8F7E94FF80618E
:1042400055CF90917403892F8E7F90FF81604ECF60
:1042500090917503892F877F93FF88604DCF81E010
:10426000E4CF8FE891E00197F1F700C000000895D6
:10427000CF93DF93D62F0E943B07C82F882341F0AE
:104280006AE070E089EAD11101C08AEA0E946B0AF3
:104290008C2FDF91CF9108950E94221908950F93DA
:1042A0001F93CF93DF939091030181E09827909320
:1042B0001503282F291B2093140390910301809349
:1042C00016039091030180931303809103018111E0
:1042D00006C084EF8093540185EF809353012091B1
:1042E0005401E22FE295EF70F0E061A12F7081E0C0
:1042F00090E0AC0101C0440F2A95EAF7342F3095C5
:10430000362331A322A1242B22A320915301E22F93
:10431000E295EF70F0E031A12F7001C0880F2A956F
:10432000EAF7982F9095932391A392A1892B82A3CA
:104330000E9431216091160349E153E0C4E5D1E0C8
:1043400003E511E0FA0126C02991822F82958F7032
:1043500090E0DC0190968C9190E02F7002C09595D2
:1043600087952A95E2F78170D8019D918D01292FBB
:1043700022952F7030E0D90190962C9130E09F70FB
:1043800002C0359527959A95E2F790E020FD92E0DE
:10439000892B81938E2F841B8617B0F2DF91CF91EA
:1043A0001F910F910895B0E0A0E0E9EDF1E20C94C7
:1043B000603010E000E082E0C82ED12C809116031E
:1043C000181730F0802FCDB7DEB7E8E00C947C30C2
:1043D000C12FD0E0FE01EC5AFE4F8081E82FE2951C
:1043E000EF70F0E0E0A1F0E08F7002C0F595E79586
:1043F0008A95E2F7E170DE01AD5ABE4F4C91A42FD1
:10440000A295AF70B0E090968C9190E04F7002C092
:10441000959587954A95E2F780FD4DC080E08E2BFB
:10442000DE01A75EBC4FEC919E2F9370981709F4A4
:1044300040C0EE0FEE0FE82BEC93E0901503E10E79
:10444000EF70F0E0EA51FE4FC95EDC4F8081988149
:10445000890F8883F12C823084F0EE2DF0E0EF5E3E
:10446000FC4F80818F5F80830E944C21F82E88232F
:1044700021F160E08E2D0E94382188818F3F84F4E5
:10448000EE2DF0E0EF5EFC4F8081815080830E9432
:104490004C21F82E8823A1F061E08E2D0E94382156
:1044A0008881082E000C990BB6010E94E82F8883A2
:1044B0000F291F5F83CF82E0B2CFFF24F394DDCFBB
:1044C000FF24F394EDCF4091160350E06091150363
:1044D00070E06F5E7C4F0E94B2300895B0E0A0E0C3
:1044E000E4E7F2E20C9460306C01D0E080E090915F
:1044F0001303D91740F081110E942A14CDB7DEB7FB
:10450000E8E00C947C30F0901403FD0E0F2D10E0C9
:104510000F5E1C4FF601ED0FF11DC081F801908177
:10452000C91BEC2E1E1444F09C2FC7FD90E0C91B44
:10453000C1110DC0DF5FDBCFEA94F80180818F5F8E
:10454000808360E08F2D0E94382181E0EBCFCF5F28
:10455000F80180818150808361E08F2D0E94382195
:1045600081E0E6CFCF93DF93EB0186319C4711F5D5
:104570000E9432129D81992399F08A7A91E009F480
:1045800090E090931B03811109C089E20E94E4111D
:104590000E94A41280E0DF91CF91089585E3F6CFC9
:1045A00080911B03811104C089E20E94EC11F0CFBD
:1045B00085E3FBCF81E0EFCF0F931F93CF93DF9382
:1045C000C42FD22FFC0185818823C9F040931E039C
:1045D0000E94B52890931D0380931C0380E28C0FEA
:1045E000883040F4C77081E001C0880FCA95EAF7AF
:1045F0000E948C0ADF91CF911F910F910895109125
:104600001E03141332C080911C0390911D030E945D
:10461000CD288639910548F5C0E2CD0F1D17B9F0B8
:1046200080E2810F883040F4177081E001C0880F6C
:104630001A95EAF70E94930AC83048F481E09D2F4A
:10464000977001C0880F9A95EAF70E948C0A802F14
:104650000E94830AC83070F6D77081E001C0880FCD
:10466000DA95EAF70E94930AC5CF80E28C0F883072
:1046700008F6C77081E001C0880FCA95EAF7F2CF4B
:104680000F93DB0188519C4787309105A0F5FC0111
:10469000E55BFE4C0C943D3006E221EE41EE6AE112
:1046A0007CE7CD010E94DC2280E00F91089507E2B3
:1046B00025EE45EE6BE17CE7F4CF06E221EE40EE1D
:1046C00068E17CE7EECF07E225EE44EE69E17CE7A6
:1046D000E8CF06E221EE42EE6CE17CE7E2CF07E2B2
:1046E00025EE46EE6DE17CE7DCCF08E221E045EE09
:1046F0006EE17CE7D6CF15968C91882319F0109245
:104700001E03D3CF81E0D1CF80935C0308958091C5
:104710005C0308959C013A9521153F4478F499274C
:104720009C01245031092432310578F02752310997
:1047300081E02E30310550F080E008958F3F9105E3
:1047400079F370F390E080E0EBCF81E008950E9470
:104750008A2308950E94A723882381F0E0912503EE
:10476000F0E0EE0FFF1FEA5DFC4F808191818F3FEB
:104770002FE7920719F001969183808308958F9215
:104780009F92AF92BF92CF92DF92EF92FF92CF9320
:10479000C0902603D09027030D2C000CEE08FF08D4
:1047A0002091550130E0E6E2F3E081E090E03296BE
:1047B000281739070CF0A7C060915803709159036E
:1047C00080915A0390915B030E94DC284B015C01AD
:1047D000C091550189EC88169104A104B10414F12B
:1047E0008091250390E0019669E170E00E94E82F36
:1047F00080932503880F991FFC01EA5DFC4F11820D
:1048000010828C2FC83108F087E18F5F80935501AB
:104810000E94C128609358037093590380935A03F0
:1048200090935B0382E0C816D104E104F1040CF418
:1048300076C0A0E6BAEEA70196010E9443306B0154
:104840007C0188ECC89F90011124032E000C440BBE
:10485000550B280D391D4A1D5B1DA5E0B0E00E94D7
:1048600043309B01AC01C701B6010E94FC2F6901D6
:104870007A0181EFC816D104E104F1042CF080EF35
:10488000C82ED12CE12CF12C6091210370912203D0
:1048900080912303909124030E94DC284B015C014A
:1048A00085E688169104A104B10484F00E94C12811
:1048B0006093210370932203809323039093240336
:1048C00080915C0380932003C0921F03C09120035A
:1048D000A0911F03AC1BBB0BA50194010E944E309D
:1048E00024E630E040E050E00E941E30C20FC0934A
:1048F0005C03CF91FF90EF90DF90CF90BF90AF908F
:104900009F908F90089540815181052E000C660B79
:10491000770BC40ED51EE61EF71E019648CFCA942B
:10492000CD28CE28CF2841F01092250310925501B2
:104930001092270310922603C12CD12C7601A4CF0C
:104940001092B9008CE08093B8000895B0E0A0E028
:10495000ECEAF4E20C945D30B82EEB010E94B5282D
:104960006C01EE24E394F12CC431D10560F025E014
:10497000E22EF12CCF3FDC0731F0CE0164E170E094
:104980000E94D42F7B0184EAA82E94E8992E1092DD
:10499000BC00A092BC000E94B5288C018091BC0094
:1049A00087FF0DC08091B900887F8830F9F0809131
:1049B000B900887F8031D1F00FEF1FEF08C0C80128
:1049C0000E94CD28E816F90648F70EEF1FEFCF3FFB
:1049D000DC07E9F2C6010E94CD28C817D907B8F64E
:1049E000C801CDB7DEB7EBE00C947930B092BB00D4
:1049F0009092BC000E94B5288C018091BC0087FF7A
:104A00000AC08091B900887F883111F08034A1F606
:104A100010E000E0E5CFC8010E94CD28E816F906B5
:104A200060F7D3CF0F931F93CF93DF93EB01809366
:104A3000BB0084E88093BC000E94B5288C01809163
:104A4000BC0087FF11C02091B900287F81E090E071
:104A5000283211F490E080E0919581959109DF91E1
:104A6000CF911F910F910895CF3FDC0741F3C8010B
:104A70000E94CD28C817D90710F78EEF9FEFEFCF10
:104A8000B0E0A0E0E6E4F5E20C9460306B018A014E
:104A90007901B9010E94A624E6010C0D1D1DC01765
:104AA000D10711F097FF08C024E92093BC00CDB7CF
:104AB000DEB7E8E00C947C30B70189910E941225A2
:104AC000EECFB0E0A0E0E7E6F5E20C946030C62F50
:104AD0006A017901B8010E94A62497FD0CC0B801B3
:104AE0008C2F0E941225E601EC0CFD1CCE15DF0573
:104AF00011F097FF08C024E92093BC00CDB7DEB7C2
:104B0000E8E00C947C30B80189910E941225EECF28
:104B100084E98093BC0008958EE14A9B02C08150D5
:104B2000E1F74A9BFECF08955A9880E28A95F1F703
:104B30005A9A0895FC013BE03A95F1F798E020E09D
:104B400080E031E040E14A95F1F7880F4A9B02C0CE
:104B50008160232742E04A95F1F7000040E14A9541
:104B6000F1F7915079F790E19A95F1F799B132E028
:104B70003A95F1F7000040E14A95F1F792FB992749
:104B800090F992272081920F90830895A1E0B0E0E0
:104B9000ECECF5E20C94623019828C017C01E60E9B
:104BA000F11C0E151F0541F481E09981911180E0FF
:104BB0002196E6E00C947E300E948C25CE01019671
:104BC0000E949A25F80181938F01EBCF529A5A9A4D
:104BD000089552985A9AEA9AE9E6F0E080818F7C2B
:104BE000808308956150770B91E001C0990F6A9519
:104BF000EAF720E031E0911108C0222391F05A9A9F
:104C000080E28A95F1F75A980895492F482339F0A0
:104C10005A9A232740E24A95F1F79695ECCF5A9895
:104C2000F9CF5A98EDCFFF920F931F93CF93DF9355
:104C3000EC018C01060F111DC017D10729F4CDB767
:104C4000DEB7E5E00C947F30F9900E94942568E08F
:104C50008F2D0E94F225F0CF1F920F920FB60F9268
:104C600011240F931F932F933F934F935F936F9351
:104C70007F938F939F93AF93BF93EF93FF93CF93C4
:104C8000DF930F92CDB7DEB719820E948C25CE013B
:104C900001960E949A25082F069506950695282FBD
:104CA00022952570902F9570290F922F937026953D
:104CB0002695920F982797708981982B09F05CC0F0
:104CC0000A3008F059C080E18A95F1F75A9A529A51
:104CD00082E08A95F1F700C05A9888E0089F800129
:104CE0001124D801AC5FBE4F1696ED91FC91179739
:104CF0003097A9F06091DC017091DD0114962D913F
:104D00003C911597260F371F11968D919C91129704
:104D1000680F791F13964C9113978C910995F801A0
:104D2000EC5FFE4F6381662351F02091DC013091EE
:104D3000DD0184819581820F931F0E9413260E94BA
:104D4000942580E18A95F1F75A9852985A9A80E111
:104D50008A95F1F7F801EC5FFE4F6081662351F010
:104D60002091DC013091DD0181819281820F931FBE
:104D70000E94C6250E948C250F90DF91CF91FF9154
:104D8000EF91BF91AF919F918F917F916F915F91C3
:104D90004F913F912F911F910F910F900FBE0F9048
:104DA0001F9018950F931F93CF93DF93EC010A97F1
:104DB0000CF04CC0F894529A5A9885E08A95F1F715
:104DC00000009C2F969595708C2F8570980F892FD9
:104DD00083709695969523E0CC0FDD1F2A95E1F719
:104DE000980F8E01092B0E94942500C068E0802F47
:104DF0000E94F22580E18A95F1F752985A9A4A9BCF
:104E00001EC087E090E04A991CC0FE01EC5FFE4F97
:104E100063816623F9F02091DC013091DD0184810A
:104E20009581820F931F0E94C625811113C0529A4B
:104E30005A9A7894DF91CF911F910F91089500C0F5
:104E4000DECF019729F4529A5A9A789480E0F2CFF3
:104E500000C0D9CF0E948C2580E28A95F1F75A983C
:104E6000529A80E18A95F1F7CC5FDE4F6881662324
:104E700051F02091DC013091DD0189819A81820F0E
:104E8000931F0E9413260E949425789481E0D2CF2C
:104E90009093F7018093F6010895909363038093B4
:104EA000620308950E942219811103C080915D035D
:104EB0000895E0916203F0916303309729F0019027
:104EC000F081E02D0995089580E00895E091620356
:104ED000F0916303309721F00280F381E02D099572
:104EE0000895A3E0B0E0E7E7F7E20C946630209184
:104EF00060033091610328173907A1F09093610393
:104F000080936003E0916203F0916303309751F066
:104F100023E029839B838A830680F781E02DCE01DD
:104F2000019609952396E2E00C948230A3E0B0E06C
:104F3000ECE9F7E20C94663020915E0330915F0358
:104F400028173907A1F090935F0380935E03E091E7
:104F50006203F0916303309751F024E029839B832F
:104F60008A830680F781E02DCE010196099523966C
:104F7000E2E00C9482309C012E5F3F4FAC01485F11
:104F80005F4F80E02417350709F40895F9019191E6
:104F90009F019923B9F38F5FF5CF662349F0FC0198
:104FA000329608962191261729F0E817F907D1F7CC
:104FB00080E0089581E008959C01FC0132969FEF06
:104FC00080E04191461751F09F3F19F4411101C013
:104FD000982F8F5F8630A9F79F3F09F40895290F16
:104FE000311D97FD3A95F90162830895FC013296CF
:104FF00008962191261303C0DF0111971C92E81730
:10500000F907B9F708950E94DC2708950E94F62752
:105010000895029626E0FC0111922A95E9F7089579
:1050200008950E9410280895811106C081E08093A0
:1050300064030E941128089582E0F9CF83E08093F1
:1050400064030E94112808950E941428089581E0A5
:10505000809364030E94112808950E9427280895D0
:10506000089508950E9431280895089508950E9492
:1050700030280895CF930E9435280E94A6180E94D8
:105080003628C0E08C2F0E948317811105C0CF5FA6
:10509000CA30C1F7CF91089581E0FCCF85B7806811
:1050A00085BF85B7806885BF08951F921FB61F9280
:1050B00011248F939F93AF93BF93809165038111C8
:1050C00013C08091940590919505A0919605B0919B
:1050D00097054196A11DB11D809394059093950568
:1050E000A0939605B0939705BF91AF919F918F9133
:1050F0001F901FBE1F90189580919C05843031F140
:105100000E944A081092650388E190E020E40FB6FF
:10511000F894A895809360000FBE2093600083B739
:10512000817F846083BF83B7816083BF78948895D3
:1051300083B78E7F83BF0FB6F894A89580916000E7
:10514000886180936000109260000FBE08950E94F5
:10515000AC0A0E945108089582E084BD93E095BD99
:105160009AEF97BD80936E0008952FB7F8948091C1
:10517000940590919505A0919605B09197052FBF44
:1051800008952FB7F89460919405709195058091DA
:105190009605909197052FBF08959C014FB7F894FD
:1051A0008091940590919505A0919605B0919705F1
:1051B0004FBF821B930B0895CF92DF92EF92FF9225
:1051C0002FB7F894C0909405D0909505E09096057F
:1051D000F09097052FBFA7019601261B370B480BB0
:1051E000590BCA01B901FF90EF90DF90CF9008955D
:1051F00078941F921FB61F9211248F939F93AF93A1
:10520000BF938091940590919505A0919605B091DA
:1052100097050196A11DB11D809394059093950566
:10522000A0939605B0939705BF91AF919F918F91F1
:105230001F901FBE1F90189587E797E7909301086E
:105240008093000888E19AE00FB6F894A8958093BF
:1052500060000FBE90936000FFCF88E19AE00FB628
:10526000F894A895809360000FBE90936000FFCFE4
:1052700080916E03089508959B01BA0190919C0559
:105280009430E9F48F708093E9009FEF8091E800FB
:10529000915085FD06C085ED8A95F1F700009111CA
:1052A000F5CF8091E80085FF0AC050E040E0C901D9
:1052B0000E942F2B8091E8008E778093E80008955C
:1052C00043E050E0BC0182E00E943C290895CF9366
:1052D000DF93EC0148E050E0BC0181E00E943C29F2
:1052E00088E0FE01A6E6B3E001900D928A95E1F711
:1052F000DF91CF91089580919B05811109C00E9493
:10530000BF2C0E941C2D8091E20084608093E200FB
:10531000089510929B0508950E9427280895609192
:10532000980581E0611101C080E00E941E28089567
:1053300090919C0581E0943009F080E0609198059F
:105340000E942428089542E061EC81E00E943B2CF9
:1053500042E261EC82E00E943B2C90919C0581E04E
:10536000943009F080E0609198050E941428089517
:1053700080919E05833009F461C030F48130D1F111
:10538000823009F49EC008958A3009F48AC08B30B7
:1053900009F46FC0893009F050C080919D058132B9
:1053A00009F04BC08091A1059091A205029708F0E9
:1053B00044C08091E800877F8093E8008091E800F6
:1053C00082FF37C09091F3008091F200029731F490
:1053D0008091F100813011F0863021F48091F1004C
:1053E00080936E038091E8008B778093E8000E94A1
:1053F0006F2C23C080919D05813AF9F48091E800DB
:10540000877F8093E8008091A1059091A205892B68
:1054100061F468E086E693E070E00E947E2B809164
:10542000E8008B778093E800089560E090E080E0EA
:10543000F3CF80919C058111C1CF089580919D0586
:10544000813AD9F78091A1059091A205892BA9F7FE
:105450008091E800877F8093E8008091E80080FFDA
:10546000FCCF80915E018093F1008091E8008E77FF
:10547000BCCF80919D05813201F78091A10590916B
:10548000A205892BD1F68091E800877F8093E80000
:105490000E946F2C80919F0580935E010E94AC0A50
:1054A000089580919D05813241F68091E800877FC3
:1054B0008093E8000E946F2C8091A00580936F0379
:1054C000089580919D05813A09F0B7CF8091E80059
:1054D000877F8093E8008091E80080FFFCCF809177
:1054E0006F03C1CF84B7877F84BF0FB6F894A895A8
:1054F00080916000886180936000109260000FBE10
:1055000080E890E00FB6F89480936100909361007A
:105510000FBE0E942D2808950E94BF2C0E941C2DB2
:10552000E2EEF0E080818460808378940E949B2F7B
:10553000089586E591E00E944D27089580919C058D
:10554000853031F480919C05853019F00E94A728A0
:1055500008950E947C2880919A05882399F30E94DF
:105560003A28882379F30E94192B0E94AC0AEACFCB
:1055700008959A014091A3055091A4050E94C12A63
:105580000895492F55274330510519F168F44130EA
:10559000510509F444C04230510509F445C090E07A
:1055A00080E050E040E025C04132510549F14232EF
:1055B0005105A9F780E490E048E65BE061157105CC
:1055C000C1F082E390E046E35BE06130710589F071
:1055D000E6CF99278130910581F0009729F0029755
:1055E000F1F6EBEBFAE002C0E5EEFAE0849190E030
:1055F000AF01F901518340830895E9ECFAE0F6CF59
:1056000089E090E04BEF5AE06115710591F389E074
:1056100090E044E15BE06130710559F3C0CF82E175
:1056200090E044E25BE0E5CF8BE390E049EE5AE0A6
:10563000E0CF80E189BD82E189BD09B400FEFDCFE4
:105640008091D8008F7D8093D8008091E0008260A7
:105650008093E0008091E00081FDFCCF0895AF923F
:10566000BF92CF92DF92FF920F931F93CF93DF935E
:105670006C01EB018A010E948E2CF82E811123C04F
:105680000115110539F0F80180819181C81BD90BF2
:10569000C80ED91EB12CA12C2097A9F08091E8004A
:1056A00085FD22C08091E8008E778093E800011587
:1056B0001105A1F0F80180819181A80EB91EB18277
:1056C000A08285E0F82E8F2DDF91CF911F910F9151
:1056D000FF90DF90CF90BF90AF9008950E948E2CE6
:1056E0008823D1F2F82EEFCFF60181916F018093DC
:1056F000F1002197FFEFAF1ABF0ACECFFC018091D6
:10570000A3059091A40586179707A0F06115710570
:1057100029F49091E8009E779093E80090E061155D
:10572000710551F4911108C08091E80082FF34C0E6
:1057300080E00895BC01F2CF80919C058823C1F1DF
:105740008530C1F18091E80083FD30C08091E80090
:1057500082FDEACF8091E80080FFE1CF8091F300E5
:105760002091F200382F6115710519F028303105AC
:1057700058F091E02830310509F090E02091E800E0
:105780002E772093E800CBCF81918093F100615078
:1057900071092F5F3F4FE7CF80919C05882341F02F
:1057A000853041F08091E80083FFBECF81E008950D
:1057B00082E0089583E00895FC018091A305909113
:1057C000A40586179707A0F06115710529F480914B
:1057D000E8008E778093E80090E06115710551F440
:1057E000911108C08091E80082FF35C080E00895E3
:1057F000BC01F2CF80919C058823C9F18530C9F1A5
:105800008091E80083FD31C08091E80082FDEACFFD
:105810008091E80080FFE1CF8091F3002091F200B9
:10582000382F6115710519F02830310558F091E0D5
:105830002830310509F090E08091E8008E77809360
:10584000E800CBCF84918093F100319661507109CB
:105850002F5F3F4FE6CF80919C05882341F0853034
:1058600041F08091E80083FFBDCF81E0089582E0A0
:10587000089583E00895982F973028F08F708093D3
:10588000E90081E008959093E900242F762F50E0FD
:10589000981731F07091EC002091ED005091F000DC
:1058A00021FD02C09F5FE8CF3091EB003E7F309337
:1058B000EB003091ED003D7F3093ED003091EB0037
:1058C00031603093EB007093EC002093ED00509327
:1058D000F0002091EE0027FDE5CF80E00895809153
:1058E0009D0587FF13C08091E80082FF06C080916C
:1058F000E8008B778093E80004C080919C058111BB
:10590000F2CF089580919C058823D9F38091E80017
:1059100080FFF8CF8091E8008E77ECCF2091E400F3
:105920003091E50095E6A9012091EC00822F81706D
:1059300020FF06C08091E80080FF06C080E0089547
:105940002091E80022FD1AC080919C05882389F0EF
:10595000853089F08091EB0085FD0FC02091E40037
:105960003091E50042175307F9F29150E1F684E0D7
:10597000089582E0089583E0089581E008950E94EB
:105980002E2D0E94362DE0EEF0E080818160808334
:10599000E8EDF0E080818F77808319BCA7EDB0E05F
:1059A0008C918E7F8C9380818F7E808310929B055B
:1059B00008950F931F93CF93DF930E942E2D0E9483
:1059C000362DC8EDD0E088818F7788838881806804
:1059D000888388818F7D888319BC10929C051092E2
:1059E000980510929A051092990500EE10E0F801C2
:1059F00080818B7F808388818160888342E060E042
:105A000080E00E943B2CE1EEF0E080818E7F80837D
:105A1000E2EEF0E080818160808380818860808315
:105A2000F80180818E7F8083888180618883DF9107
:105A3000CF911F910F910895E8EDF0E080818F7E66
:105A40008083E7EDF0E080818160808384E082BF25
:105A500081E080939B050E94D92C0895E8EDF0E049
:105A600080818E7F80831092E20008951092DA0088
:105A70001092E10008951F920F920FB60F92112419
:105A80002F933F934F935F936F937F938F939F9346
:105A9000AF93BF93EF93FF938091E10082FF0BC020
:105AA0008091E20082FF07C08091E1008B7F8093AC
:105AB000E1000E949A2F8091DA0080FF19C0809146
:105AC000D80080FF15C08091DA008E7F8093DA00C5
:105AD0008091D90080FF96C080E189BD82E189BDB7
