:100000000C94CD050C94EA050C94EA050C94B825E3
:100010000C94EA050C94EA050C94EA050C94EA05A4
:100020000C94EA050C94EA050C94C72C0C949B2DB7
:100030000C94E1270C94EA050C94EA050C94EA056B
:100040000C94EA050C94EA050C94EA050C94EA0574
:100050000C94EA050C9484280C94EA050C94EA05A7
:100060000C94EA050C94EA050C94EA050C94EA0554
:100070000C94EA050C94EA050C94EA050C94EA0544
:100080000C94EA050C94EA050C94EA050C94EA0534
:100090000C94EA050C94EA050C94EA050C94EA0524
:1000A0000C94EA050C94EA050C94EA050005010598
:1000B0000205030504050505000601060206030600
:1000C00004060506000701070207030704070507E2
:1000D00000080108020803080408050800090109CE
:1000E00002090309040905090000010002000300D8
:1000F00004000500000101010201030104010501E2
:1001000000020102020203020402050200030103CD
:1001100002030303040305030004010402040304AF
:1001200004040504556E6B6E6F776E004B65796243
:100130006F61726420436F6E666967004E756D6211
:10014000657220506164004F6E652053686F7420A3
:100150004D6F64730041707020436F6E74726F6CEA
:10016000004E617669676174650053796D626F6CEA
:10017000730042617365204C617965720020200034
:100180000A00436D6400416C740043746C00536654
:1001900074000A0057504D0020200020200000006D
:1001A000000000000102040C1010202020283E1C3A
:1001B00020203E0F111F0000000000000000000082
:1001C000000000E090081860100804030000000020
:1001D000000000020E827C0300000000000000000E
:1001E000000000000000000000000000E01C02050C
:1001F0000224040402A91EE0000000000000000028
:10020000000000000000000000002B0014001A0095
:100210000900130005002A0004001500160017004D
:100220000A0029001D001B0006000700190000003D
:10023000000024522352E1001409000000000000D5
:100240000000000000002F0033001C0018000F0009
:100250000D00280012000C000800110010003400EE
:100260003800370036000B000E000000000022525C
:1002700021522C004300000000000000000000009C
:10028000000020122D002E003712381231006400B9
:100290002D123300331236001E1200001F123612C8
:1002A00021123500351200000000065205520000F0
:1002B0000000000000000000000000000000251207
:1002C0002E12370030122F12231224123112341240
:1002D00027122612340000002014380030002F00AE
:1002E00022120000000000000000000000000000DA
:1002F000000000000000000000000000501851182D
:1003000052184F18000000005014511452144F148A
:10031000000000002A082A044C040E01000000001E
:10032000000000000000E1000000000000000000EC
:100330000000000000000000450044003B003A00BF
:10034000000000004F00520051005000000000006B
:10035000430027182E182D18000000000000000090
:10036000000000000000000000000000000000008D
:10037000000000001E0F1F0F200F210F2808000093
:1003800035071D071B0D060D2C0D0000350F1D0F29
:100390001B0506052B0C00000000000000002C08C7
:1003A000000000000000000000000000000000004D
:1003B000000000000000000000000000000000003D
:1003C000000000000000000000000000000000002D
:1003D000000000000000000000000000000000001D
:1003E000000000000000000000000000000000000D
:1003F0000000000000000000A252A152A452A85226
:10040000AF520000000000000000000000000000EB
:1004100000000000000000000000000000000000DC
:1004200000000000000000000000000000000000CC
:1004300000000000000000000000000000000000BC
:1004400000000000000000000000000000000000AC
:10045000000000000000000000000000000000009C
:1004600000002B00000000000000000000002A0037
:100470000000000000000000000029000000000053
:10048000000000000000000000000000005200001A
:10049000000000000000000000000000000000005C
:1004A0005600610060005F005400000057005E00CD
:1004B0005D005C00550000002B005B005A005900F5
:1004C00067000000000063006200280000000000D8
:1004D00000000000000000000000007C00000000A0
:1004E000000000000000000000000000000000000C
:1004F00000000000000000000000000000000000FC
:100500000000000000520000000000000000000099
:1005100000000000000000000000000000000000DB
:1005200000000000000000000000000000000000CB
:1005300000000000000000000000000000000000BB
:1005400000000000000000AE00AF00DA0281FFD919
:10055000F1DB20A4A62EAF00A0C0D30000A1C8D319
:100560000000AED580A81F408D14200007087F082A
:1005700007003E5B4F5B3E003E6B4F6B3E001C3EF8
:100580007C3E1C00183C7E3C18001C577D571C000C
:100590001C5E7F5E1C0000183C180000FFE7C3E7EC
:1005A000FF00001824180000FFE7DBE7FF003048D9
:1005B0003A060E00262979292600407F0505070006
:1005C000407F05253F005A3CE73C5A007F3E1C1CFB
:1005D0000800081C1C3E7F0014227F2214005F5F6D
:1005E000005F5F0006097F017F00006689956A0051
:1005F00060606060600094A2FFA2940008047E0422
:10060000080010207E20100008082A1C0800081C82
:100610002A0808001E10101010000C1E0C1E0C00E2
:1006200030383E383000060E3E0E06000000000056
:10063000000000005F000000000700070000147FBA
:10064000147F1400242A7F2A1200231308646200F6
:10065000364956205000000807030000001C2241C4
:1006600000000041221C00002A1C7F1C2A000808F0
:100670003E080800008070300000080808080800E4
:100680000000606000002010080402003E5149454F
:100690003E0000427F400000724949494600214126
:1006A000494D33001814127F100027454545390085
:1006B0003C4A49493100412111090700364949495D
:1006C0003600464949291E00000014000000004081
:1006D0003400000000081422410014141414140003
:1006E0000041221408000201590906003E415D59EB
:1006F0004E007C1211127C007F49494936003E4170
:10070000414122007F4141413E007F49494941002A
:100710007F09090901003E41415173007F08080823
:100720007F0000417F4100002040413F01007F08E1
:10073000142241007F40404040007F021C027F00A5
:100740007F0408107F003E4141413E007F090909B6
:1007500006003E4151215E007F09192946002649C5
:100760004949320003017F0103003F4040403F0000
:100770001F2040201F003F4038403F0063140814F2
:1007800063000304780403006159494D4300007F6E
:1007900041414100020408102000004141417F0016
:1007A00004020102040040404040400000030708EA
:1007B00000002054547840007F28444438003844D6
:1007C00044442800384444287F00385454541800C6
:1007D00000087E09020018A4A49C78007F08040485
:1007E000780000447D4000002040403D00007F1024
:1007F0002844000000417F4000007C047804780019
:100800007C0804047800384444443800FC1824244C
:10081000180018242418FC007C080404080048541C
:100820005454240004043F4424003C4040207C00F5
:100830001C2040201C003C4030403C004428102834
:1008400044004C9090907C004464544C4400000858
:10085000364100000000770000000041360800002B
:100860000201020402003C2623263C000000000096
:100870000000404040F0F8F8FF38FFF8F83FF8F883
:10088000FF38FFF8F8F04040400000000000008012
:10089000C0C0C0800000C0C08000000080C0C00098
:1008A000C0C0000080C0C00000000000C0C0C0C0C8
:1008B000C000C0C0000000000000000000000000F8
:1008C0000000000000000000000000000000000028
:1008D0000000000000000000000000000000000018
:1008E0000000000000000000000000C0F0F8FC3E26
:1008F0001E06010000007F4141417F007F414141D0
:100900007F000080C0E07E5B4F5BFEC00000C00047
:10091000DCD7DEDEDED7DC00C00000000000000017
:1009200000000000000000000000000000000000C7
:100930000000494949FFFFFFFFE0DFBFBF00BFBF25
:10094000DFE0FFFFFFFF49494900000000001F3FB3
:100950006060E0BF1F007F7F071E381E077F7F009B
:100960007F7F0E1F3B716000000000007F7F0C0C3A
:100970000C007E7E007F7E0303007F7E03037E7E6D
:1009800003037F7E000F3E703C063C703E0F00323A
:100990007B49493F7E007F7E0303001E3F69696FEC
:1009A0002600000000000000000000030F1F3F3C75
:1009B0007870600000007F4141417F007F414141EC
:1009C0007F00307B7F7830202030787F3B00030031
:1009D0000F7F0F0F0F7F0F000300000000000000CB
:1009E0000000000000000000000000000000000007
:1009F0000000010101070F0F7F0F7F0F0F7E0F0F08
:100A00007F0F7F0F0F0701010100000000000000B1
:100A100000000001010000000000000000000000D4
:100A200000000000000000000000000000000000C6
:100A300000000000000000000000000000000000B6
:100A400000000000000000000000000000000000A6
:100A50000000000000000000000000000000000096
:100A60000000000000000000000000000000000086
:100A70000000000000000000000000000000000076
:100A80000000000000000000000000000000000066
:100A90000000000000000000000000000000000056
:100AA0000000000000000000000000000C035300E4
:100AB0006F0066006C00650000001A034A006F00BA
:100AC0007300650066004100640061006D00630012
:100AD00069006B0000000403090409023B000201E5
:100AE00000A0FA090400000103010100092111011D
:100AF00000012240000705810308000109040100EC
:100B00000103000000092111010001223200070544
:100B10008203200001120100020000000832FC875D
:100B20000201000102000105010980A101850319EC
:100B3000012AB700150126B700950175108100C084
:100B4000050C0901A101850419012AA0021501263D
:100B5000A002950175108100C005010906A10105DB
:100B60000719E029E715002501950875018102950F
:100B700001750881010507190029FF150026FF00EE
:100B80009506750881000508190129059505750167
:100B90009102950175039101C00011241FBECFEF92
:100BA000DAE0DEBFCDBF11E0A0E0B1E0E0EDF1E6BC
:100BB00002C005900D92A63FB107D9F725E0A6EF38
:100BC000B1E001C01D92A53AB207E1F70E941B1CDB
:100BD0000C9499300C9400001F93CF93DF93EC0199
:100BE000162F60E080E891E00E942E1E60E08DE705
:100BF00091E00E942E1E612FCE010E942E1EDF91D9
:100C0000CF911F9108950E94AD18882311F083E0C1
:100C1000089582E00895CF93DF930E94AD18882352
:100C200009F457C00E948E1C0E941323C82F60E055
:100C30008BE991E00E942E1E60E38C2F0E942C080D
:100C400060E00E94EC1D60E088E991E00E942E1EA9
:100C500060E084E991E00E942E1E0E94B011C82F2E
:100C60000E94DC11D82F60E082E991E00E94401ED2
:100C7000CD2B8C2F827261E009F460E08EE891E068
:100C80000E94EC0561E08C2F817109F460E08AE834
:100C900091E00E94EC0561E08C2F847409F460E01F
:100CA00086E891E00E94EC05C87861E009F460E014
:100CB00082E891E00E94EC05CAE041E062E28C2FFC
:100CC0000E94F21DCF5FC132C1F780E0DF91CF916A
:100CD00008950E948E1C60E080E00E94EF1C60E29C
:100CE00070E08EED91E00E94461E61E080E00E947F
:100CF000EF1C60E270E08EEB91E00E94461E62E025
:100D000080E00E94EF1C60E270E08EE991E00E94BA
:100D1000461E61E086E00E94EF1C80912F029091B8
:100D200030020E9449088730F0F4E82FF0E0E556E1
:100D3000FF4C60E00C94C92F82E791E00E942E1EC8
:100D4000C4CF8AE691E0FACF81E691E0F7CF85E55E
:100D500091E0F4CF87E491E0F1CF8CE391E0EECF26
:100D60008CE291E0EBCF60E084E291E0E7CF81E0BC
:100D70000895CF93C62F811107C08AE3611109C07E
:100D80008BE30E94010A08C0813059F4662339F0D0
:100D90008AEA0E94010AC0E08C2FCF91089589EA67
:100DA000F0CFC1E0F9CF8730B8F46A30A8F446300C
:100DB00098F450E096E0699F400D511D1124FA010E
:100DC0009CE3899FE00DF11D1124EE0FFF1FE250FF
:100DD000FE4F85919491089581E090E008950E94DE
:100DE000D306089581E008950E94F206089581E0F7
:100DF00008950E94B706089508950E94FC0608957C
:100E0000A6E0B0E0E6E0F7E00C94F12F49835A83C6
:100E10009E8330910A0289819A8131111AC03E81E4
:100E2000332399F0222389F00E94460E182F682F51
:100E300089819A810E94220E69817A81812F0E9484
:100E4000AC152696E3E00C940D300E94340E182F5A
:100E5000F3CF0E94460E69817A81F1CFFC01262FE3
:100E60004081518162817381848195810E94000754
:100E70000895CF93DF93EC0161E00E942E07BE013D
:100E80000E94F406DF91CF910895CF93DF93EC0198
:100E900060E00E942E07BE010E94FD06DF91CF9107
:100EA000089508950E942A0A0E9451072FEF84E3B3
:100EB0009CE0215080409040E1F700C00000089580
:100EC0000E9452070E94A82808950E9452070E947B
:100ED000B92808950F931F93CF93DF938C0161E09E
:100EE0000E942E07EC01F8018581882319F0CE01BC
:100EF0000E943623B801CE010E94F906811106C076
:100F000080E0DF91CF911F910F910895B801CE013C
:100F10000E94CC228823A1F3B801CE010E94E11FD8
:100F2000882371F3B801CE010E943E22882341F349
:100F3000F8018581882361F0C330FCE7DF07E9F021
:100F400058F4C115ECE7DE07A9F0C130DC47B9F071
:100F5000C8010E94F706D5CFCB358CE7D807A9F09A
:100F6000CC35ECE7DE0771F0CA35DC4789F70E9423
:100F7000BB12EECF0E946007C3CF0E94C3120E9433
:100F80006507BECF0E94B112E3CF0E94BF12E0CF2F
:100F90000E94BE270E948A080E948B1F08950E940B
:100FA0008E080E94C32708952F923F924F925F921E
:100FB0006F927F928F929F92AF92BF92CF92DF9269
:100FC000EF92FF920F93CF93DF931C0129013A0117
:100FD0006B0181E0C81AD108E101CC0DDD1D18823A
:100FE000F12CE12C8AE0882E912CA12CB12CEC1450
:100FF000FD0498F0C101DF91CF910F91FF90EF9028
:10100000DF90CF90BF90AF909F908F907F906F9028
:101010005F904F903F902F900895C301B201A501BA
:1010200094010E94882F605D603319F4E114F1048B
:1010300031F0411451046104710409F4602F6A9382
:10104000C301B201A50194010E94882F29013A0130
:101050008FEFE81AF80ACBCF0F9390910001981305
:1010600004C09091FC01961789F080930001609371
:10107000FC01282F30E050E040E0062F64E070E0F3
:1010800088EF91E00E94D4070F91089588EF91E0D6
:10109000FBCF292F332740E02115310511F0C9017D
:1010A00048E09C0164E0369527956A95E1F72115A3
:1010B000310511F04C5FC9019C0136952795369595
:1010C00027952115310511F04E5FC9019695879539
:1010D000892B09F04F5F842F0895089581E00895CA
:1010E0000895CF93DF93D82F0E946E08C82F8823CE
:1010F00019F08D2F0E9470088C2FDF91CF910895E9
:101100000895CF93C82F0E946D088C2F0E947108FC
:10111000CF91089580E00E94810808950E94DE2604
:101120000E9481080895CF930E94DE26C82F8091E7
:10113000FD018C1779F0C093FD010E944D2860934A
:10114000FE017093FF0180930002909301028C2FA7
:101150000E948108CF910895442319F080910C02D8
:1011600008959C0143E0369527954A95E1F7620F73
:10117000731F8770992721E030E001C0220F8A9504
:10118000EAF7FB019081922381E009F480E0089561
:10119000FC01E770FF2721E030E001C0220FEA9553
:1011A000EAF733E0969587953A95E1F7FB01E80F6A
:1011B000F91F8081442319F0282B2083089520955E
:1011C0002823FBCF0F931F93CF93DF938C01DC0178
:1011D00014968C911497813071F511968C9111971A
:1011E0008A3048F5CC91C63030F5D0E0B6E08B9F20
:1011F000C00DD11D1124F801458162E072E0CE01DD
:101200000E94AC0840E0882389F0CE01880F991F26
:10121000FC01E355FF4FE491D8011196EC9311972F
:10122000FC01E455FF4FE491EC9341E062E072E091
:10123000CE010E94C808DF91CF911F910F910895B0
:10124000ADE0B0E0E6E2F9E00C94F22F4887598770
:101250006A877B878C879D87882349F080910D0260
:1012600090910E02019690930E0280930D028D854F
:1012700081110E94D9118C85882321F0CE01089616
:101280000E94E2081F8286E0FE013896DE01119678
:1012900001900D928A95E1F78D8181110DC0298110
:1012A0003A814B815C816D817E818F810E94DD104E
:1012B0002D96E2E00C940E30CE0101960E94390783
:1012C0008111EDCFF5CFCF93FC01C481C13089F4FA
:1012D000808191810E94780E92959F70963049F49A
:1012E000863F39F080910C028C2780930C02C093CA
:1012F0000B02CF910895CF93C82F8823B9F08CEFBC
:101300008C0F813AA8F46C2F809101019091020119
:101310000E945927882329F08C2F0E946A110E946D
:1013200022128C2F0E9462110E942212CF910895E6
:1013300080E28C0F883048F4C77081E001C0880FCC
:10134000CA95EAF70E94B311EFCFEBE5EC0FE3305B
:1013500040F4F0E0EB56FE4F808190E00E94FD26C5
:10136000E5CFC85ACB3110F7EC2FF0E0EE0FFF1F9E
:10137000E15AFE4F808191810E942227D7CF882396
:1013800039F19CEF980F913A28F40E946A110E945B
:101390002212089590E2980F983050F4877091E0EF
:1013A00001C0990F8A95EAF7892F0E94B911EFCFF2
:1013B0009BE5980F933028F490E080E00E94FD2692
:1013C0000895885A8B3120F490E080E00E94222713
:1013D00008951F93CF93DF93182FEB010E947B0991
:1013E000209739F4812F0E94BF09DF91CF911F917F
:1013F00008958FE99FE00197F1F700C00000219761
:10140000EFCF6AE070E0893311F460E570E00E948C
:10141000E9090895882321F00E94B3110E94221245
:101420000895882321F00E94B9110E942212089584
:1014300090E080E00E94FD2690E080E00E9422275C
:101440000E94D9110E94221208950E9472110E94D6
:10145000180A08950E94C3110E94250A08959295C2
:101460009F70963091F058F4925F9F70923058F4CC
:10147000803F19F030F4883E30F481E008959A5F9F
:10148000F4CF843FD1F380E00895883EB0F3813FEC
:10149000D1F7F3CFFC012481222339F0808191819F
:1014A0000E94780E0E942F0A089580E00895B0E00F
:1014B000A0E0EDE5FAE00C94EB2F6C01C62F172F9E
:1014C000FC01D581068102950F700E94A911E82EBA
:1014D000882301F1DD2361F1812F807F803471F059
:1014E00090E29C0F983020F1011104C0912F907E62
:1014F0009032F1F0803611F4C63FD1F0809175033F
:1015000082FF16C082E00E9485120E94A91191E01C
:10151000E82EE926B12EB2942FE0B222FBE0FB15B3
:1015200008F467C0EB2DF0E0EE55FF4C0C94C92F8A
:10153000E12CF0CF212F2F70F22E812F807F19F018
:10154000F29490EFF922DD2399F0FF2059F080E228
:101550008C0F883010F0C11107C08F2D0E94B3117D
:101560000E9422128C2F3DC08F2D0E94C911F8CFEE
:101570008C2F0E94BF09FF20E1F180E28C0F8830A0
:1015800010F0C11104C08F2D0E94B91103C08F2D1E
:101590000E94CF110E9422122CC0312F3F70F32ED7
:1015A000812F807F803219F0F29480EFF822CC23D3
:1015B00051F0C13009F465C0DD2309F46FC0002388
:1015C00009F449C0CFCF8091750382FD40C0DD236F
:1015D00059F0FF2029F08F2D0E94B3110E94221292
:1015E00080E00E947B0905C080E00E94BF09F110E5
:1015F000CACF2B2D2850330B2430310520F40E9404
:10160000DE260E9481088C2F912F0E942F0A8111C3
:10161000BEC110920E0210920D02D111C0C1EE2077
:1016200089F00E947F1180FD0DC0F60115820E9495
:1016300079110E94800DC6010E94010D0E9479114E
:101640000E94900DCDB7DEB7E9E00C940730DD23A2
:1016500061F0011104C08F2D0E940A0ACACF013027
:1016600041F68F2D0E94F311C4CF0111C2CF8F2DEF
:101670000E94110A8F2D0E94FF118F2D0E94E311ED
:10168000B8CFDD2321F0063008F0B3CFE4CF05302A
:1016900008F0AFCF8F2D0E94110AABCF0023D1F3FA
:1016A000C93309F00BC18FEF97EEE3E08150904012
:1016B000E040E1F700C000008C2F0E94BF0999CFE5
:1016C000812F86958695837069F0813009F091CFDE
:1016D0008C2F912F9370D11102C080E090E00E9476
:1016E000222787CF8C2F912F9370D11102C080E0D9
:1016F00090E00E94FD267DCF812F8370A9F5D11146
:1017000078CF2C2F229526952770220F220F4C2F51
:101710004F7050E0022E02C0440F551F0A94E2F7AA
:1017200090E080E0C4FF09C08FE090E002C0880F25
:10173000991F2A95E2F780959095212F2695269559
:101740002370842B952B223049F058F4213019F066
:101750000E94500D4ECF0E94470D4BCF0E94590D55
:1017600048CF0E94440D45CF8695DD2311F0812F8F
:101770008170882309F43DCF2C2F22952695277060
:10178000220F220F4C2F4F7050E0022E02C0440F48
:10179000551F0A94E2F790E080E0C4FF09C08FE093
:1017A00090E002C0880F991F2A95E2F780959095E6
:1017B000212F269526952370842B952B223049F0D6
:1017C00058F4213019F00E94BB0D13CF0E94B20DC6
:1017D00010CF0E94C40D0DCF0E94680D0ACF912F2B
:1017E0009F70F92EDD2329F0892F0E94800D8C2F08
:1017F00033CF8C2F0E94110A8F2D0E94900DF9CEAD
:10180000C23F41F160F4C03FB9F0C13F81F0DD2338
:1018100009F448C00111A6CE812F8F711FC0C33FAC
:1018200001F1C43FA1F78091750382FD24C0812F8F
:101830008F71DD2311F312C0DD2341F0053008F074
:10184000D8CE812F8F710E94A20DD3CE063008F022
:10185000D0CEF7CF812F8F71D111CFCF0E94800DC5
:10186000C8CEDD2329F0812F8F710E94740DC1CE67
:101870000E946F0DBECEDD2359F0E12FEF71FE2ED9
:101880008E2F0E94800D63E08F2D0E946712B1CED3
:1018900081E00E948512023008F4ABCE82E00E9403
:1018A0008512A7CE002379F0C93341F4FFEF27EE6C
:1018B00033E0F15020403040E1F7FCCE8FE39CE96B
:1018C0000197F1F7F7CE812F8F7197CFE0E1EC0F01
:1018D000E73090F5F0E0E255FF4C0C94C92FDD2382
:1018E00009F487CE80910C0291E0892780930C0245
:1018F00080CED0930C027DCE81E08D27F7CF81E0A2
:10190000DD23A1F376CED11174CE10920C0271CEEC
:10191000DD2319F00E9483116CCE0E948F1169CED5
:10192000DD2339F080910B028823E1F210920B0243
:1019300060CE0530B8F25DCE80910B020023D9F065
:10194000882341F080910C0291E0892780930C025A
:1019500010920B02D11106CEEFE3FCE93197F1F7BB
:1019600000C000008C2F0E94BF0987E0F601119291
:101970008A95E9F73ECE882309F43BCED11139CEC2
:1019800080910C0291E0892780930C02CFCFDD2358
:1019900079F0002321F010920E0210920D02107FB8
:1019A000103619F4C63F09F43ACE0E949C1137CE86
:1019B000002329F010920E0210920D0230CE809179
:1019C0000D0290910E020297A9F78C2F0E94010A36
:1019D000F1CF0F931F93CF93DF93EC01688179814F
:1019E0008D810E94830E8C010E94CD0D0E94430DBB
:1019F000B801CE010E94570ADF91CF911F910F913C
:101A00000895CF93DF93EC018C81882399F0CE0168
:101A10000E946A07811111C00E94A911882351F008
:101A20008D81882339F08091750382FF03C082E0A5
:101A30000E948512DF91CF910895CE010E94E90C9A
:101A4000CE010E944507F6CFA6E0B0E0EAE2FDE055
:101A50000C94F22F2696E2E00C940E30A7E0B0E052
:101A6000E4E3FDE00C94F22F2796E2E00C940E30B4
:101A700008950E94380D08950E94390D9093320206
:101A800080933102089508950E943C0D089520919D
:101A9000310230913202822B932B0E943C0D08952B
:101AA0002091310230913202822393230E943C0D17
:101AB00008952091310230913202822793270E94AB
:101AC0003C0D08950E94380D08950E94620D0895FE
:101AD0000E94650D9093300280932F02089590E04C
:101AE00080E00E94680D089521E030E0A90102C065
:101AF000440F551F8A95E2F7CA010E94680D0895A8
:101B000021E030E002C0220F331F8A95E2F7809176
:101B10002F0290913002822B932B0E94680D089522
:101B200021E030E002C0220F331F8A95E2F72095B2
:101B3000309580912F0290913002822393230E944E
:101B4000680D089521E030E002C0220F331F8A950E
:101B5000E2F780912F0290913002822793270E9412
:101B6000680D089520912F0230913002822B932B23
:101B70000E94680D089520912F0230913002822337
:101B800093230E94680D089520912F023091300216
:101B9000822793270E94680D08950895262F2770A5
:101BA00091E001C0990F2A95EAF723E076956795B1
:101BB0002A95E1F7660F771F660F771FFA01E60F88
:101BC000F71F50E040E0682F70E08191DF0111972E
:101BD0009B01042E02C0369527950A94E2F72170E6
:101BE00021952827292328272C934F5F5F4F4430C6
:101BF000510559F70895A82FA77023E0969587956A
:101C00002A95E1F7880F991F880F991FFB01E80FAC
:101C1000F91F50E040E080E0219130E00A2E02C040
:101C2000369527950A94E2F721703327042E01C0D8
:101C3000220F0A94EAF7822B4F5F5F4F4430510521
:101C400059F70895262F9A3070F4863060F4682F83
:101C500070E086E0989F600D711D11244FE052E006
:101C6000822F0E94CE0D0895292F9A3068F4863075
:101C700058F490E06FE072E036E0239F800D911DF4
:101C800011240E94FB0D089580E00895B0E0A0E0CB
:101C9000ECE4FEE00C94EB2F7C0100912F021091FC
:101CA00030028091310290913202082B192BCFE043
:101CB000D0E0CC24C394D12CBC2EC6010C2E02C083
:101CC000880F991F0A94E2F780239123892B49F406
:101CD000219790F7B12C8B2DCDB7DEB7E9E00C94AE
:101CE0000730B7018C2F0E94B815019789F3F3CF05
:101CF000CF93DF93EC010E94460EBE010E94B815FF
:101D0000DF91CF9108951F93CF93DF93EB019091D3
:101D10000A02992339F0CB010E94780EDF91CF910E
:101D20001F910895882369F0CB010E94460E182F59
:101D3000682FCE010E94220EBE01812F0E94B8158D
:101D4000EDCFCB010E94340E182FF6CF1F93CF9307
:101D5000DF93C091330217E0809134028C1304C0EA
:101D6000DF91CF911F910895D0E01C9FF0011D9F3E
:101D7000F00D1124EB5CFD4F2081318142815381B4
:101D80006481758186810E942E0D2196C770E4CFF3
:101D900020916D0230916E0240916F02509170025D
:101DA0006091710270917202809173020E942E0DF7
:101DB0000895CF93DF9380917302807F09F04DC027
:101DC00080917202882309F448C0E0913302509157
:101DD0003402C0916E02D0916D0260916F027091D9
:101DE000700247E05E17C9F18E2F90E0E49FF0018A
:101DF0001124EB5CFD4F2481222391F1489FF001D7
:101E0000499FF00D1124DF01AB5CBD4F11962C9161
:101E100011972C1325C02C912D1322C015962C91AF
:101E2000159721111DC012962D913C91261B370B41
:101E300026393105A8F4809173028F7080618093F8
:101E40007302E55CFD4F80818F70806180838DE639
:101E500092E00E94010D0E94A60EDF91CF9108959D
:101E6000FC013196E770BECF482F2091330290914C
:101E7000340257E0291302C080E0089530E0529FF9
:101E8000F001539FF00D1124EB5CFD4F818168132D
:101E900006C08081481303C085818111EECF2F5F7A
:101EA0003F4F2770E7CFA4E1B0E0E9E5FFE00C94F5
:101EB000E82F8C0186E0F801DE011F9601900D925B
:101EC0008A95E1F7F8018481E5809DE6A92E92E0EC
:101ED000B92E9091710291111FC08823D1F0EE208C
:101EE000A9F0C8010E944A0AF82E882379F087E0F9
:101EF000F801D50101900D928A95E1F7C5010E9484
:101F000063090E94D90E0E94C80E5FC0C8010E94DA
:101F1000010DFF24F39459C0C080D180828093804A
:101F2000F090720220916F0230917002A401421B66
:101F3000530BFF2009F4F9C04639510508F0A7C03A
:101F4000882309F442C090916E0280917302282F79
:101F5000207F09F05CC09D1116C090916D02C912DE
:101F600012C0E1104EC08F708061809373020E9496
:101F7000C80E8DE692E00E94010D80917302F80177
:101F80008683F12C22C0E1103CC06D2D8C2D0E9467
:101F9000340F6D2D8C2D0E94340FE82E8111F1CF5E
:101FA000CF86D88A8F8598890E94780E292F22950E
:101FB0002F70243078F49F702230A8F09923B9F064
:101FC000F8019681907F99F4FE2C8F2D6496ECE0B9
:101FD0000C9404302A5F2F70223068F0C8010E94F0
:101FE000010DEF2CF1CF992311F0882369F3805E66
:101FF000883050F3F3CF803F38F3815F833070F740
:10200000E3CF80917302816080937302BACF9D11F8
:1020100013C090916D02C9120FC0E1100DC08683EC
:10202000C8010E94010D87E0F801ADE6B2E0019021
:102030000D928A95E1F767CFC8010E944A0A88236A
:1020400009F464CFEE2009F461CF809173028032ED
:1020500088F020916D0230916E02398728879B8627
:102060008A86909171029C871D868E87CE01089684
:102070000E94010D87E0F801ADE6B2E001900D92FB
:102080008A95E1F70E94D90E0E94C80E42CF909126
:102090007302292F207FA1F4682D9A8A898AA601CC
:1020A0007A899E2D0E94240D8DE692E00E94010DFA
:1020B00087E0F50111928A95E9F70E94C80E61CF79
:1020C000882309F482CF80916E028D1110C0809117
:1020D0006D02C8120CC0E1100AC09683C8010E94AC
:1020E000010D87E0F50111928A95E9F76ECFC801DD
:1020F0000E944A0A882309F409CFEE2009F406CF8A
:1021000080917302803208F4B5CF20916D02309136
:102110006E023A8329839C828B82909171029D8307
:102120001E828F83CE010196A3CF46395105B8F5A3
:10213000882309F4EECEFE2CEE2009F4E7CE809140
:102140006E028D111EC080916D02C8121AC080915E
:10215000730280FD0DC0982F907F51F08683903FD1
:1021600009F45ECF982F907F905F8F70892B57CFA7
:1021700087E0F801ADE6B2E001900D928A95E1F7B3
:1021800024CFC8010E944A0A811174CF8091730242
:10219000816080937302C8010E94010D16CF682DE3
:1021A0009A8A898AA6017A899E2D0E94240D87E049
:1021B000F50111928A95E9F7A6CEAEE0B0E0E3EE24
:1021C000F0E10C94F12F288739874A875B876C8769
:1021D0007D878E87CE0108960E94530F8823B1F029
:1021E0006C85662341F0288539854A855B857D8528
:1021F0008E850E942E0D17E080913302909134025B
:1022000089133DC02E96E3E00C940D3087E0FE016B
:102210003896DE01119601900D928A95E1F78C8532
:10222000882349F32091340230E0C9010196877078
:102230009927409133024817190699F097E0929F29
:10224000D001939FB00D1124AB5CBD4FFE013196C0
:1022500001900D929A95E1F7809334020E94A60EA8
:10226000CACF0E942A0A109234021092330287E0E9
:10227000EDE6F2E0DF011D928A95E9F7BCCF819F80
:10228000C00111248B5C9D4F0E94530F882309F4D9
:10229000B9CFE09133021E9FF0011124EB5CFD4F9A
:1022A00020813181428153816481758186810E94C0
:1022B0002E0D8091330290E00196877099278093CC
:1022C00033029ACF682F80910101909102010E9400
:1022D0008F270895682F80910101909102010E943B
:1022E0009227089580910101909102010E94952703
:1022F000089580917D0286958695869508958091B2
:102300007D028770089582E080937C0281E0809353
:102310000C02089510927C0210920C020895809194
:102320007C02823021F481E080937C020895833026
:1023300011F40E948A11089580917C02823021F468
:1023400083E080937C020895813011F40E948A1109
:10235000089590917D02977081E009F480E00895DE
:1023600080918902089590918902892B8093890236
:1023700008958095909189029823909389020895F9
:1023800080938902089510928902089580918802AD
:10239000089590918802892B8093880208958095F2
:1023A00090918802982390938802089580938802E0
:1023B000089510928802089580917F0208950895EB
:1023C0000E94DF11089590917E02292F282331F079
:1023D0008095892380937E020E94E01108950895DC
:1023E0000E94EF11089590917F02292F282328172A
:1023F00029F0982B90937F020E94F01108959091FC
:102400007F02292F282331F08095892380937F0232
:102410000E94F01108959091750392FF08C0909169
:102420007F02981721F080937F020E94F011089597
:1024300080917F02882329F010927F0280E00E9421
:10244000F0110895CF93DF93E0910101F091020123
:10245000809189028083E0910101F09102018081E5
:1024600090918802892B808390917F02992381F03B
:10247000E0910101F09102018081892B808380919C
:102480000101909102010E94472781110E941812B8
:10249000C0910101D091020148E050E064E772E090
:1024A000CE010E943130892B59F088E0FE01A4E76B
:1024B000B2E001900D928A95E1F7CE010E94F226DA
:1024C000DF91CF91089508950E946312089590912D
:1024D000750392FF11C098E0899F90011124622B2F
:1024E00060937D020E94800D80917D028695869585
:1024F00086950E94641208950E94800D089510929E
:102500007D0280E00E946412089590917D02809582
:10251000892380937D02282F277069F4891759F049
:102520009091750392FF07C08695869586950E94C7
:10253000900D0E947F1208959091750392FB2227BF
:1025400020F9281769F080FB92F990937503809128
:102550007403909175030E94E41282E00E94851238
:1025600008958091750382FB882780F991E089277F
:102570000E949C12089581E00E949C12089580E0C0
:102580000E949C1208956FEF7FEF90E080E00E9420
:102590008330089590E080E00E944F3021E0863E35
:1025A0009E4F09F020E0822F089582E090E00E9483
:1025B0004730089583E090E00E944730089584E01A
:1025C00090E00E944F300895BC0184E090E00E94AA
:1025D00083300895AB01BC018FE090E00E9477301A
:1025E0000895AB01BC0183E190E00E94773008952B
:1025F00060E070E0CB010E94F112089560E070E0AD
:10260000CB010E94EA120E94F8120895A8E0B0E0FF
:10261000ECE0F3E10C94F22F66EE7EEF90E080E0C8
:102620000E94833060E082E090E00E94653060E0CC
:1026300083E090E00E9465301092320210923102E5
:1026400060E074E184E090E00E94833060E086E026
:1026500090E00E9465306FEF87E090E00E94653067
:1026600040E050E0BA0188E090E00E94773060E0FE
:1026700084E290E00E94653060E087E190E00E9493
:10268000653060E08CE090E00E94653060E08DE0B5
:1026900090E00E94653019821A821B821C821D8282
:1026A0001E821F82188648E050E068E170E0CE018B
:1026B00001960E94553040E050E0BA0180E290E07F
:1026C0000E9477300E94FE122896E2E00C940E30B1
:1026D0000E94061308958EE090E00E94473091E03A
:1026E000811101C090E0892F0895682F8EE090E05D
:1026F0000E9465300895A6E0B0E0E1E8F3E10C94B3
:10270000F02F0E9441288C0180918A0290918B02C7
:102710008017910781F019821A820E944128682F40
:1027200049815A81792F80E090E00E94200910931E
:102730008B0200938A022696E4E00C940C300E94EF
:10274000C81660939E0270939F028093A00290939C
:10275000A10260939A0270939B0280939C029093D3
:102760009D0208950E94C81660939E0270939F0276
:102770008093A0029093A1026093960270939702B7
:1027800080939802909399020895089508950E9465
:10279000C613089508950E94CA13089581E008950C
:1027A00082EE96E10E94D4260E94C5130E94C713B0
:1027B00008950E94AD180895089508950E94DC13AD
:1027C0000E94DD1308950E94E5160E948008089576
:1027D0000E9438280E94A2160E94C5180E94DB2081
:1027E0000E940B180E94E3130E94281C80E00E94A4
:1027F000A31C0E94D5180E94CB1308950E94AD1807
:1028000081110E944B230895A6E0B0E0EAE0F4E1D4
:102810000C94E82F0E94CE13C82E811111C00E9483
:102820007B13C12C0E94FE130E945F21882309F4B0
:102830005DC00E94B2130E94A91F0E94861E5AC04A
:102840000E942E188CE8A82E82E0B82E750110E0A8
:10285000F70101917F01812F0E940B171F5F1A3032
:1028600009F441C00817A1F38091A20281FD0E94E2
:1028700011170E94D913982E10E088248394812F79
:102880000E940B17082FF50181915F01081729F1AC
:10289000D02ED826F12CEE24E3948D2D8E21A9F094
:1028A000992099F0F9821A830E9441289C838B8396
:1028B0008D8291E0802F8E2109F490E049815A8128
:1028C0006B817C818D810E942009F394EE0CF6E0EF
:1028D000FF12E3CFF501319700831F5F1A3079F6BD
:1028E0000E949F139FCF0813BFCF99CF0E94A91FAB
:1028F000C110A3CF0E9493082696ECE00C940430FC
:102900000F931F93CF93DF930E94BD15EC01C11568
:1029100082E5D80708F055C0C11590E5D90708F041
:1029200001C1C03ED10520F5CD3CD10508F092C0D3
:10293000C83AD10578F4C53AD10508F083C0C13052
:10294000D10511F1209701F1C430D105E8F4D0E0B0
:10295000C0E01AC0C33CD105D0F7C85AD0E0CC0FB4
:10296000DD1FC856DE4F0990D881C02DD4640CC03D
:10297000C11580E2D80770F4C11591E0D90708F0BD
:102980006BC0C83ED10518F7CE01DF91CF911F91E2
:102990000F9108958E011127C11580E4D80708F022
:1029A0006CC08D2F8F710E945F16C82FC8010E94C6
:1029B000BD15D0E0DC2FCC27CC27DF71C82BD92B5D
:1029C0002CC0C03892E5D907B0F4C03682E5D807EC
:1029D00008F085C0C03492E5D90708F06BC0C0325A
:1029E00082E5D80708F452C0CF71D0E0DC2FCC27A5
:1029F000C16FD06AC9CFC03C92E5D90780F48C2F53
:102A00008F71C03AD24508F47FC00E945F16C82F6C
:102A1000D0E0DC2FCC27CC27DF71D062B5CFC03E11
:102A200082E5D80708F477C0CE0196558F3F91050F
:102A300011F008F08CCFCE0199270E94BD15EC0152
:102A4000D066A2CFC55AD0E0C253DE4FC881D0E0D5
:102A5000D0649ACFD06598CF8D2F0E945F16182F23
:102A6000CE0199270E94BD15C12FD0E0DC2FCC27C5
:102A7000CC27DF71C82BD92B87CFC8010E94BD1589
:102A8000CC27DF70C82BD92BD06A7ECF2C2F269570
:102A9000269590E2299F900111248C2F8370C1E02C
:102AA000D0E002C0CC0FDD1F8A95E2F7C22BD32BFA
:102AB000DD686ACF2C2F26952695277080E2289F07
:102AC000900111248C2F8370C1E0D0E002C0CC0FA4
:102AD000DD1F8A95E2F7C22BD32BDC6855CF2C2F54
:102AE00026952695277090E2299F900111248C2F1E
:102AF0008370C1E0D0E002C0CC0FDD1F8A95E2F701
:102B0000C22BD32BDA6840CFC82FD0E0DC2FCC27E4
:102B1000C46FD06A39CFDC2FCC27CC27DF71C06FD0
:102B2000D06A32CF8C2F8F710E945F1655E0D695F8
:102B3000C7955A95E1F7CF70D0E0DC2FCC27282F2E
:102B400030E084FF05C044E0220F331F4A95E1F7CF
:102B5000C22BD32BD06918CF462F7A3030F4663091
:102B600020F4672F0E94EF06089590E080E008951A
:102B70000E94AC150E948014089582389105B9F125
:102B8000B0F48133910509F47DC048F48932910590
:102B900009F46DC08A32910509F47BC0089585332C
:102BA000910509F45FC08933910509F10895833EC9
:102BB0009105D9F138F4803E910529F1823E9105C5
:102BC00079F10895863E9105D9F1873E910509F482
:102BD0003EC0843E910541F52091750321FF24C03C
:102BE0008091740384FD19C087EE90E008952091D0
:102BF0007403237009F05AC02091750323FF14C099
:102C000089E290E008952091740320FD38C030914E
:102C1000750330FF09C024FF43C090E080E00895B1
:102C20002091740322FDF7CF08952091740322FDB3
:102C30003AC03091750330FD39C024FFF5CFEDCF98
:102C40002091740323FFF0CF24FDE7CFCDCF209157
:102C5000740323FD2EC03091750331FFEECF84EE57
:102C600090E008952091740325FFDECFC9CF209115
:102C7000740325FD21C02091750323FFD5CF89E37F
:102C800090E0D2CF2091740326FFCECF8AE290E06D
:102C900008952091740326FFC7CF81E390E0089543
:102CA00083EE90E0089582EE90E0089580EE90E04B
:102CB000089586EE90E0089585E390E00895909160
:102CC000740392FF06C0282F28712830F9F4877FFB
:102CD000846093FF06C0282F28712831F1F4877E85
:102CE00084612091750320FF06C0382F3871383079
:102CF000D9F4877F816021FF06C0282F28712831F1
:102D0000D1F4877E816194FD877E0895282F2471F8
:102D10002430F9F68B7F8860DCCF282F2471243192
:102D200001F78B7E8861DDCF382F3171313019F793
:102D30008E7F8860E0CF282F2171213121F78E7E90
:102D40008861E1CF109270031092710310927203A8
:102D5000109273030895CF92DF92EF92FF926B016E
:102D60007C010E94AD1881110EC00E944D28C61A28
:102D7000D70AE80AF90AC0927003D0927103E09270
:102D80007203F0927303FF90EF90DF90CF9008955D
:102D90000F931F930E94AD18882329F00E944D289D
:102DA0001F910F9108950E944D280091700310917A
:102DB00071032091720330917303600F711F821FA2
:102DC000931FEECF80E0089508950E94CA128111EA
:102DD00002C00E9468130E94D5128093A2020E9432
:102DE000DF1290937503809374030E94E4160E948F
:102DF000DA1290E00E94440D80912F0290913002EF
:102E00000E94650D089508950E940317089508957E
:102E10000E9407170895E82FF0E0EF57FC4F8081DC
:102E20000895089580EA8A95F1F7089500C00895FD
:102E30000E941217089508950E941B170895A5E097
:102E4000B0E0E5E2F7E10C94EE2F0E94AD18F82E09
:102E500060918B03882309F440C085E0E82E8E0141
:102E60000F5F1F4FF8018E2D11928A95E9F7862F7B
:102E700090E0B8018F579C4F0E94E3188823B9F067
:102E80008091760390E045E050E0B8018F579C4F69
:102E90000E94313021E02093A302892B91F4F12C80
:102EA0000E9408178F2D2596E6E00C940A30809139
:102EB000A3028823A1F3F8011192EA94E9F7109292
:102EC000A302A0917603B0E0AF57BC4F85E0F801B4
:102ED00001900D928A95E1F7E3CF70E06F577C4F38
:102EE0008091760390E08F579C4F0E946A190E9450
:102EF0001C17D8CFF894E82FE295EF70F0E031A1DD
:102F0000282F2F7081E090E001C0880F2A95EAF702
:102F1000982F9095932391A392A1892B82A37894C3
:102F20000895CF93DF93C7EDD1E089918F3F11F0E2
:102F30000E947A1781E0CC3DD807B9F7C1EDD1E006
:102F400089918F3F11F00E947A1781E0C73DD80721
:102F5000B9F7DF91CF910895B0E0A0E0E2EBF7E19F
:102F60000C94EC2FEC01D62E062F10E0C8018952EC
:102F70009E4F7C01FC0180818F3F09F445C0F8948D
:102F8000E82FE295EF70F0E091A18F7021E030E042
:102F900001C0220F8A95EAF7892F822B81A382A193
:102FA0002095282322A378940E941617E1EDF1E0E2
:102FB00047ED51E031E0C12C21912F3F51F1A22F7B
:102FC000A295AF70B0E090968C9190E02F7002C007
:102FD000959587952A95E2F780FD1BC0832FC82A17
:102FE000330F4E175F0741F7F70180818F3F11F0D4
:102FF0000E947A1761E0C11001C060E08D2D0E942F
:103000001817C00FD11FC882CDB7DEB7E8E00C9407
:10301000083080E0E4CF809103018091030195E0C6
:10302000811190E090938B0385E0891B8093760358
:103030000E9491178AE0E1E8F3E0DF01982F1D92EA
:103040009A95E9F7E7E7F3E0DF011D928A95E9F742
:1030500085E00E946C180E9404170895AAE0B0E071
:10306000E4E3F8E10C94EF2F8E010F5F1F4F8AE02D
:10307000F80111928A95E9F7F12C6F2DC8010E9491
:10308000AC17F394F5E0FF12F8CF4AE050E0B80136
:1030900087E793E00E94313021E0009709F420E0B7
:1030A000892B41F08AE0F801A7E7B3E001900D9287
:1030B0008A95E1F760918B0370E06F577C4F45E094
:1030C00087E793E00E946D18182F0E941F17812B2D
:1030D0002A96E5E00C940B300895CF92DF92EF92A0
:1030E000FF920F931F93CF936C017B01042F222338
:1030F00049F081E08093A6020E9441289093A502A6
:103100008093A402C091A602C1110AC0C0E08C2F16
:10311000CF911F910F91FF90EF90DF90CF90089586
:103120008091A4029091A5020E945928059770F3FE
:1031300010E0A801B601C7010E943130892B41F08F
:10314000A801B601C7010E943E301092A602DFCF4F
:10315000C0E0FBCF0E946B1308958091A9028111FA
:1031600007C00E94472F882351F081E08093A90275
:1031700081E09091A902913009F080E0089582E009
:103180008093A9020E94422FF3CF0E94CA1281119C
:1031900002C00E9468130E94AA18809303010E9433
:1031A000AD1881110E94191908950E94AD1881115E
:1031B00002C00E941C19089581E09091AA029A30E1
:1031C00008F080E008950F931F93CF93DF93EC01F5
:1031D0008B018091AA028A30B8F4B801CE010E9416
:1031E0006719C82F811122C08091AA028F3FB9F4BC
:1031F0000E9441289093A8028093A7028C2FDF9110
:10320000CF911F910F9108958091A7029091A802EC
:103210000E945928843F914000F7C0E0EFCF8F5FB4
:103220008093AA028A3020F7C1E0E8CF1092AA0268
:10323000E5CF0E94722508950E9475250895B0E09B
:10324000A0E0E5E2F9E10C94ED2F7901C82F880F99
:10325000DD0B41155105A9F0FE0193E0EE0FFF1FB4
:103260009A95E1F7EC5FFE4F8181928185559D4FE4
:10327000208130E04217530708F49A01A9010E9407
:103280003E30CE010E945E26D82E8823D1F0011553
:103290001105B9F083E0CC0FDD1F8A95E1F7FE013F
:1032A000EC5FFE4F438150E00417150708F4A801B6
:1032B000CC5FDE4F6C817D8165557D4FC7010E94DB
:1032C0003E308D2DCDB7DEB7E7E00C9409300E947B
:1032D000711B08950E94AA1B0895A3E0B0E0E3E7E4
:1032E000F9E10C94EC2F6091DC027091DD02809189
:1032F000DE029091DF020E9468286B017C0111E0E0
:1033000084E6C816D104E104F10408F410E00E9438
:10331000B011898394E6C916D104E104F10438F4AC
:10332000E091DC01F091DD019089891311E00E94A8
:10333000C6118A83111109C0E091DC01F091DD0111
:1033400011E09189981301C010E00E94DC118B8379
:10335000111108C0E091DC01F091DD01928911E0CA
:103360008917C9F010E000E030E020E043E050E0D1
:10337000BE016F5F7F4F87E00E941F19182F8823BF
:1033800051F00E944D286093DC027093DD0280931F
:10339000DE029093DF02812F2396E8E00C94083040
:1033A000A4E0B0E0E6EDF9E10C94F02F6091D002DA
:1033B0007091D1028091D2029091D3020E9468282C
:1033C00011E0643671058105910518F10E94C81657
:1033D0006E5F7F4F8F4F9F4F69837A838B839C8370
:1033E00010E000E030E020E044E050E0BE016F5F1C
:1033F0007F4F84E00E941F19182F882351F00E94EC
:103400004D286093D0027093D1028093D2029093A2
:10341000D302812F2496E4E00C940C30B0E0A0E0BD
:10342000E4E1FAE10C94EA2FC82F7B01D42F690163
:103430005801FB0160817181828193810E9468281B
:10344000643671058105910510F4DD23C9F010E0A3
:1034500000E030E020E0A501B6018C2F0E941F198A
:10346000C82F882339F00E944D28F70160837183AB
:10347000828393838C2FCDB7DEB7EAE00C940630BD
:10348000C1E0F8CFA1E0B0E0E8E4FAE10C94F02F5D
:103490000E9413238983E091DC01F091DD0141E07A
:1034A0009389981301C040E001E010E09E012F5F76
:1034B0003F4F60EE72E088E00E940E1A2196E4E031
:1034C0000C940C300F931F93CF93DF93C091DC01CA
:1034D000D091DD0141E02C853D8580912F029091B6
:1034E00030022817390709F440E002E010E02FE22B
:1034F00032E068ED72E085E00E940E1A8823A1F0A8
:1035000041E02E853F85809131029091320228174B
:10351000390709F440E002E010E021E332E064ED15
:1035200072E086E00E940E1ADF91CF911F910F91F9
:103530000895A1E0B0E0EFE9FAE10C94E72F762ED0
:103540004A015901680101E010E09E012F5F3F4FE1
:1035500050E040E070E060E00E941F19182F8823BF
:1035600099F1F40160817181828193810E946828C0
:10357000643671058105910500F18701950150E0E0
:1035800040E070E060E0872D0E941F19B82EB7015F
:10359000C6010E94291C11E09981981310E01B219B
:1035A00039F00E944D28F4016083718382839383F4
:1035B000812F2196EDE00C940330B701C6010E94E3
:1035C000291C99818913D9CFA701B601C5010E9491
:1035D0003E30EECFA1E0B0E0E0EFFAE10C94EE2F48
:1035E0000091DC011091DD01095F1F4FEE24E3948F
:1035F000F12C9E012F5F3F4F4CEC52E063E082E0E4
:103600000E94991A182F882321F0CE0101960E945A
:10361000FA21812F2196E6E00C940A30A5E0B0E073
:10362000E4E1FBE10C94EC2F6B010091DC011091C3
:10363000DD010F5F1F4F85E0E82EF12C9E012F5F0B
:103640003F4F48EC52E061E080E00E94991A8823E5
:1036500049F095E0FE013196A3ECB2E001900D92A5
:103660009A95E1F795E0E3ECF2E0D60101900D9236
:103670009A95E1F72596E8E00C940830B0E0A0E0D8
:10368000E4E4FBE10C94EA2F7C015B016A010E94F7
:10369000DC1801E010E0882311F00AE010E0C1E03E
:1036A000D0E0B501C701F6010995811104C021964A
:1036B0000C171D072CF4CDB7DEB7EAE00C940630EA
:1036C000CC9F9001CD9F300D300D112490E080E013
:1036D00045E34A95F1F70000019682179307C1F779
:1036E000E0CF0F931F93CF93DF93EC018B014EE05C
:1036F0005BE10E943E1B811106C080E0DF91CF910B
:103700001F910F9108954AEE5AE1B801CE010E942F
:103710003E1B882391F340ED59E1B801CE010E9490
:103720003E1B882351F342E65AE1B801CE010E94C4
:103730003E1B882311F34DE659E1B801CE010E94EA
:103740003E1B8823D1F242E45AE1B801CE010E9427
:103750003E1BD4CFA1E0B0E0E0EBFBE10C94EC2FFA
:103760000091DC011091DD01C801019625E0FB010B
:10377000DC0101900D922A95E1F765E070E00E946E
:10378000291CF8018083CE0101960E94EF218981D6
:10379000F801878361E070E0CE0101960E94291C48
:1037A000F80186836085718582859385C090BF020C
:1037B000D090C002E090C102F090C2026C157D056D
:1037C0008E059F0551F06093BF027093C0028093F5
:1037D000C1029093C2020E94AB16F80184859585C0
:1037E0009093300280932F028685978590933202C2
:1037F00080933102E188F28880890E94C0118E2D69
:103800000E94D6118F2D0E940B12F80183890E940D
:1038100010232196E8E00C9408300E94182A0E9498
:10382000E8130E94252A08950E942A2A0E9404145F
:103830000E94442A08950E94DA270E94FE290E94CD
:10384000D0130E940D1C0E94141C0E94DE13FBCF9B
:103850000895FC01680F791F8FEF91E36E177F07C2
:1038600009F408952191822728E030E087FF06C0FF
:10387000880F892721503109C9F7F0CF880FFACF77
:10388000AB0124E630E0BC0188E70E94CC2421E0B3
:10389000892B09F020E0822F0895B0E0A0E0E3E555
:1038A000FCE10C94EC2F6C017B0164E670E088E78E
:1038B0000E9432248C01E601EC0CFD1CCE15DF05C4
:1038C00061F40E94142581E00115110509F080E0E2
:1038D000CDB7DEB7E8E00C94083017FDF2CFFE015B
:1038E000849164E670E00E949E248C012196E6CFCC
:1038F0000F931F939B0104E610E0AC0160E488E79E
:103900000E94ED2421E0892B09F020E0822F1F91F5
:103910000F9108950E942C2408950895ECE8F3E097
:1039200080E092E0DF019C011D9221503040E1F7E0
:10393000F0939305E09392058FEF9FEF9093100320
:1039400080930F030895CF930E948D1C0E9403065D
:1039500080930B0380FD11C080E880930A030E94CE
:103960008A1C6BE070E081E695E00E944D1C81119D
:1039700006C0C0E08C2FCF91089580E2EECF8091F9
:103980000B0365E070E081FD27C08CE595E00E94A7
:103990004D1C882371F36DE070E08AE495E00E948D
:1039A0004D1CC82F882329F30E944D28605A754169
:1039B0008F4F9F4F60938E0570938F058093900576
:1039C000909391050E948E1C81E080930E0380935A
:1039D0000D0310920C03CECF87E595E0D8CF209150
:1039E0000A0336E0839FC0011124629F800D911D60
:1039F0001124811522E0920714F090E080E08457B2
:103A00009C4F909393058093920508952091920581
:103A1000309193052658334040910A03642F70E09B
:103A2000C9010E94602F481B463010F4240F311D3D
:103A3000211582E0380710F030E020E024573C4F99
:103A4000309393052093920508951F93CF93DF93AE
:103A5000162F8A3039F481E00E949E1DDF91CF91AC
:103A60001F9108958D3011F480E0F6CFC09192053A
:103A7000D091930596E0FE01A4EEB2E001900D9284
:103A80009A95E1F7803EB8F086E0FE0111928A95A2
:103A9000E9F711111CC0C0919205D091930546E041
:103AA00050E0BE0184EE92E00E943130892BE9F4AF
:103AB0000E94061DD3CFF6E08F9FB00111246459F8
:103AC0007A4F46E050E0CE010E942830E2CFE091EC
:103AD0009205F09193059F012A5F3F4F2E173F07F4
:103AE000D1F2808180958193F9CFCC58D340CE011B
:103AF00025E0969587952A95E1F721E030E0A90128
:103B000002C0440F551F8A95E2F7CA0140910F0386
:103B100050911003842B952B259645E0D695C7959B
:103B20004A95E1F702C0220F331FCA95E2F7822BB4
:103B3000932B9093100380930F03BACFCF93382F1A
:103B4000E0919205F0919305EC58F34020910A031F
:103B5000622F70E0CF010E94602F281B822F332339
:103B600069F066E00E94542FC82FC15010F4CF9125
:103B7000089560E080E20E94251DF7CF9F01280F85
:103B8000311D2115324018F080E0F0E0E0E08E0FAA
:103B90009F2F911D84579C4F90939305809392057E
:103BA000E6CFFF920F931F93CF93DF93EC01F62E96
:103BB000FC0101900020E9F78F0101501109C017A5
:103BC000D10728F0CDB7DEB7E5E00C940B306F2DB0
:103BD00089910E94251DF3CF0E94D11D81E00E9492
:103BE0009E1D089530910A038317A0F590E0262FBB
:103BF000269526952695239F800D911D11248115CC
:103C000022E092073CF5FC01E457FC4F50816770BD
:103C100021E030E001C0220F6A95EAF74423D9F091
:103C2000252B2517B9F0208325E0969587952A95B1
:103C3000E1F721E030E002C0220F331F8A95E2F75E
:103C400080910F0390911003822B932B909310037C
:103C500080930F03089520952523E3CF1F93CF93DF
:103C6000DF93EC01162FFE018491811104C0DF91D6
:103C7000CF911F910895612F0E94251D2196F3CFAA
:103C80000E942E1E81E00E949E1D0895CF93DF9317
:103C900020919205309193052C583340A901460F8D
:103CA000571F4130524020F060E072E0621B730BFE
:103CB00040910F0350911003FC01C901620F731F63
:103CC000C1E0D0E08617970738F050931003409377
:103CD0000F03DF91CF9108952491DC01A457BC4FCD
:103CE0003C91321781F02C939C01A5E036952795E5
:103CF000AA95E1F7DE0102C0AA0FBB1F2A95E2F7E1
:103D00009D014A2B532B01963196DCCF80910E03F7
:103D1000811103C080910D0308950E944D28605ABF
:103D200075418F4F9F4F60938E0570938F058093E1
:103D300090059093910580910D038111EBCF62E086
:103D400070E088E495E00E944D1C882319F381E01F
:103D500080930D03DFCFB0E0A0E0E1EBFEE10C9437
:103D6000E62F80910F0390911003892B09F4B6C0C0
:103D700080910E03882309F4B1C080910C03811156
:103D8000ADC00E94861E20910F03309110032115B3
:103D9000310509F4A3C090E041E050E0092F10E0A4
:103DA000EA01092E02C0CC0FDD1F0A94E2F7BE0122
:103DB00062237323672B11F49F5FF0CF80910B0375
:103DC00080FF91C0990F990F990F90934E01109217
:103DD0005101995F90934F0183E08093520167E016
:103DE00070E08CE491E00E94401C882309F476C0C6
:103DF000980145E0220F331F4A95E1F780910B03AC
:103E000080FF83C0EAEEF2E080E2DF011D928A9536
:103E1000E9F702EE11E08EEDE82E81E0F82E97E052
:103E2000992E88248394D801ED918D01D7016D914D
:103E30007D01620F732F711D64577C4FF0E0E651D6
:103E4000FD4F50E040E0792C741AA82C042E01C0DC
:103E5000AA0C0A94EAF76B0180E0D6019D916D01EE
:103E60009A21A72DA81BA770BA2E0A2E000CBB0BF7
:103E7000692E01C0660CBA94EAF7B62CB195A195EB
:103E8000B109A770BB2701C09695AA95EAF7A62DA0
:103E9000A92B90819A2B90838F5F8830F1F64F5F2A
:103EA0005F4F31964830510571F681E0063E1807A4
:103EB00009F0B9CF60E270E08AEE92E00E94781CCF
:103EC000882361F0C095D09580910F0390911003E5
:103ED000C823D923D0931003C0930F03CDB7DEB707
:103EE000EEE00C9402309295990F907690934E01EB
:103EF0009801369527953695279520935101915E27
:103F000090934F01209352016ACF60E270E0C901A3
:103F100084579C4FD3CF80910D0390910E03911144
:103F200003C091E089270895882369F062E070E07A
:103F300086E495E00E944D1C811103C080910D0321
:103F4000089510920D0380910D03EBCF0E940B0694
:103F500008950F931F9380910E03882379F1809128
:103F60008C0590918D050E945928C29760F00E949F
:103F7000412890938D0580938C0560E080E00E943D
:103F8000EF1C0E94A61F0E94AB1E80910D03882388
:103F9000A9F00E944D2800918E0510918F05209167
:103FA000900530919105601B710B820B930B6F3F55
:103FB0007F4F8F4F9F4710F40E948B1F1F910F91CF
:103FC0000895CF93DF93EC01FB018581882309F4E9
:103FD000D2C09E0130572332310508F0B2C00E9492
:103FE000DF129093750380937403FE01E150F04754
:103FF000E232F10520F4EB54FF4C0C94C92F809170
:10400000740381608093740393C08091750388600A
:10401000809375038DC0809174038260F3CF80918B
:1040200074038460EFCF809174038860EBCF80913C
:1040300075038160EDCF809175038260E9CF809137
:1040400074038061DFCF809174038062DBCF809145
:1040500074038064D7CF0E942A0A80917403806819
:10406000D1CF809174038C60CDCF80917503836034
:10407000CFCF809174038E7FC5CF80917503877FEA
:10408000C7CF809174038D7FBDCF809174038B7FE8
:10409000B9CF80917403877FB5CF809175038E7FF0
:1040A000B7CF809175038D7FB3CF809174038F7EDE
:1040B000A9CF809174038F7DA5CF809174038F7BEE
:1040C000A1CF0E942A0A809174038F779BCF8091A1
:1040D0007403837F97CF809175038C7F99CF8091F4
:1040E000740382FB992790F921E0922790FB82F9D3
:1040F00090FB83F987CF80917503982F90959170ED
:104100008E7F892B90FB81F983CF90917403892F47
:104110008F7B96FF806476CF0E942A0A9091740369
:10412000892F97FB87F980586DCF81E00E94751326
:1041300080917403909175030E94E4120E942A0AF0
:1041400080E0DF91CF91089580E0F0CF90917403EB
:10415000892F8F7E94FF806155CF90917403892FB2
:104160008E7F90FF81604ECF90917503892F877F5E
:1041700093FF88604DCF81E0E4CF8FE891E0019715
:10418000F1F700C000000895CF93DF93D62F0E946F
:10419000B906C82F882341F06AE070E089EAD1119E
:1041A00001C08AEA0E94E9098C2FDF91CF9108951E
:1041B0000E94AD1808950F931F93CF93DF939091B2
:1041C000030181E0982790931503282F291B209342
:1041D000140390910301809316039091030180933F
:1041E000130380910301811106C084EF8093540171
:1041F00085EF8093530120915401E22FE295EF70F7
:10420000F0E061A12F7081E090E0AC0101C0440FAB
:104210002A95EAF7342F3095362331A322A1242B97
:1042200022A320915301E22FE295EF70F0E031A13B
:104230002F7001C0880F2A95EAF7982F9095932345
:1042400091A392A1892B82A30E94BD2060911603A5
:1042500049E153E0C4E5D1E003E511E0FA0126C0ED
:104260002991822F82958F7090E0DC0190968C913D
:1042700090E02F7002C0959587952A95E2F781709E
:10428000D8019D918D01292F22952F7030E0D90101
:1042900090962C9130E09F7002C0359527959A95A5
:1042A000E2F790E020FD92E0892B81938E2F841B12
:1042B0008617B0F2DF91CF911F910F910895B0E072
:1042C000A0E0E5E6F1E20C94EC2F10E000E082E0E3
:1042D000C82ED12C80911603181730F0802FCDB73F
:1042E000DEB7E8E00C940830C12FD0E0FE01EC5AB4
:1042F000FE4F8081E82FE295EF70F0E0E0A1F0E062
:104300008F7002C0F595E7958A95E2F7E170DE01BE
:10431000AD5ABE4F4C91A42FA295AF70B0E09096CD
:104320008C9190E04F7002C0959587954A95E2F781
:1043300080FD4DC080E08E2BDE01A75EBC4FEC916E
:104340009E2F9370981709F440C0EE0FEE0FE82BE4
:10435000EC93E0901503E10EEF70F0E0EA51FE4FB0
:10436000C95EDC4F80819881890F8883F12C82306F
:1043700084F0EE2DF0E0EF5EFC4F80818F5F808354
:104380000E94D820F82E882321F160E08E2D0E9413
:10439000C42088818F3F84F4EE2DF0E0EF5EFC4F67
:1043A0008081815080830E94D820F82E8823A1F03C
:1043B00061E08E2D0E94C4208881082E000C990B8C
:1043C000B6010E94742F88830F291F5F83CF82E07C
:1043D000B2CFFF24F394DDCFFF24F394EDCF4091CF
:1043E000160350E06091150370E06F5E7C4F0E94F1
:1043F0003E300895B0E0A0E0E0E0F2E20C94EC2F53
:104400006C01D0E080E090911303D91740F0811146
:104410000E94B213CDB7DEB7E8E00C940830F090FC
:104420001403FD0E0F2D10E00F5E1C4FF601ED0F73
:10443000F11DC081F8019081C91BEC2E1E1444F0BF
:104440009C2FC7FD90E0C91BC1110DC0DF5FDBCF02
:10445000EA94F80180818F5F808360E08F2D0E9455
:10446000C42081E0EBCFCF5FF80180818150808351
:1044700061E08F2D0E94C42081E0E6CFCF93DF93CF
:10448000EB0186319C4711F50E94B0119D81992363
:1044900099F08A7A91E009F490E090931B038111DE
:1044A00009C089E20E9462110E94221280E0DF911D
:1044B000CF91089585E3F6CF80911B03811104C04D
:1044C00089E20E946A11F0CF85E3FBCF81E0EFCF54
:1044D0000F931F93CF93DF93C42FD22FFC018581BD
:1044E0008823C9F040931E030E94412890931D0326
:1044F00080931C0380E28C0F883040F4C77081E009
:1045000001C0880FCA95EAF70E940A0ADF91CF918D
:104510001F910F91089510911E03141332C08091C2
:104520001C0390911D030E9459288639910548F576
:10453000C0E2CD0F1D17B9F080E2810F883040F442
:10454000177081E001C0880F1A95EAF70E94110ADE
:10455000C83048F481E09D2F977001C0880F9A956C
:10456000EAF70E940A0A802F0E94010AC83070F6FA
:10457000D77081E001C0880FDA95EAF70E94110A2E
:10458000C5CF80E28C0F883008F6C77081E001C08B
:10459000880FCA95EAF7F2CF0F93DB0188519C4749
:1045A00087309105A0F5FC01E952FF4C0C94C92F0E
:1045B00006E221EE41EE6AE17CE7CD010E9468222D
:1045C00080E00F91089507E225EE45EE6BE17CE770
:1045D000F4CF06E221EE40EE68E17CE7EECF07E2A1
:1045E00025EE44EE69E17CE7E8CF06E221EE42EEFB
:1045F0006CE17CE7E2CF07E225EE46EE6DE17CE779
:10460000DCCF08E221E045EE6EE17CE7D6CF1596DF
:104610008C91882319F010921E03D3CF81E0D1CF63
:1046200080935C03089580915C0308959C013A9502
:1046300021153F4478F499279C01245031092432F4
:10464000310578F02752310981E02E30310550F0E4
:1046500080E008958F3F910579F370F390E080E05A
:10466000EBCF81E008950E94162308950E94332322
:10467000882381F0E0912503F0E0EE0FFF1FEA5D53
:10468000FC4F808191818F3F2FE7920719F00196AF
:104690009183808308958F929F92AF92BF92CF9221
:1046A000DF92EF92FF92CF93C0902603D090270322
:1046B0000D2C000CEE08FF082091550130E0E6E2D9
:1046C000F3E081E090E03296281739070CF0A7C09C
:1046D000609158037091590380915A0390915B0344
:1046E0000E9468284B015C01C091550189EC881635
:1046F0009104A104B10414F18091250390E0019686
:1047000069E170E00E94742F80932503880F991F40
:10471000FC01EA5DFC4F118210828C2FC83108F039
:1047200087E18F5F809355010E944D286093580365
:104730007093590380935A0390935B0382E0C816E9
:10474000D104E104F1040CF476C0A0E6BAEEA701AE
:1047500096010E94CF2F6B017C0188ECC89F9001CD
:104760001124032E000C440B550B280D391D4A1D36
:104770005B1DA5E0B0E00E94CF2F9B01AC01C701FB
:10478000B6010E94882F69017A0181EFC816D10411
:10479000E104F1042CF080EFC82ED12CE12CF12C97
:1047A000609121037091220380912303909124034F
:1047B0000E9468284B015C0185E688169104A104DB
:1047C000B10484F00E944D2860932103709322036A
:1047D000809323039093240380915C0380932003B0
:1047E000C0921F03C0912003A0911F03AC1BBB0B01
:1047F000A50194010E94DA2F24E630E040E050E069
:104800000E94AA2FC20FC0935C03CF91FF90EF903C
:10481000DF90CF90BF90AF909F908F900895408190
:104820005181052E000C660B770BC40ED51EE61EBB
:10483000F71E019648CFCA94CD28CE28CF2841F044
:10484000109225031092550110922703109226030F
:10485000C12CD12C7601A4CF1092B9008CE08093AA
:10486000B8000895B0E0A0E0E8E3F4E20C94E92F8A
:10487000B82EEB010E9441286C01EE24E394F12C48
:10488000C431D10560F025E0E22EF12CCF3FDC07EA
:1048900031F0CE0164E170E00E94602F7B0184EA78
:1048A000A82E94E8992E1092BC00A092BC000E9401
:1048B00041288C018091BC0087FF0DC08091B90018
:1048C000887F8830F9F08091B900887F8031D1F0FD
:1048D0000FEF1FEF08C0C8010E945928E816F9061B
:1048E00048F70EEF1FEFCF3FDC07E9F2C6010E9449
:1048F0005928C817D907B8F6C801CDB7DEB7EBE01D
:104900000C940530B092BB009092BC000E944128EC
:104910008C018091BC0087FF0AC08091B900887F1C
:10492000883111F08034A1F610E000E0E5CFC80135
:104930000E945928E816F90660F7D3CF0F931F930A
:10494000CF93DF93EB018093BB0084E88093BC009E
:104950000E9441288C018091BC0087FF11C02091EA
:10496000B900287F81E090E0283211F490E080E0E7
:10497000919581959109DF91CF911F910F910895A4
:10498000CF3FDC0741F3C8010E945928C817D90757
:1049900010F78EEF9FEFEFCFB0E0A0E0E2EDF4E292
:1049A0000C94EC2F6B018A017901B9010E94322429
:1049B000E6010C0D1D1DC017D10711F097FF08C0AF
:1049C00024E92093BC00CDB7DEB7E8E00C940830B2
:1049D000B70189910E949E24EECFB0E0A0E0E3EF02
:1049E000F4E20C94EC2FC62F6A017901B8010E9401
:1049F000322497FD0CC0B8018C2F0E949E24E60142
:104A0000EC0CFD1CCE15DF0511F097FF08C024E962
:104A10002093BC00CDB7DEB7E8E00C940830B801B5
:104A200089910E949E24EECF84E98093BC00089572
:104A30008EE14A9B02C08150E1F74A9BFECF089568
:104A40005A9880E28A95F1F75A9A0895FC013BE062
:104A50003A95F1F798E020E080E031E040E14A95B6
:104A6000F1F7880F4A9B02C08160232742E04A95F4
:104A7000F1F7000040E14A95F1F7915079F790E1A4
:104A80009A95F1F799B132E03A95F1F7000040E1DB
:104A90004A95F1F792FB992790F992272081920F7E
:104AA00090830895A1E0B0E0E8E5F5E20C94EE2FE4
:104AB00019828C017C01E60EF11C0E151F0541F4D4
:104AC00081E09981911180E02196E6E00C940A3012
:104AD0000E941825CE0101960E942625F801819397
:104AE0008F01EBCF529A5A9A089552985A9AEA9A9D
:104AF000E9E6F0E080818F7C808308956150770B38
:104B000091E001C0990F6A95EAF720E031E0911138
:104B100008C0222391F05A9A80E28A95F1F75A98B8
:104B20000895492F482339F05A9A232740E24A959D
:104B3000F1F79695ECCF5A98F9CF5A98EDCFFF92AE
:104B40000F931F93CF93DF93EC018C01060F111D80
:104B5000C017D10729F4CDB7DEB7E5E00C940B30D0
:104B6000F9900E94202568E08F2D0E947E25F0CFCD
:104B70001F920F920FB60F9211240F931F932F9332
:104B80003F934F935F936F937F938F939F93AF93D5
:104B9000BF93EF93FF93CF93DF930F92CDB7DEB721
:104BA00019820E941825CE0101960E942625082F01
:104BB000069506950695282F22952570902F9570BD
:104BC000290F922F937026952695920F982797700C
:104BD0008981982B09F05CC00A3008F059C080E147
:104BE0008A95F1F75A9A529A82E08A95F1F700C0B5
:104BF0005A9888E0089F80011124D801AC5FBE4F0D
:104C00001696ED91FC9117973097A9F06091DC0111
:104C10007091DD0114962D913C911597260F371F49
:104C200011968D919C911297680F791F13964C9154
:104C300013978C910995F801EC5FFE4F6381662311
:104C400051F02091DC013091DD0184819581820F4A
:104C5000931F0E949F250E94202580E18A95F1F7ED
:104C60005A9852985A9A80E18A95F1F7F801EC5FC8
:104C7000FE4F6081662351F02091DC013091DD010F
:104C800081819281820F931F0E9452250E941825D4
:104C90000F90DF91CF91FF91EF91BF91AF919F91D5
:104CA0008F917F916F915F914F913F912F911F91C4
:104CB0000F910F900FBE0F901F9018950F931F9399
:104CC000CF93DF93EC010A970CF04CC0F894529A02
:104CD0005A9885E08A95F1F700009C2F969595707B
:104CE0008C2F8570980F892F83709695969523E069
:104CF000CC0FDD1F2A95E1F7980F8E01092B0E943A
:104D0000202500C068E0802F0E947E2580E18A95E2
:104D1000F1F752985A9A4A9B1EC087E090E04A9950
:104D20001CC0FE01EC5FFE4F63816623F9F0209109
:104D3000DC013091DD0184819581820F931F0E94F7
:104D40005225811113C0529A5A9A7894DF91CF91CB
:104D50001F910F91089500C0DECF019729F4529A58
:104D60005A9A789480E0F2CF00C0D9CF0E941825DB
:104D700080E28A95F1F75A98529A80E18A95F1F784
:104D8000CC5FDE4F6881662351F02091DC013091C9
:104D9000DD0189819A81820F931F0E949F250E94C5
:104DA0002025789481E0D2CF9093F7018093F6018B
:104DB0000895909363038093620308950E94AD1851
:104DC000811103C080915D030895E0916203F09129
:104DD0006303309729F00190F081E02D0995089543
:104DE00080E00895E0916203F0916303309721F031
:104DF0000280F381E02D09950895A3E0B0E0E3E09F
:104E0000F7E20C94F22F2091600330916103281790
:104E10003907A1F09093610380936003E0916203EE
:104E2000F0916303309751F023E029839B838A83B9
:104E30000680F781E02DCE01019609952396E2E0E8
:104E40000C940E30A3E0B0E0E8E2F7E20C94F22F0D
:104E500020915E0330915F0328173907A1F09093EA
:104E60005F0380935E03E0916203F09163033097E8
:104E700051F024E029839B838A830680F781E02D0B
:104E8000CE01019609952396E2E00C940E309C0128
:104E90002E5F3F4FAC01485F5F4F80E0241735071E
:104EA00009F40895F90191919F019923B9F38F5F56
:104EB000F5CF662349F0FC0132960896219126171A
:104EC00029F0E817F907D1F780E0089581E0089507
:104ED0009C01FC0132969FEF80E04191461751F012
:104EE0009F3F19F4411101C0982F8F5F8630A9F7B9
:104EF0009F3F09F40895290F311D97FD3A95F90157
:104F000062830895FC01329608962191261303C00E
:104F1000DF0111971C92E817F907B9F708950E946D
:104F2000682708950E9482270895029626E0FC01D2
:104F300011922A95E9F7089508950E949C270895F3
:104F4000811106C081E0809364030E949D2708952B
:104F500082E0F9CF83E0809364030E949D27089547
:104F60000E94A027089581E0809364030E949D27FA
:104F700008950E94B3270895089508950E94BD27BB
:104F80000895089508950E94BC270895CF930E9424
:104F9000C1270E942E180E94C227C0E08C2F0E94B9
:104FA0000B17811105C0CF5FCA30C1F7CF910895AB
:104FB00081E0FCCF85B7806885BF85B7806885BFF5
:104FC00008951F921FB61F9211248F939F93AF9342
:104FD000BF9380916503811113C0809194059091D6
:104FE0009505A0919605B09197054196A11DB11D1B
:104FF0008093940590939505A0939605B09397059B
:10500000BF91AF919F918F911F901FBE1F901895D8
:1050100080919C05843031F10E94C807109265038D
:1050200088E190E020E40FB6F894A89580936000A2
:105030000FBE2093600083B7817F846083BF83B7F6
:10504000816083BF7894889583B78E7F83BF0FB6C6
:10505000F894A89580916000886180936000109218
:1050600060000FBE08950E942A0A0E94CF0708958B
:1050700082E084BD93E095BD9AEF97BD80936E006A
:1050800008952FB7F8948091940590919505A0917B
:105090009605B09197052FBF08952FB7F8946091AA
:1050A00094057091950580919605909197052FBF75
:1050B00008959C014FB7F8948091940590919505BF
:1050C000A0919605B09197054FBF821B930B089551
:1050D000CF92DF92EF92FF922FB7F894C090940591
:1050E000D0909505E0909605F09097052FBFA70109
:1050F0009601261B370B480B590BCA01B901FF90CB
:10510000EF90DF90CF90089578941F921FB61F9272
:1051100011248F939F93AF93BF93809194059091A7
:105120009505A0919605B09197050196A11DB11D19
:105130008093940590939505A0939605B093970559
:10514000BF91AF919F918F911F901FBE1F90189597
:1051500087E797E7909301088093000888E19AE039
:105160000FB6F894A895809360000FBE90936000EE
:10517000FFCF88E19AE00FB6F894A895809360007D
:105180000FBE90936000FFCF80916E030895089545
:105190009B01BA0190919C059430E9F48F70809343
:1051A000E9009FEF8091E800915085FD06C085EDF4
:1051B0008A95F1F700009111F5CF8091E80085FF05
:1051C0000AC050E040E0C9010E94BB2A8091E8007B
:1051D0008E778093E800089543E050E0BC0182E0C0
:1051E0000E94C8280895CF93DF93EC0148E050E077
:1051F000BC0181E00E94C82888E0FE01A6E6B3E079
:1052000001900D928A95E1F7DF91CF9108958091F9
:105210009B05811109C00E944B2C0E94A82C8091F3
:10522000E20084608093E200089510929B05089547
:105230000E94B32708956091980581E0611101C033
:1052400080E00E94AA27089590919C0581E0943007
:1052500009F080E0609198050E94B027089542E02F
:1052600061EC81E00E94C72B42E261EC82E00E9487
:10527000C72B90919C0581E0943009F080E060910B
:1052800098050E94A027089580919E05833009F417
:1052900061C030F48130D1F1823009F49EC00895AC
:1052A0008A3009F48AC08B3009F46FC0893009F064
:1052B00050C080919D05813209F04BC08091A105BD
:1052C0009091A205029708F044C08091E800877F82
:1052D0008093E8008091E80082FF37C09091F3004E
:1052E0008091F200029731F48091F100813011F049
:1052F000863021F48091F10080936E038091E80064
:105300008B778093E8000E94FB2B23C080919D0542
:10531000813AF9F48091E800877F8093E8008091DA
:10532000A1059091A205892B61F468E086E693E0DF
:1053300070E00E940A2B8091E8008B778093E80050
:10534000089560E090E080E0F3CF80919C058111AA
:10535000C1CF089580919D05813AD9F78091A1052B
:105360009091A205892BA9F78091E800877F80930F
:10537000E8008091E80080FFFCCF80915E0180937F
:10538000F1008091E8008E77BCCF80919D0581323D
:1053900001F78091A1059091A205892BD1F680910A
:1053A000E800877F8093E8000E94FB2B80919F0597
:1053B00080935E010E942A0A089580919D058132A2
:1053C00041F68091E800877F8093E8000E94FB2BE4
:1053D0008091A00580936F03089580919D05813A87
:1053E00009F0B7CF8091E800877F8093E800809133
:1053F000E80080FFFCCF80916F03C1CF84B7877F27
:1054000084BF0FB6F894A89580916000886180935E
:105410006000109260000FBE80E890E00FB6F89434
:1054200080936100909361000FBE0E94B927089598
:105430000E944B2C0E94A82CE2EEF0E08081846058
:10544000808378940E94272F089586E591E00E943A
:10545000D926089580919C05853031F480919C0572
:10546000853019F00E94332808950E940828809101
:105470009A05882399F30E94C627882379F30E940E
:10548000A52A0E942A0AEACF08959A014091A3050D
:105490005091A4050E944D2A0895492F5527433065
:1054A000510519F168F44130510509F444C0423006
:1054B000510509F445C090E080E050E040E025C08F
:1054C0004132510549F142325105A9F780E490E09B
:1054D00049E55BE061157105C1F082E390E047E2C8
:1054E0005BE06130710589F0E6CF99278130910545
:1054F00081F0009729F00297F1F6ECEAFAE002C099
:10550000E6EDFAE0849190E0AF01F9015183408328
:105510000895EAEBFAE0F6CF89E090E04CEE5AE02D
:105520006115710591F389E090E045E05BE0613041
:10553000710559F3C0CF82E190E045E15BE0E5CF32
:105540008BE390E04AED5AE0E0CF80E189BD82E153
:1055500089BD09B400FEFDCF8091D8008F7D809376
:10556000D8008091E00082608093E0008091E000AC
:1055700081FDFCCF0895AF92BF92CF92DF92FF9250
:105580000F931F93CF93DF936C01EB018A010E946D
:105590001A2CF82E811123C00115110539F0F801DC
:1055A00080819181C81BD90BC80ED91EB12CA12CAA
:1055B0002097A9F08091E80085FD22C08091E80045
:1055C0008E778093E80001151105A1F0F801808124
:1055D0009181A80EB91EB182A08285E0F82E8F2D90
:1055E000DF91CF911F910F91FF90DF90CF90BF90EF
:1055F000AF9008950E941A2C8823D1F2F82EEFCF95
:10560000F60181916F018093F1002197FFEFAF1AAE
:10561000BF0ACECFFC018091A3059091A405861707
:105620009707A0F06115710529F49091E8009E7725
:105630009093E80090E06115710551F4911108C054
:105640008091E80082FF34C080E00895BC01F2CF71
:1056500080919C058823C1F18530C1F18091E800DB
:1056600083FD30C08091E80082FDEACF8091E800A0
:1056700080FFE1CF8091F3002091F200382F611577
:10568000710519F02830310558F091E028303105C6
:1056900009F090E02091E8002E772093E800CBCF2E
:1056A00081918093F100615071092F5F3F4FE7CFE7
:1056B00080919C05882341F0853041F08091E8007D
:1056C00083FFBECF81E0089582E0089583E00895CE
:1056D000FC018091A3059091A40586179707A0F07F
:1056E0006115710529F48091E8008E778093E800B8
:1056F00090E06115710551F4911108C08091E800A6
:1057000082FF35C080E00895BC01F2CF80919C05F6
:105710008823C9F18530C9F18091E80083FD31C04B
:105720008091E80082FDEACF8091E80080FFE1CF20
:105730008091F3002091F200382F6115710519F066
:105740002830310558F091E02830310509F090E01B
:105750008091E8008E778093E800CBCF849180938E
:10576000F1003196615071092F5F3F4FE6CF809174
:105770009C05882341F0853041F08091E80083FF4B
:10578000BDCF81E0089582E0089583E00895982FC9
:10579000973028F08F708093E90081E0089590930E
:1057A000E900242F762F50E0981731F07091EC002B
:1057B0002091ED005091F00021FD02C09F5FE8CFE5
:1057C0003091EB003E7F3093EB003091ED003D7F58
:1057D0003093ED003091EB0031603093EB0070932B
:1057E000EC002093ED005093F0002091EE0027FD97
:1057F000E5CF80E0089580919D0587FF13C08091DB
:10580000E80082FF06C08091E8008B778093E80073
:1058100004C080919C058111F2CF089580919C0570
:105820008823D9F38091E80080FFF8CF8091E800C9
:105830008E77ECCF2091E4003091E50095E6A90148
:105840002091EC00822F817020FF06C08091E8003B
:1058500080FF06C080E008952091E80022FD1AC074
:1058600080919C05882389F0853089F08091EB0038
:1058700085FD0FC02091E4003091E50042175307E9
:10588000F9F29150E1F684E0089582E0089583E012
:10589000089581E008950E94BA2C0E94C22CE0EE87
:1058A000F0E0808181608083E8EDF0E080818F7797
:1058B000808319BCA7EDB0E08C918E7F8C938081A2
:1058C0008F7E808310929B0508950F931F93CF9333
:1058D000DF930E94BA2C0E94C22CC8EDD0E08881D0
:1058E0008F77888388818068888388818F7D88838B
:1058F00019BC10929C051092980510929A0510926E
:10590000990500EE10E0F80180818B7F808388810B
:105910008160888342E060E080E00E94C72BE1EE76
:10592000F0E080818E7F8083E2EEF0E08081816014
:105930008083808188608083F80180818E7F80836E
:10594000888180618883DF91CF911F910F910895A5
:10595000E8EDF0E080818F7E8083E7EDF0E08081EC
:105960008160808384E082BF81E080939B050E94F8
:10597000652C0895E8EDF0E080818E7F80831092A1
:10598000E20008951092DA001092E10008951F924B
:105990000F920FB60F9211242F933F934F935F9363
:1059A0006F937F938F939F93AF93BF93EF93FF93E7
:1059B0008091E10082FF0BC08091E20082FF07C06E
:1059C0008091E1008B7F8093E1000E94262F8091DF
:1059D000DA0080FF19C08091D80080FF15C0809147
:1059E000DA008E7F8093DA008091D90080FF96C024
:1059F00080E189BD82E189BD09B400FEFDCF81E06F
:105A000080939C050E9407298091E10080FF19C0C6
:105A10008091E20080FF15C08091E2008E7F80932C
:105A2000E2008091E20080618093E2008091D800E2
:105A300080628093D80019BC85E080939C050E9409
:105A40001B298091E10084FF2BC08091E20084FF3C
:105A500027C080E189BD82E189BD89B5982F917009
:105A600080FFFBCF8091D8008F7D8093D8008091FC
:105A7000E1008F7E8093E1008091E2008F7E809331
:105A8000E2008091E20081608093E20080919805BD
:105A9000882309F449C084E080939C050E9424294E
:105AA0008091E10083FF29C08091E20083FF25C03F
:105AB0008091E100877F8093E10082E080939C05E4
:105AC000109298058091E1008E7F8093E100809193
:105AD000E2008E7F8093E2008091E20080618093FB
