:100000000C944A050C9467050C9467050C947025B4
:100010000C9467050C9467050C9467050C946705B0
:100020000C9467050C9467050C947F2C0C94532D4D
:100030000C9499270C9467050C9467050C9467053C
:100040000C9467050C9467050C9467050C94670580
:100050000C9467050C943C280C9467050C94670578
:100060000C9467050C9467050C9467050C94670560
:100070000C9467050C9467050C9467050C94670550
:100080000C9467050C9467050C9467050C94670540
:100090000C9467050C9467050C9467050C94670530
:1000A0000C9467050C9467050C9467050005010521
:1000B0000205030504050505000601060206030600
:1000C00004060506000701070207030704070507E2
:1000D00000080108020803080408050800090109CE
:1000E00002090309040905090000010002000300D8
:1000F00004000500000101010201030104010501E2
:1001000000020102020203020402050200030103CD
:1001100002030303040305030004010402040304AF
:1001200004040504556E6B6E6F776E004D6F64733B
:100130002026204E756D2050616400417070204370
:100140006F6E74726F6C004E617669676174696F6F
:100150006E0053796D626F6C730042617365204C61
:1001600061796572002020000A000000436D640080
:10017000416C740043746C00536674000A0057505D
:100180004D0020200020200000000000000001029F
:10019000040C1010202020283E1C20203E0F111F90
:1001A00000000000000000000000000000E09008D7
:1001B00018601008040300000000000000020E8216
:1001C0007C030000000000000000000000000000B0
:1001D000000000000000E01C02050224040402A943
:1001E0001EE0000000000000000000000000000011
:1001F00000000000290014001A0009001300050087
:100200002A0004001500160017000A002B001D002C
:100210001B000600070019000000000024522352B2
:10022000E1001409000000000000000000000000D0
:100230002F0033001C0018000F000D0028001200D2
:100240000C000800110010003400380037003600A0
:100250000B000E0000000000225221522C0043002F
:1002600000000000000000000000000020122D002F
:100270002E003712381231002A002D1233003312AB
:1002800036001E1264001F1236122112350035127C
:10029000000000000000000000000000000000005E
:1002A000000000000000000025122E12370030125E
:1002B0002F12231228003112341227122612340072
:1002C00024122014380030002F00221200000000F9
:1002D000000000000000000000000000000000001E
:1002E0000000000000005018511852184F1800006C
:1002F00000005014511452144F14000000002A083A
:100300002A044C040E010000000000000000000060
:10031000E1000000000000000000000000000000FC
:100320000000450044003B003A00000000004F0080
:1003300052005100500000000000430027182E1802
:100340002D18000000000000000000000000000068
:100350000000000000000000000000001D081E0F4B
:100360001F0F200F210F2808060135071D071B0D41
:10037000060D2C0D1D0A350F1D0F1B0506052B0C38
:1003800000000000000000002C0800000000000039
:10039000000000000000000000000000000000005D
:1003A000000000000000000000000000000000004D
:1003B000000000000000000000000000000000003D
:1003C000000000000000000000000000000000002D
:1003D000000000000000000000000000000000001D
:1003E0002A00A252A152A452A852AF52000000000B
:1003F00000000000000000000000000000000000FD
:1004000000000000000000000000000000000000EC
:1004100000005600610060005F00540000005700BB
:100420005E005D005C00550000002B005B005A0080
:100430005900670000000000630062002C0000000B
:1004400000AE00AF00DA0281FFD9F1DB20A4A62EB6
:10045000AF00A0C0D30000A1C8D30000AED580A8D3
:100460001F408D14200007087F0807003E5B4F5B8C
:100470003E003E6B4F6B3E001C3E7C3E1C00183C19
:100480007E3C18001C577D571C001C5E7F5E1C00C4
:1004900000183C180000FFE7C3E7FF00001824180D
:1004A0000000FFE7DBE7FF0030483A060E00262990
:1004B00079292600407F05050700407F05253F007C
:1004C0005A3CE73C5A007F3E1C1C0800081C1C3E9E
:1004D0007F0014227F2214005F5F005F5F00060927
:1004E0007F017F00006689956A006060606060003F
:1004F00094A2FFA2940008047E04080010207E202D
:10050000100008082A1C0800081C2A0808001E10F1
:10051000101010000C1E0C1E0C0030383E3830003D
:10052000060E3E0E060000000000000000005F0006
:100530000000000700070000147F147F1400242A25
:100540007F2A1200231308646200364956205000A7
:10055000000807030000001C224100000041221C8B
:1005600000002A1C7F1C2A0008083E0808000080A2
:1005700070300000080808080800000060600000F3
:100580002010080402003E5149453E0000427F40D1
:1005900000007249494946002141494D3300181471
:1005A000127F10002745454539003C4A4949310032
:1005B0004121110907003649494936004649492970
:1005C0001E0000001400000000403400000000087D
:1005D00014224100141414141400004122140800C1
:1005E0000201590906003E415D594E007C1211126C
:1005F0007C007F49494936003E41414122007F410C
:1006000041413E007F49494941007F0909090100F4
:100610003E41415173007F0808087F0000417F413F
:1006200000002040413F01007F08142241007F402C
:10063000404040007F021C027F007F0408107F00C2
:100640003E4141413E007F09090906003E415121DA
:100650005E007F09192946002649494932000301F5
:100660007F0103003F4040403F001F2040201F000B
:100670003F4038403F0063140814630003047804CB
:1006800003006159494D4300007F4141410002048C
:1006900008102000004141417F00040201020400D3
:1006A00040404040400000030708000020545478B8
:1006B00040007F28444438003844444428003844EB
:1006C00044287F0038545454180000087E09020062
:1006D00018A4A49C78007F080404780000447D409E
:1006E00000002040403D00007F10284400000041F1
:1006F0007F4000007C04780478007C0804047800C3
:10070000384444443800FC182424180018242418C1
:10071000FC007C08040408004854545424000404D9
:100720003F4424003C4040207C001C2040201C0012
:100730003C4030403C004428102844004C909090AD
:100740007C004464544C4400000836410000000022
:100750007700000000413608000002010204020098
:100760003C2623263C00000000000000404040F0F2
:10077000F8F8FF38FFF8F83FF8F8FF38FFF8F8F01E
:1007800040404000000000000080C0C0C080000069
:10079000C0C08000000080C0C000C0C0000080C099
:1007A000C00000000000C0C0C0C0C000C0C0000049
:1007B0000000000000000000000000000000000039
:1007C0000000000000000000000000000000000029
:1007D0000000000000000000000000000000000019
:1007E0000000000000C0F0F8FC3E1E060100000002
:1007F0007F4141417F007F4141417F000080C0E057
:100800007E5B4F5BFEC00000C000DCD7DEDEDED7C3
:10081000DC00C0000000000000000000000000003C
:10082000000000000000000000000000494949FFEE
:10083000FFFFFFE0DFBFBF00BFBFDFE0FFFFFFFF45
:1008400049494900000000001F3F6060E0BF1F00F1
:100850007F7F071E381E077F7F007F7F0E1F3B7143
:100860006000000000007F7F0C0C0C007E7E007F8B
:100870007E0303007F7E03037E7E03037F7E000FE3
:100880003E703C063C703E0F00327B49493F7E0083
:100890007F7E0303001E3F69696F26000000000091
:1008A0000000000000030F1F3F3C78706000000054
:1008B0007F4141417F007F4141417F00307B7F7814
:1008C00030202030787F3B0003000F7F0F0F0F7F19
:1008D0000F00030000000000000000000000000006
:1008E00000000000000000000000000001010107FE
:1008F0000F0F7F0F7F0F0F7E0F0F7F0F7F0F0F07E1
:1009000001010100000000000000000000010100E2
:1009100000000000000000000000000000000000D7
:1009200000000000000000000000000000000000C7
:1009300000000000000000000000000000000000B7
:1009400000000000000000000000000000000000A7
:100950000000000000000000000000000000000097
:100960000000000000000000000000000000000087
:100970000000000000000000000000000000000077
:100980000000000000000000000000000000000067
:100990000000000000000000000000000000000057
:1009A0000000000000000C0353006F0066006C00A4
:1009B000650000001A034A006F00730065006600BE
:1009C0004100640061006D00630069006B0000007D
:1009D0000403090409023B00020100A0FA09040013
:1009E000000103010100092111010001224000075B
:1009F000058103080001090401000103000000094A
:100A0000211101000122320007058203200001129A
:100A10000100020000000832FC8702010001020010
:100A20000105010980A101850319012AB7001501FB
:100A300026B700950175108100C0050C0901A101C0
:100A4000850419012AA002150126A002950175103E
:100A50008100C005010906A101050719E029E71574
:100A60000025019508750181029501750881010530
:100A700007190029FF150026FF009506750881005B
:100A80000508190129059505750191029501750360
:100A90009101C00011241FBECFEFDAE0DEBFCDBF51
:100AA00011E0A0E0B1E0E2E3F1E602C005900D92B2
:100AB000A63FB107D9F725E0A6EFB1E001C01D922E
:100AC000A53AB207E1F70E94D91B0C9451300C945F
:100AD00000001F93CF93DF93EC01162F60E088E6B0
:100AE00091E00E94EC1D60E085E691E00E94EC1D23
:100AF000612FCE010E94EC1DDF91CF911F910895CF
:100B00000E946B18882311F083E0089582E0089515
:100B1000CF93DF930E946B18882309F461C00E9471
:100B20004C1C0E94CB22C82F60E085E891E00E9417
:100B3000EC1D60E38C2F0E94DB0760E00E94AA1D81
:100B400060E082E891E00E94EC1D60E08EE791E0B9
:100B50000E94EC1D0E946411C82F0E949011D82F92
:100B600060E08CE791E00E94FE1DCD2B8C2F8272FD
:100B700061E009F460E088E791E00E94690561E0C6
:100B80008C2F817109F460E084E791E00E9469058F
:100B900061E08C2F847409F460E080E791E00E94AA
:100BA0006905C87861E009F460E08CE691E00E9494
:100BB000690560E08BE691E00E94690560E08AE6E5
:100BC00091E00E946905CAE041E062E28C2F0E9438
:100BD000B01DCF5FC132C1F780E0DF91CF910895A2
:100BE0000E944C1C60E080E00E94AD1C60E270E05E
:100BF00088EC91E00E94041E61E080E00E94AD1C40
:100C000060E270E088EA91E00E94041E62E080E009
:100C10000E94AD1C60E270E088E891E00E94041E32
:100C200061E086E00E94AD1C80912F02909130021D
:100C30000E94F8078230D9F040F4882371F08130A7
:100C400091F060E084E291E00BC08330A1F0843049
:100C5000C1F760E08CE291E003C060E08AE591E0DA
:100C60000E94EC1DB9CF60E082E591E0F9CF60E031
:100C700087E491E0F5CF60E08BE391E0F1CFCF9393
:100C8000DF93899729F0C1E08C2FDF91CF910895F0
:100C9000FB0185818823B9F30E949011D82F882306
:100CA00059F00E942B11C82F811106C00E94D61145
:100CB0008D2F0E94C009E8CF0E942811C82F8823D9
:100CC00011F30E9497118C2F0E94C009C0E0DCCF65
:100CD000CF93C62F811107C08BE3611109C08AE34E
:100CE0000E94B00908C0813059F4662339F089EABE
:100CF0000E94B009C0E08C2FCF9108958AEAF0CF0E
:100D0000C1E0F9CF8530B8F46A30A8F4463098F4E1
:100D100050E096E0699F400D511D1124FA019CE3BB
:100D2000899FE00DF11D1124EE0FFF1FE851FE4FCA
:100D300085919491089581E090E008950E94820643
:100D4000089581E008950E94A106089581E0089524
:100D50000E943F06089508950E94AB060895A6E0FC
:100D6000B0E0E5EBF6E00C94A92F49835A839E830B
:100D700030910A0289819A8131111AC03E81332350
:100D800099F0222389F00E94F50D182F682F898190
:100D90009A810E94D10D69817A81812F0E946A1502
:100DA0002696E3E00C94C52F0E94E30D182FF3CF95
:100DB0000E94F50D69817A81F1CFFC01262F4081D7
:100DC000518162817381848195810E94AF0608956B
:100DD000CF93DF93EC0161E00E94DD06BE010E942B
:100DE000A306DF91CF910895CF93DF93EC0160E0EC
:100DF0000E94DD06BE010E94AC06DF91CF910895EE
:100E000008950E94D9090E9400072FEF84E39CE017
:100E1000215080409040E1F700C0000008950E94FA
:100E200001070E94602808950E9401070E9471280E
:100E300008950F931F93CF93DF938C0161E00E947D
:100E4000DD06EC01F8018581882319F0CE010E94AE
:100E5000EE22B801CE010E94A806811106C080E0F2
:100E6000DF91CF911F910F910895B801CE010E949B
:100E700084228823A1F3B801CE010E949F1F8823FA
:100E800071F3B801CE010E94F621882341F3F801E5
:100E90008581882361F0C330FCE7DF07E9F058F46F
:100EA000C115ECE7DE07A9F0C130DC47B9F0C80195
:100EB0000E94A606D5CFCB358CE7D807A9F0CC3554
:100EC000ECE7DE0771F0CA35DC4789F70E9479123A
:100ED000EECF0E940F07C3CF0E9481120E94140719
:100EE000BECF0E946F12E3CF0E947D12E0CF0E941E
:100EF00076270E9439080E94491F08950E943D08E4
:100F00000E947B2708952F923F924F925F926F929B
:100F10007F928F929F92AF92BF92CF92DF92EF9289
:100F2000FF920F93CF93DF931C0129013A016B01CC
:100F300081E0C81AD108E101CC0DDD1D1882F12C29
:100F4000E12C8AE0882E912CA12CB12CEC14FD040C
:100F500098F0C101DF91CF910F91FF90EF90DF905A
:100F6000CF90BF90AF909F908F907F906F905F9049
:100F70004F903F902F900895C301B201A5019401B5
:100F80000E94402F605D603319F4E114F10431F0E8
:100F9000411451046104710409F4602F6A93C30180
:100FA000B201A50194010E94402F29013A018FEF5F
:100FB000E81AF80ACBCF0F9390910001981304C060
:100FC0009091FC01961789F0809300016093FC01D9
:100FD000282F30E050E040E0062F64E070E088EF1A
:100FE00091E00E9483070F91089588EF91E0FBCF75
:100FF000292F332740E02115310511F0C90148E0C0
:101000009C0164E0369527956A95E1F72115310535
:1010100011F04C5FC9019C013695279536952795AF
:101020002115310511F04E5FC90196958795892BE1
:1010300009F04F5F842F0895089581E00895089581
:10104000CF93DF93D82F0E941D08C82F882319F053
:101050008D2F0E941F088C2FDF91CF910895089546
:10106000CF93C82F0E941C088C2F0E942008CF917C
:10107000089580E00E94300808950E9496260E94FC
:1010800030080895CF930E949626C82F8091FD01C5
:101090008C1779F0C093FD010E9405286093FE0132
:1010A0007093FF0180930002909301028C2F0E94A5
:1010B0003008CF910895442319F080910C020895CF
:1010C0009C0143E0369527954A95E1F7620F731F1F
:1010D0008770992721E030E001C0220F8A95EAF756
:1010E000FB019081922381E009F480E00895FC01E6
:1010F000E770FF2721E030E001C0220FEA95EAF710
:1011000033E0969587953A95E1F7FB01E80FF91FD3
:101110008081442319F0282B2083089520952823CB
:10112000FBCF0F931F93CF93DF938C01DC011496B9
:101130008C911497813071F511968C9111978A30AA
:1011400048F5CC91C63030F5D0E0B6E08B9FC00DAD
:10115000D11D1124F801458162E072E0CE010E94A8
:101160005B0840E0882389F0CE01880F991FFC01BD
:10117000E355FF4FE491D8011196EC931197FC01D0
:10118000E455FF4FE491EC9341E062E072E0CE0160
:101190000E947708DF91CF911F910F910895ADE0E4
:1011A000B0E0E5EDF8E00C94AA2F488759876A87EC
:1011B0007B878C879D87882349F080910D029091D1
:1011C0000E02019690930E0280930D028D8581117F
:1011D0000E948D118C85882321F0CE0108960E94F3
:1011E00091081F8286E0FE013896DE01119601907B
:1011F0000D928A95E1F78D8181110DC029813A8187
:101200004B815C816D817E818F810E948C102D9637
:10121000E2E00C94C62FCE0101960E94E8068111EF
:10122000EDCFF5CFCF93FC01C481C13089F480812B
:1012300091810E94270E92959F70963049F4863FC7
:1012400039F080910C028C2780930C02C0930B0222
:10125000CF910895CF93C82F8823B9F08CEF8C0FCE
:10126000813AA8F46C2F80910101909102010E94B3
:101270001127882329F08C2F0E9419110E94E01158
:101280008C2F0E9411110E94E011CF91089580E2ED
:101290008C0F883048F4C77081E001C0880FCA9570
:1012A000EAF70E946711EFCFEBE5EC0FE33040F473
:1012B000F0E0EB56FE4F808190E00E94B526E5CF2E
:1012C000C85ACB3110F7EC2FF0E0EE0FFF1FE15AB8
:1012D000FE4F808191810E94DA26D7CF882339F191
:1012E0009CEF980F913A28F40E9419110E94E01186
:1012F000089590E2980F983050F4877091E001C003
:10130000990F8A95EAF7892F0E946D11EFCF9BE51F
:10131000980F933028F490E080E00E94B52608955D
:10132000885A8B3120F490E080E00E94DA260895FC
:101330001F93CF93DF93182FEB010E942A09209768
:1013400039F4812F0E946E09DF91CF911F9108958A
:101350008FE99FE00197F1F700C000002197EFCFE0
:101360006AE070E0893311F460E570E00E9498094A
:101370000895882321F00E9467110E94E0110895CA
:10138000882321F00E946D110E94E011089590E0E1
:1013900080E00E94B52690E080E00E94DA260E945C
:1013A0008D110E94E01108950E9421110E94C70929
:1013B00008950E9477110E94D409089592959F7014
:1013C000963091F058F4925F9F70923058F4803FBD
:1013D00019F030F4883E30F481E008959A5FF4CF3C
:1013E000843FD1F380E00895883EB0F3813FD1F788
:1013F000F3CFFC012481222339F0808191810E9466
:10140000270E0E94DE09089580E00895B0E0A0E074
:10141000ECE0FAE00C94A32F6C01C62F172FFC010F
:10142000D581068102950F700E945D11E82E8823F8
:1014300001F1DD2361F1812F807F803471F090E232
:101440009C0F983020F1011104C0912F907E9032B2
:10145000F1F0803611F4C63FD1F08091750382FF20
:1014600016C082E00E9443120E945D1191E0E82EB6
:10147000E926B12EB2942FE0B222FBE0FB1508F46E
:1014800067C0EB2DF0E0ED5AFF4C0C94812FE12C5E
:10149000F0CF212F2F70F22E812F807F19F0F29440
:1014A00090EFF922DD2399F0FF2059F080E28C0FB4
:1014B000883010F0C11107C08F2D0E9467110E9463
:1014C000E0118C2F3DC08F2D0E947D11F8CF8C2F05
:1014D0000E946E09FF20E1F180E28C0F883010F04D
:1014E000C11104C08F2D0E946D1103C08F2D0E9469
:1014F00083110E94E0112CC0312F3F70F32E812FF9
:10150000807F803219F0F29480EFF822CC2351F0E2
:10151000C13009F465C0DD2309F46FC0002309F46C
:1015200049C0CFCF8091750382FD40C0DD2359F0C3
:10153000FF2029F08F2D0E9467110E94E01180E0AA
:101540000E942A0905C080E00E946E09F110CACFEE
:101550002B2D2850330B2430310520F40E94962681
:101560000E9430088C2F912F0E94DE098111BEC18C
:1015700010920E0210920D02D111C0C1EE2089F01E
:101580000E94331180FD0DC0F60115820E942D11BD
:101590000E942F0DC6010E94B00C0E942D110E94C6
:1015A0003F0DCDB7DEB7E9E00C94BF2FDD2361F02E
:1015B000011104C08F2D0E94B909CACF013041F634
:1015C0008F2D0E94B111C4CF0111C2CF8F2D0E9467
:1015D000C0098F2D0E94BD118F2D0E94A111B8CF7F
:1015E000DD2321F0063008F0B3CFE4CF053008F05A
:1015F000AFCF8F2D0E94C009ABCF0023D1F3C933E9
:1016000009F00BC18FEF97EEE3E081509040E0408E
:10161000E1F700C000008C2F0E946E0999CF812F46
:1016200086958695837069F0813009F091CF8C2F73
:10163000912F9370D11102C080E090E00E94DA26D1
:1016400087CF8C2F912F9370D11102C080E090E052
:101650000E94B5267DCF812F8370A9F5D11178CF57
:101660002C2F229526952770220F220F4C2F4F707A
:1016700050E0022E02C0440F551F0A94E2F790E09A
:1016800080E0C4FF09C08FE090E002C0880F991F7E
:101690002A95E2F780959095212F2695269523701F
:1016A000842B952B223049F058F4213019F00E94F8
:1016B000FF0C4ECF0E94F60C4BCF0E94080D48CF76
:1016C0000E94F30C45CF8695DD2311F0812F8170A8
:1016D000882309F43DCF2C2F229526952770220FC1
:1016E000220F4C2F4F7050E0022E02C0440F551FA6
:1016F0000A94E2F790E080E0C4FF09C08FE090E038
:1017000002C0880F991F2A95E2F780959095212FA6
:10171000269526952370842B952B223049F058F47A
:10172000213019F00E946A0D13CF0E94610D10CF75
:101730000E94730D0DCF0E94170D0ACF912F9F703D
:10174000F92EDD2329F0892F0E942F0D8C2F33CF06
:101750008C2F0E94C0098F2D0E943F0DF9CEC23FF1
:1017600041F160F4C03FB9F0C13F81F0DD2309F4DD
:1017700048C00111A6CE812F8F711FC0C33F01F158
:10178000C43FA1F78091750382FD24C0812F8F7122
:10179000DD2311F312C0DD2341F0053008F0D8CE6F
:1017A000812F8F710E94510DD3CE063008F0D0CE1C
:1017B000F7CF812F8F71D111CFCF0E942F0DC8CEBF
:1017C000DD2329F0812F8F710E94230DC1CE0E944D
:1017D0001E0DBECEDD2359F0E12FEF71FE2E8E2FB0
:1017E0000E942F0D63E08F2D0E942512B1CE81E063
:1017F0000E944312023008F4ABCE82E00E944312F2
:10180000A7CE002379F0C93341F4FFEF27EE33E090
:10181000F15020403040E1F7FCCE8FE39CE9019786
:10182000F1F7F7CE812F8F7197CFE0E1EC0FE73022
:1018300090F5F0E0E15AFF4C0C94812FDD2309F480
:1018400087CE80910C0291E0892780930C0280CE94
:10185000D0930C027DCE81E08D27F7CF81E0DD2390
:10186000A1F376CED11174CE10920C0271CEDD238D
:1018700019F00E9437116CCE0E94431169CEDD230E
:1018800039F080910B028823E1F210920B0260CEB6
:101890000530B8F25DCE80910B020023D9F0882389
:1018A00041F080910C0291E0892780930C02109204
:1018B0000B02D11106CEEFE3FCE93197F1F700C03E
:1018C00000008C2F0E946E0987E0F60111928A9524
:1018D000E9F73ECE882309F43BCED11139CE809171
:1018E0000C0291E0892780930C02CFCFDD2379F0A1
:1018F000002321F010920E0210920D02107F10367C
:1019000019F4C63F09F43ACE0E94501137CE002395
:1019100029F010920E0210920D0230CE80910D022D
:1019200090910E020297A9F78C2F0E94B009F1CF77
:101930000F931F93CF93DF93EC01688179818D81A1
:101940000E94320E8C010E947C0D0E94F20CB801A4
:10195000CE010E94060ADF91CF911F910F91089549
:10196000CF93DF93EC018C81882399F0CE010E9404
:101970001907811111C00E945D11882351F08D81DA
:10198000882339F08091750382FF03C082E00E94B2
:101990004312DF91CF910895CE010E94980CCE01A1
:1019A0000E94F406F6CFA6E0B0E0E9EDFCE00C946E
:1019B000AA2F2696E2E00C94C62FA7E0B0E0E3EE53
:1019C000FCE00C94AA2F2796E2E00C94C62F089511
:1019D0000E94E70C08950E94E80C909332028093D5
:1019E0003102089508950E94EB0C08952091310270
:1019F00030913202822B932B0E94EB0C08952091A0
:101A0000310230913202822393230E94EB0C08951D
:101A10002091310230913202822793270E94EB0CF1
:101A200008950E94E70C08950E94110D08950E94E8
:101A3000140D9093300280932F02089590E080E07F
:101A40000E94170D089521E030E0A90102C0440F63
:101A5000551F8A95E2F7CA010E94170D089521E0EB
:101A600030E002C0220F331F8A95E2F780912F02E7
:101A700090913002822B932B0E94170D089521E044
:101A800030E002C0220F331F8A95E2F7209530958F
:101A900080912F0290913002822393230E94170D90
:101AA000089521E030E002C0220F331F8A95E2F74B
:101AB00080912F0290913002822793270E94170D68
:101AC000089520912F0230913002822B932B0E9497
:101AD000170D089520912F02309130028223932315
:101AE0000E94170D089520912F0230913002822715
:101AF00093270E94170D08950895262F277091E0CF
:101B000001C0990F2A95EAF723E0769567952A9503
:101B1000E1F7660F771F660F771FFA01E60FF71FD1
:101B200050E040E0682F70E08191DF0111979B0148
:101B3000042E02C0369527950A94E2F7217021956C
:101B40002827292328272C934F5F5F4F44305105C6
:101B500059F70895A82FA77023E0969587952A95A1
:101B6000E1F7880F991F880F991FFB01E80FF91FF4
:101B700050E040E080E0219130E00A2E02C036952E
:101B800027950A94E2F721703327042E01C0220F13
:101B90000A94EAF7822B4F5F5F4F4430510559F7A3
:101BA0000895262F9A3070F4863060F4682F70E024
:101BB00086E0989F600D711D11244FE052E0822F46
:101BC0000E947D0D0895292F9A3068F4863058F4CC
:101BD00090E06FE072E036E0239F800D911D1124AC
:101BE0000E94AA0D089580E00895B0E0A0E0EBEF18
:101BF000FDE00C94A32F7C0100912F021091300284
:101C00008091310290913202082B192BCFE0D0E065
:101C1000CC24C394D12CBC2EC6010C2E02C0880F3C
:101C2000991F0A94E2F780239123892B49F4219785
:101C300090F7B12C8B2DCDB7DEB7E9E00C94BF2F18
:101C4000B7018C2F0E947615019789F3F3CFCF93BC
:101C5000DF93EC010E94F50DBE010E947615DF9125
:101C6000CF9108951F93CF93DF93EB0190910A02D8
:101C7000992339F0CB010E94270EDF91CF911F915C
:101C80000895882369F0CB010E94F50D182F682F65
:101C9000CE010E94D10DBE01812F0E947615EDCF9D
:101CA000CB010E94E30D182FF6CF1F93CF93DF9344
:101CB000C091330217E0809134028C1304C0DF918D
:101CC000CF911F910895D0E01C9FF0011D9FF00D52
:101CD0001124EB5CFD4F208131814281538164816D
:101CE000758186810E94DD0C2196C770E4CF20911A
:101CF0006D0230916E0240916F02509170026091BE
:101D0000710270917202809173020E94DD0C08953D
:101D1000CF93DF9380917302807F09F04DC0809153
:101D20007202882309F448C0E091330250913402D2
:101D3000C0916E02D0916D0260916F02709170023D
:101D400047E05E17C9F18E2F90E0E49FF001112467
:101D5000EB5CFD4F2481222391F1489FF001499FC4
:101D6000F00D1124DF01AB5CBD4F11962C91119742
:101D70002C1325C02C912D1322C015962C9115974C
:101D800021111DC012962D913C91261B370B283C2A
:101D90003105A8F4809173028F7080618093730283
:101DA000E55CFD4F80818F70806180838DE692E0DD
:101DB0000E94B00C0E94550EDF91CF910895FC0156
:101DC0003196E770BECF482F2091330290913402B4
:101DD00057E0291302C080E0089530E0529FF001DF
:101DE000539FF00D1124EB5CFD4F8181681306C0F9
:101DF0008081481303C085818111EECF2F5F3F4F53
:101E00002770E7CFA4E1B0E0E8E0FFE00C94A02F5A
:101E10008C0186E0F801DE011F9601900D928A95F3
:101E2000E1F7F8018481E5809DE6A92E92E0B92EC4
:101E30009091710291111FC08823D1F0EE20A9F07A
:101E4000C8010E94F909F82E882379F087E0F8018B
:101E5000D50101900D928A95E1F7C5010E94120902
:101E60000E94880E0E94770E5FC0C8010E94B00CCD
:101E7000FF24F39459C0C080D18082809380F09079
:101E8000720220916F0230917002A401421B530B29
:101E9000FF2009F4F9C0483C510508F0A7C0882389
:101EA00009F442C090916E0280917302282F207F26
:101EB00009F05CC09D1116C090916D02C91212C04C
:101EC000E1104EC08F708061809373020E94770E84
:101ED0008DE692E00E94B00C80917302F801868337
:101EE000F12C22C0E1103CC06D2D8C2D0E94E30E20
:101EF0006D2D8C2D0E94E30EE82E8111F1CFCF863F
:101F0000D88A8F8598890E94270E292F22952F70B5
:101F1000243078F49F702230A8F09923B9F0F801AA
:101F20009681907F99F4FE2C8F2D6496ECE00C94B2
:101F3000BC2F2A5F2F70223068F0C8010E94B00CBD
:101F4000EF2CF1CF992311F0882369F3805E88305C
:101F500050F3F3CF803F38F3815F833070F7E3CFE6
:101F600080917302816080937302BACF9D1113C078
:101F700090916D02C9120FC0E1100DC08683C80197
:101F80000E94B00C87E0F801ADE6B2E001900D923E
:101F90008A95E1F767CFC8010E94F909882309F4FF
:101FA00064CFEE2009F461CF80917302803288F013
:101FB00020916D0230916E02398728879B868A8630
:101FC000909171029C871D868E87CE0108960E9493
:101FD000B00C87E0F801ADE6B2E001900D928A9571
:101FE000E1F70E94880E0E94770E42CF9091730213
:101FF000292F207FA1F4682D9A8A898AA6017A89DF
:102000009E2D0E94D30C8DE692E00E94B00C87E0DA
:10201000F50111928A95E9F70E94770E61CF882326
:1020200009F482CF80916E028D1110C080916D02F3
:10203000C8120CC0E1100AC09683C8010E94B00CFF
:1020400087E0F50111928A95E9F76ECFC8010E94E9
:10205000F909882309F409CFEE2009F406CF80910D
:102060007302803208F4B5CF20916D0230916E0278
:102070003A8329839C828B82909171029D831E8278
:102080008F83CE010196A3CF483C5105B8F5882334
:1020900009F4EECEFE2CEE2009F4E7CE80916E021C
:1020A0008D111EC080916D02C8121AC080917302FA
:1020B00080FD0DC0982F907F51F08683903F09F4EA
:1020C0005ECF982F907F905F8F70892B57CF87E0DE
:1020D000F801ADE6B2E001900D928A95E1F724CFC8
:1020E000C8010E94F909811174CF80917302816047
:1020F00080937302C8010E94B00C16CF682D9A8A93
:10210000898AA6017A899E2D0E94D30C87E0F50169
:1021100011928A95E9F7A6CEAEE0B0E0E2E9F0E1EF
:102120000C94A92F288739874A875B876C877D871E
:102130008E87CE0108960E94020F8823B1F06C852D
:10214000662341F0288539854A855B857D858E85A6
:102150000E94DD0C17E080913302909134028913C4
:102160003DC02E96E3E00C94C52F87E0FE01389623
:10217000DE01119601900D928A95E1F78C858823F6
:1021800049F32091340230E0C90101968770992704
:10219000409133024817190699F097E0929FD001B9
:1021A000939FB00D1124AB5CBD4FFE0131960190A1
:1021B0000D929A95E1F7809334020E94550ECACF92
:1021C0000E94D909109234021092330287E0EDE6A2
:1021D000F2E0DF011D928A95E9F7BCCF819FC00133
:1021E00011248B5C9D4F0E94020F882309F4B9CF04
:1021F000E09133021E9FF0011124EB5CFD4F208122
:102200003181428153816481758186810E94DD0C18
:102210008091330290E00196877099278093330272
:102220009ACF682F80910101909102010E94472767
:102230000895682F80910101909102010E944A2720
:10224000089580910101909102010E944D27089507
:1022500080917E02089580E0089580917D028695A8
:1022600086958695089580917D028770089582E015
:1022700080937C0281E080930C02089510927C028E
:1022800010920C02089580917C02823021F481E04A
:1022900080937C020895833011F40E943E110895CA
:1022A00080917C02823021F483E080937C02089547
:1022B000813011F40E943E11089590917D02977033
:1022C00081E009F480E00895809189020895909159
:1022D0008902892B809389020895809590918902C3
:1022E000982390938902089580938902089510920B
:1022F0008902089580918802089590918802892B1F
:1023000080938802089580959091880298239093F5
:102310008802089580938802089510928802089593
:1023200080917F02089508950E94931108958091ED
:102330007E02882329F010927E0280E00E94941190
:10234000089590917E02292F282331F080958923CA
:1023500080937E020E949411089508950E94AD1109
:10236000089590917F02292F2823281729F0982B70
:1023700090937F020E94AE11089590917F02292FC1
:10238000282331F08095892380937F020E94AE112B
:1023900008959091750392FF08C090917F0298175D
:1023A00021F080937F020E94AE11089580917F02F8
:1023B000882329F010927F0280E00E94AE110895D8
:1023C000CF93DF93E0910101F091020180918902A6
:1023D0008083E0910101F091020180819091880257
:1023E000892B808390917F02992381F0E0910101F4
:1023F000F09102018081892B80838091010190916D
:1024000002010E94FF2681110E94D611C091010194
:10241000D091020148E050E064E772E0CE010E94F2
:10242000E92F892B59F088E0FE01A4E7B2E0019082
:102430000D928A95E1F7CE010E94AA26DF91CF91F5
:10244000089508950E94211208959091750392FFB6
:1024500011C098E0899F90011124622B60937D0246
:102460000E942F0D80917D028695869586950E940B
:10247000221208950E942F0D089510927D0280E08F
:102480000E942212089590917D0280958923809365
:102490007D02282F277069F4891759F090917503F0
:1024A00092FF07C08695869586950E943F0D0E94F3
:1024B0003D1208959091750392FB222720F9281769
:1024C00069F080FB92F99093750380917403909169
:1024D00075030E94A21282E00E9443120895809127
:1024E000750382FB882780F991E089270E945A12A0
:1024F000089581E00E945A12089580E00E945A12C5
:1025000008956FEF7FEF90E080E00E943B300895E8
:1025100090E080E00E94073021E0863E9E4F09F067
:1025200020E0822F089582E090E00E94FF2F08951E
:1025300083E090E00E94FF2F089584E090E00E94E5
:1025400007300895BC0184E090E00E943B3008957C
:10255000AB01BC018FE090E00E942F300895AB01E9
:10256000BC0183E190E00E942F30089560E070E0AC
:10257000CB010E94AF12089560E070E0CB010E9491
:10258000A8120E94B6120895A8E0B0E0EAECF2E1C9
:102590000C94AA2F66EE7EEF90E080E00E943B3024
:1025A00060E082E090E00E941D3060E083E090E017
:1025B0000E941D30109232021092310260E074E1EC
:1025C00084E090E00E943B3060E086E090E00E9472
:1025D0001D306FEF87E090E00E941D3040E050E03A
:1025E000BA0188E090E00E942F3060E084E290E041
:1025F0000E941D3060E087E190E00E941D3060E0A5
:102600008CE090E00E941D3060E08DE090E00E9440
:102610001D3019821A821B821C821D821E821F821B
:10262000188648E050E068E170E0CE0101960E9413
:102630000D3040E050E0BA0180E290E00E942F307F
:102640000E94BC122896E2E00C94C62F0E94C4128D
:1026500008958EE090E00E94FF2F91E0811101C06B
:1026600090E0892F0895682F8EE090E00E941D3041
:102670000895A6E0B0E0EFE3F3E10C94A82F0E94E8
:10268000F9278C0180918A0290918B028017910723
:1026900081F019821A820E94F927682F49815A8194
:1026A000792F80E090E00E94CF0810938B02009376
:1026B0008A022696E4E00C94C42F0E94861660934A
:1026C0009E0270939F028093A0029093A102609358
:1026D0009A0270939B0280939C0290939D020895AE
:1026E0000E94861660939E0270939F028093A002C0
:1026F0009093A10260939602709397028093980240
:10270000909399020895089508950E94841308955E
:1027100008950E948813089581E0089580EA96E163
:102720000E948C260E9483130E94851308950E94A4
:102730006B180895089508950E949A130E949B13A0
:1027400008950E94A3160E942F0808950E94F02762
:102750000E9460160E9483180E9499200E94C91747
:102760000E94A1130E94E61B80E00E94611C0E944F
:1027700093180E94891308950E946B1881110E947A
:1027800003230895A6E0B0E0E8ECF3E10C94A02F59
:102790000E948C13C82E811111C00E943913C12CC4
:1027A0000E94BC130E941D21882309F45DC00E9471
:1027B00070130E94671F0E94441E5AC00E94EC17AB
:1027C0008CE8A82E82E0B82E750110E0F701019187
:1027D0007F01812F0E94C9161F5F1A3009F441C082
:1027E0000817A1F38091A20281FD0E94CF160E94DA
:1027F0009713982E10E088248394812F0E94C91685
:10280000082FF50181915F01081729F1D02ED826F4
:10281000F12CEE24E3948D2D8E21A9F0992099F0CE
:10282000F9821A830E94F9279C838B838D8291E021
:10283000802F8E2109F490E049815A816B817C813F
:102840008D810E94CF08F394EE0CF6E0FF12E3CFE7
:10285000F501319700831F5F1A3079F60E945D13EE
:102860009FCF0813BFCF99CF0E94671FC110A3CF7E
:102870000E9442082696ECE00C94BC2F0F931F9305
:10288000CF93DF930E947B15EC01C11582E5D80739
:1028900008F055C0C11590E5D90708F001C1C03E48
:1028A000D10520F5CD3CD10508F092C0C83AD1053C
:1028B00078F4C53AD10508F083C0C130D10511F1D3
:1028C000209701F1C430D105E8F4D0E0C0E01AC08F
:1028D000C33CD105D0F7C85AD0E0CC0FDD1FC85695
:1028E000DE4F0990D881C02DD4640CC0C11580E2A0
:1028F000D80770F4C11591E0D90708F06BC0C83E45
:10290000D10518F7CE01DF91CF911F910F91089556
:102910008E011127C11580E4D80708F06CC08D2FF7
:102920008F710E941D16C82FC8010E947B15D0E030
:10293000DC2FCC27CC27DF71C82BD92B2CC0C0387B
:1029400092E5D907B0F4C03682E5D80708F085C013
:10295000C03492E5D90708F06BC0C03282E5D807D1
:1029600008F452C0CF71D0E0DC2FCC27C16FD06A01
:10297000C9CFC03C92E5D90780F48C2F8F71C03A43
:10298000D24508F47FC00E941D16C82FD0E0DC2F6E
:10299000CC27CC27DF71D062B5CFC03E82E5D80707
:1029A00008F477C0CE0196558F3F910511F008F0DD
:1029B0008CCFCE0199270E947B15EC01D066A2CF67
:1029C000C55AD0E0C253DE4FC881D0E0D0649ACF60
:1029D000D06598CF8D2F0E941D16182FCE019927F4
:1029E0000E947B15C12FD0E0DC2FCC27CC27DF71D4
:1029F000C82BD92B87CFC8010E947B15CC27DF704D
:102A0000C82BD92BD06A7ECF2C2F2695269590E205
:102A1000299F900111248C2F8370C1E0D0E002C067
:102A2000CC0FDD1F8A95E2F7C22BD32BDD686ACF6E
:102A30002C2F26952695277080E2289F900111243F
:102A40008C2F8370C1E0D0E002C0CC0FDD1F8A95CF
:102A5000E2F7C22BD32BDC6855CF2C2F2695269579
:102A6000277090E2299F900111248C2F8370C1E080
:102A7000D0E002C0CC0FDD1F8A95E2F7C22BD32B2A
:102A8000DA6840CFC82FD0E0DC2FCC27C46FD06AE3
:102A900039CFDC2FCC27CC27DF71C06FD06A32CF83
:102AA0008C2F8F710E941D1655E0D695C7955A95AB
:102AB000E1F7CF70D0E0DC2FCC27282F30E084FF67
:102AC00005C044E0220F331F4A95E1F7C22BD32BF8
:102AD000D06918CF462F7A3030F4663020F4672F53
:102AE0000E949E06089590E080E008950E946A1575
:102AF0000E943E14089582389105B9F1B0F48133F3
:102B0000910509F47DC048F48932910509F46DC03E
:102B10008A32910509F47BC008958533910509F443
:102B20005FC08933910509F10895833E9105D9F17C
:102B300038F4803E910529F1823E910579F108959E
:102B4000863E9105D9F1873E910509F43EC0843E49
:102B5000910541F52091750321FF24C080917403F4
:102B600084FD19C087EE90E00895209174032370CE
:102B700009F05AC02091750323FF14C089E290E048
:102B800008952091740320FD38C03091750330FF03
:102B900009C024FF43C090E080E0089520917403B1
:102BA00022FDF7CF08952091740322FD3AC03091A1
:102BB000750330FD39C024FFF5CFEDCF20917403AC
:102BC00023FFF0CF24FDE7CFCDCF2091740323FD69
:102BD0002EC03091750331FFEECF84EE90E0089562
:102BE0002091740325FFDECFC9CF2091740325FD0A
:102BF00021C02091750323FFD5CF89E390E0D2CF88
:102C00002091740326FFCECF8AE290E008952091B0
:102C1000740326FFC7CF81E390E0089583EE90E030
:102C2000089582EE90E0089580EE90E0089586EE9B
:102C300090E0089585E390E008959091740392FFE9
:102C400006C0282F28712830F9F4877F846093FF0D
:102C500006C0282F28712831F1F4877E84612091E5
:102C6000750320FF06C0382F38713830D9F4877FBC
:102C7000816021FF06C0282F28712831D1F4877E7A
:102C8000816194FD877E0895282F24712430F9F600
:102C90008B7F8860DCCF282F2471243101F78B7E55
:102CA0008861DDCF382F3171313019F78E7F886020
:102CB000E0CF282F2171213121F78E7E8861E1CF6D
:102CC00010927003109271031092720310927303AA
:102CD0000895CF92DF92EF92FF926B017C010E94E8
:102CE0006B1881110EC00E940528C61AD70AE80A7F
:102CF000F90AC0927003D0927103E0927203F092CD
:102D00007303FF90EF90DF90CF9008950F931F9380
:102D10000E946B18882329F00E9405281F910F91AB
:102D200008950E940528009170031091710320916D
:102D3000720330917303600F711F821F931FEECFD8
:102D400080E0089508950E948812811102C00E94B7
:102D500026130E9493128093A2020E949D129093C8
:102D60007503809374030E94A2160E94981290E04B
:102D70000E94F30C80912F02909130020E94140D5A
:102D8000089508950E94C116089508950E94C516D9
:102D90000895E82FF0E0EF57FC4F808108950895E3
:102DA00080EA8A95F1F7089500C008950E94D01630
:102DB000089508950E94D9160895A5E0B0E0E3EEC5
:102DC000F6E10C94A62F0E946B18F82E60918B03ED
:102DD000882309F440C085E0E82E8E010F5F1F4F65
:102DE000F8018E2D11928A95E9F7862F90E0B801AF
:102DF0008F579C4F0E94A1188823B9F080917603C9
:102E000090E045E050E0B8018F579C4F0E94E92FB9
:102E100021E02093A302892B91F4F12C0E94C61685
:102E20008F2D2596E6E00C94C22F8091A302882373
:102E3000A1F3F8011192EA94E9F71092A302A0918C
:102E40007603B0E0AF57BC4F85E0F80101900D92DA
:102E50008A95E1F7E3CF70E06F577C4F809176035E
:102E600090E08F579C4F0E9428190E94DA16D8CF05
:102E7000F894E82FE295EF70F0E031A1282F2F7041
:102E800081E090E001C0880F2A95EAF7982F90958D
:102E9000932391A392A1892B82A378940895CF9331
:102EA000DF93C7EDD1E089918F3F11F00E94381771
:102EB00081E0CC3DD807B9F7C1EDD1E089918F3FD2
:102EC00011F00E94381781E0C73DD807B9F7DF91AC
:102ED000CF910895B0E0A0E0E0E7F7E10C94A42FD3
:102EE000EC01D62E062F10E0C80189529E4F7C01BE
:102EF000FC0180818F3F09F445C0F894E82FE295EA
:102F0000EF70F0E091A18F7021E030E001C0220F5E
:102F10008A95EAF7892F822B81A382A12095282305
:102F200022A378940E94D416E1EDF1E047ED51E040
:102F300031E0C12C21912F3F51F1A22FA295AF700A
:102F4000B0E090968C9190E02F7002C09595879597
:102F50002A95E2F780FD1BC0832FC82A330F4E1736
:102F60005F0741F7F70180818F3F11F00E9438170A
:102F700061E0C11001C060E08D2D0E94D616C00F27
:102F8000D11FC882CDB7DEB7E8E00C94C02F80E037
:102F9000E4CF809103018091030195E0811190E0DD
:102FA00090938B0385E0891B809376030E944F17D3
:102FB0008AE0E1E8F3E0DF01982F1D929A95E9F7A6
:102FC000E7E7F3E0DF011D928A95E9F785E00E94CB
:102FD0002A180E94C2160895AAE0B0E0E2EFF7E1D5
:102FE0000C94A72F8E010F5F1F4F8AE0F8011192FA
:102FF0008A95E9F7F12C6F2DC8010E946A17F394A6
:10300000F5E0FF12F8CF4AE050E0B80187E793E01F
:103010000E94E92F21E0009709F420E0892B41F07C
:103020008AE0F801A7E7B3E001900D928A95E1F7F5
:1030300060918B0370E06F577C4F45E087E793E02A
:103040000E942B18182F0E94DD16812B2A96E5E08E
:103050000C94C32F0895CF92DF92EF92FF920F93BB
:103060001F93CF936C017B01042F222349F081E051
:103070008093A6020E94F9279093A5028093A40250
:10308000C091A602C1110AC0C0E08C2FCF911F9140
:103090000F91FF90EF90DF90CF9008958091A40260
:1030A0009091A5020E941128059770F310E0A801E5
:1030B000B601C7010E94E92F892B41F0A801B60192
:1030C000C7010E94F62F1092A602DFCFC0E0FBCF0F
:1030D0000E94291308958091A902811107C00E94BE
:1030E000FF2E882351F081E08093A90281E0909126
:1030F000A902913009F080E0089582E08093A9024E
:103100000E94FA2EF3CF0E948812811102C00E9401
:1031100026130E946818809303010E946B18811186
:103120000E94D71808950E946B18811102C00E9456
:10313000DA18089581E09091AA029A3008F080E0B0
:1031400008950F931F93CF93DF93EC018B01809130
:10315000AA028A30B8F4B801CE010E942519C82FFE
:10316000811122C08091AA028F3FB9F40E94F927F1
:103170009093A8028093A7028C2FDF91CF911F918B
:103180000F9108958091A7029091A8020E941128A2
:10319000843F914000F7C0E0EFCF8F5F8093AA0299
:1031A0008A3020F7C1E0E8CF1092AA02E5CF0E9452
:1031B0002A2508950E942D250895B0E0A0E0E3EEB1
:1031C000F8E10C94A52F7901C82F880FDD0B41156C
:1031D0005105A9F0FE0193E0EE0FFF1F9A95E1F76C
:1031E000EC5FFE4F8181928185559D4F208130E0BB
:1031F0004217530708F49A01A9010E94F62FCE0145
:103200000E941626D82E8823D1F001151105B9F099
:1032100083E0CC0FDD1F8A95E1F7FE01EC5FFE4FE6
:10322000438150E00417150708F4A801CC5FDE4F76
:103230006C817D8165557D4FC7010E94F62F8D2DD4
:10324000CDB7DEB7E7E00C94C12F0E942F1B089585
:103250000E94681B0895A3E0B0E0E1E3F9E10C945B
:10326000A42F6091DC027091DD028091DE029091CA
:10327000DF020E9420286B017C0111E084E6C81661
:10328000D104E104F10408F410E00E946411898380
:1032900094E6C916D104E104F10438F4E091DC01AC
:1032A000F091DD019089891311E00E947A118A83DF
:1032B000111109C0E091DC01F091DD0111E091896B
:1032C000981301C010E00E9490118B83111108C067
:1032D000E091DC01F091DD01928911E08917C9F0DC
:1032E00010E000E030E020E043E050E0BE016F5F1E
:1032F0007F4F87E00E94DD18182F882351F00E942D
:1033000005286093DC027093DD028093DE029093C7
:10331000DF02812F2396E8E00C94C02FA4E0B0E0F8
:10332000E4E9F9E10C94A82F6091D0027091D102E8
:103330008091D2029091D3020E94202811E064363D
:1033400071058105910518F10E9486166E5F7F4F09
:103350008F4F9F4F69837A838B839C8310E000E0BB
:1033600030E020E044E050E0BE016F5F7F4F84E03A
:103370000E94DD18182F882351F00E9405286093C1
:10338000D0027093D1028093D2029093D302812F06
:103390002496E4E00C94C42FB0E0A0E0E2EDF9E163
:1033A0000C94A22FC82F7B01D42F69015801FB0177
:1033B00060817181828193810E9420286436710529
:1033C0008105910510F4DD23C9F010E000E030E044
:1033D00020E0A501B6018C2F0E94DD18C82F88239C
:1033E00039F00E940528F7016083718382839383FB
:1033F0008C2FCDB7DEB7EAE00C94BE2FC1E0F8CF3A
:10340000A1E0B0E0E6E0FAE10C94A82F0E94CB2204
:103410008983E091DC01F091DD0141E0938998130B
:1034200001C040E001E010E09E012F5F3F4F60EEE1
:1034300072E088E00E94CC192196E4E00C94C42F3D
:103440000F931F93CF93DF93C091DC01D091DD01E7
:1034500041E02C853D8580912F0290913002281704
:10346000390709F440E002E010E02FE232E068EDB5
:1034700072E085E00E94CC198823A1F041E02E85FE
:103480003F8580913102909132022817390709F463
:1034900040E002E010E021E332E064ED72E086E01B
:1034A0000E94CC19DF91CF911F910F910895A1E057
:1034B000B0E0EDE5FAE10C949F2F762E4A01590118
:1034C000680101E010E09E012F5F3F4F50E040E0B7
:1034D00070E060E00E94DD18182F882399F1F40154
:1034E00060817181828193810E94202864367105F8
:1034F0008105910500F18701950150E040E070E001
:1035000060E0872D0E94DD18B82EB701C6010E9429
:10351000E71B11E09981981310E01B2139F00E94FC
:103520000528F4016083718382839383812F219620
:10353000EDE00C94BB2FB701C6010E94E71B9981F7
:103540008913D9CFA701B601C5010E94F62FEECF8E
:10355000A1E0B0E0EEEAFAE10C94A62F0091DC01C4
:103560001091DD01095F1F4FEE24E394F12C9E01C1
:103570002F5F3F4F4CEC52E063E082E00E94571A0D
:10358000182F882321F0CE0101960E94B221812FAD
:103590002196E6E00C94C22FA5E0B0E0E2EDFAE15E
:1035A0000C94A42F6B010091DC011091DD010F5FE1
:1035B0001F4F85E0E82EF12C9E012F5F3F4F48EC16
:1035C00052E061E080E00E94571A882349F095E0BC
:1035D000FE013196A3ECB2E001900D929A95E1F7CD
:1035E00095E0E3ECF2E0D60101900D929A95E1F7B7
:1035F0002596E8E00C94C02FB0E0A0E0E2E0FBE10B
:103600000C94A22F7C015B016A010E949A1801E0D0
:1036100010E0882311F00AE010E0C1E0D0E0B5012D
:10362000C701F6010995811104C021960C171D07E9
:103630002CF4CDB7DEB7EAE00C94BE2FCC9F9001FE
:10364000CD9F300D300D112490E080E045E34A9588
:10365000F1F70000019682179307C1F7E0CF0F93AF
:103660001F93CF93DF93EC018B014CEC5AE10E9446
:10367000FC1A811106C080E0DF91CF911F910F915C
:10368000089548EA5AE1B801CE010E94FC1A882345
:1036900091F34EE859E1B801CE010E94FC1A88234B
:1036A00051F340E25AE1B801CE010E94FC1A88238E
:1036B00011F34BE259E1B801CE010E94FC1A8823B4
:1036C000D1F240E05AE1B801CE010E94FC1AD4CFF9
:1036D000A1E0B0E0EEE6FBE10C94A42F0091DC0148
:1036E0001091DD01C801019625E0FB01DC0101908C
:1036F0000D922A95E1F765E070E00E94E71BF80162
:103700008083CE0101960E94A7218981F8018783D9
:1037100061E070E0CE0101960E94E71BF80186830C
:103720006085718582859385C090BF02D090C0026C
:10373000E090C102F090C2026C157D058E059F05D8
:1037400051F06093BF027093C0028093C1029093C6
:10375000C2020E946916F801848595859093300213
:1037600080932F0286859785909332028093310251
:10377000E188F28880890E9474118E2D0E948A113E
:103780008F2D0E94C911F80183890E94C8222196B9
:10379000E8E00C94C02F0E94D0290E94A6130E943A
:1037A000DD2908950E94E2290E94C2130E94FC298B
:1037B00008950E9492270E94B6290E948E130E94AB
:1037C000CB1B0E94D21B0E949C13FBCF0895FC01CF
:1037D000680F791F8FEF91E36E177F0709F4089543
:1037E0002191822728E030E087FF06C0880F8927D3
:1037F00021503109C9F7F0CF880FFACFAB0124E689
:1038000030E0BC0188E70E94842421E0892B09F084
:1038100020E0822F0895B0E0A0E0E1E1FCE10C940B
:10382000A42F6C017B0164E670E088E70E94EA2324
:103830008C01E601EC0CFD1CCE15DF0561F40E9445
:10384000CC2481E00115110509F080E0CDB7DEB789
:10385000E8E00C94C02F17FDF2CFFE01849164E6DE
:1038600070E00E9456248C012196E6CF0F931F939F
:103870009B0104E610E0AC0160E488E70E94A52407
:1038800021E0892B09F020E0822F1F910F910895EC
:103890000E94E42308950895ECE8F3E080E092E0CC
:1038A000DF019C011D9221503040E1F7F093930518
:1038B000E09392058FEF9FEF9093100380930F0397
:1038C0000895CF930E944B1C0E94800580930B03A8
:1038D00080FD11C080E880930A030E94481C6BE0C1
:1038E00070E08BE594E00E940B1C811106C0C0E0E3
:1038F0008C2FCF91089580E2EECF80910B0365E08D
:1039000070E081FD27C086E594E00E940B1C8823AF
:1039100071F36DE070E084E494E00E940B1CC82F0A
:10392000882329F30E940528605A75418F4F9F4FC5
:1039300060938E0570938F05809390059093910509
:103940000E944C1C81E080930E0380930D03109223
:103950000C03CECF81E594E0D8CF20910A0336E066
:10396000839FC0011124629F800D911D1124811538
:1039700022E0920714F090E080E084579C4F9093EF
:1039800093058093920508952091920530919305B7
:103990002658334040910A03642F70E0C9010E9409
:1039A000182F481B463010F4240F311D211582E0DA
:1039B000380710F030E020E024573C4F3093930557
:1039C0002093920508951F93CF93DF93162F8A308B
:1039D00039F481E00E945C1DDF91CF911F91089521
:1039E0008D3011F480E0F6CFC0919205D09193050F
:1039F00096E0FE01A4EEB2E001900D929A95E1F7F7
:103A0000803EB8F086E0FE0111928A95E9F7111127
:103A10001CC0C0919205D091930546E050E0BE01D4
:103A200084EE92E00E94E92F892BE9F40E94C41CE5
:103A3000D3CFF6E08F9FB00111246A597B4F46E047
:103A400050E0CE010E94E02FE2CFE0919205F0918C
:103A500093059F012A5F3F4F2E173F07D1F28081C8
:103A600080958193F9CFCC58D340CE0125E096952F
:103A700087952A95E1F721E030E0A90102C0440FC3
:103A8000551F8A95E2F7CA0140910F035091100328
:103A9000842B952B259645E0D695C7954A95E1F759
:103AA00002C0220F331FCA95E2F7822B932B90930B
:103AB000100380930F03BACFCF93382FE091920574
:103AC000F0919305EC58F34020910A03622F70E0C7
:103AD000CF010E94182F281B822F332369F066E044
:103AE0000E940C2FC82FC15010F4CF91089560E0B0
:103AF00080E20E94E31CF7CF9F01280F311D2115A2
:103B0000324018F080E0F0E0E0E08E0F9F2F911D32
:103B100084579C4F9093930580939205E6CFFF9234
:103B20000F931F93CF93DF93EC01F62EFC010190CE
:103B30000020E9F78F0101501109C017D10728F0C3
:103B4000CDB7DEB7E5E00C94C32F6F2D89910E94AD
:103B5000E31CF3CF0E948F1D81E00E945C1D08953D
:103B600030910A038317A0F590E0262F269526951D
:103B70002695239F800D911D1124811522E0920727
:103B80003CF5FC01E457FC4F5081677021E030E0C8
:103B900001C0220F6A95EAF74423D9F0252B251797
:103BA000B9F0208325E0969587952A95E1F721E0E5
:103BB00030E002C0220F331F8A95E2F780910F0395
:103BC00090911003822B932B9093100380930F03FB
:103BD000089520952523E3CF1F93CF93DF93EC0126
:103BE000162FFE018491811104C0DF91CF911F91A6
:103BF0000895612F0E94E31C2196F3CF0E94EC1DD3
:103C000081E00E945C1D0895CF93DF93209192057F
:103C1000309193052C583340A901460F571F41306E
:103C2000524020F060E072E0621B730B40910F0382
:103C300050911003FC01C901620F731FC1E0D0E075
:103C40008617970738F05093100340930F03DF91C6
:103C5000CF9108952491DC01A457BC4F3C913217B9
:103C600081F02C939C01A5E036952795AA95E1F764
:103C7000DE0102C0AA0FBB1F2A95E2F79D014A2B65
:103C8000532B01963196DCCF80910E03811103C036
:103C900080910D0308950E940528605A75418F4F49
:103CA0009F4F60938E0570938F058093900590933E
:103CB000910580910D038111EBCF62E070E082E409
:103CC00094E00E940B1C882319F381E080930D037C
:103CD000DFCFB0E0A0E0EFE6FEE10C949E2F8091F4
:103CE0000F0390911003892B09F4B6C080910E0345
:103CF000882309F4B1C080910C038111ADC00E94EA
:103D0000441E20910F03309110032115310509F451
:103D1000A3C090E041E050E0092F10E0EA01092E35
:103D200002C0CC0FDD1F0A94E2F7BE0162237323A9
:103D3000672B11F49F5FF0CF80910B0380FF91C040
:103D4000990F990F990F90934E0110925101995F1D
:103D500090934F0183E08093520167E070E08CE420
:103D600091E00E94FE1B882309F476C0980145E08B
:103D7000220F331F4A95E1F780910B0380FF83C028
:103D8000EAEEF2E080E2DF011D928A95E9F702EEA9
:103D900011E08EEDE82E81E0F82E97E0992E882430
:103DA0008394D801ED918D01D7016D917D01620F52
:103DB000732F711D64577C4FF0E0E651FD4F50E0CA
:103DC00040E0792C741AA82C042E01C0AA0C0A9485
:103DD000EAF76B0180E0D6019D916D019A21A72D34
:103DE000A81BA770BA2E0A2E000CBB0B692E01C0AF
:103DF000660CBA94EAF7B62CB195A195B109A770F3
:103E0000BB2701C09695AA95EAF7A62DA92B90810C
:103E10009A2B90838F5F8830F1F64F5F5F4F31961A
:103E20004830510571F681E0063E180709F0B9CF18
:103E300060E270E08AEE92E00E94361C882361F016
:103E4000C095D09580910F0390911003C823D9237A
:103E5000D0931003C0930F03CDB7DEB7EEE00C9400
:103E6000BA2F9295990F907690934E0198013695BE
:103E700027953695279520935101915E90934F0198
:103E8000209352016ACF60E270E0C90184579C4FD1
:103E9000D3CF80910D0390910E03911103C091E057
:103EA00089270895882369F062E070E080E494E057
:103EB0000E940B1C811103C080910D030895109284
:103EC0000D0380910D03EBCF0E94880508950F9399
:103ED0001F9380910E03882379F180918C05909136
:103EE0008D050E941128C29760F00E94F9279093D7
:103EF0008D0580938C0560E080E00E94AD1C0E94DF
:103F0000641F0E94691E80910D038823A9F00E94FE
:103F1000052800918E0510918F0520919005309114
:103F20009105601B710B820B930B6F3F7F4F8F4F7F
:103F30009F4710F40E94491F1F910F910895CF933E
:103F4000DF93EC01FB018581882309F4D2C09E0137
:103F500030572332310508F0B2C00E949D12909371
:103F6000750380937403FE01E150F047E232F105DE
:103F700020F4EA59FF4C0C94812F809174038160E6
:103F80008093740393C08091750388608093750358
:103F90008DC0809174038260F3CF8091740384603C
:103FA000EFCF809174038860EBCF809175038160BF
:103FB000EDCF809175038260E9CF809174038061B9
:103FC000DFCF809174038062DBCF809174038064C3
:103FD000D7CF0E94D909809174038068D1CF809196
:103FE00074038C60CDCF809175038360CFCF8091B7
:103FF00074038E7FC5CF80917503877FC7CF809173
:1040000074038D7FBDCF809174038B7FB9CF809176
:104010007403877FB5CF809175038E7FB7CF809172
:1040200075038D7FB3CF809174038F7EA9CF80916C
:1040300074038F7DA5CF809174038F7BA1CF0E94E5
:10404000D909809174038F779BCF80917403837F0C
:1040500097CF809175038C7F99CF8091740382FBF9
:10406000992790F921E0922790FB82F990FB83F940
:1040700087CF80917503982F909591708E7F892BB3
:1040800090FB81F983CF90917403892F8F7B96FFEA
:10409000806476CF0E94D90990917403892F97FB91
:1040A00087F980586DCF81E00E94331380917403AB
:1040B000909175030E94A2120E94D90980E0DF91BD
:1040C000CF91089580E0F0CF90917403892F8F7E77
:1040D00094FF806155CF90917403892F8E7F90FF5C
:1040E00081604ECF90917503892F877F93FF886001
:1040F0004DCF81E0E4CF8FE891E00197F1F700C068
:1041000000000895CF93DF93D62F0E946806C82F32
:10411000882341F06AE070E089EAD11101C08AEA9F
:104120000E9498098C2FDF91CF9108950E946B18FF
:1041300008950F931F93CF93DF939091030181E034
:10414000982790931503282F291B209314039091EF
:1041500003018093160390910301809313038091D0
:104160000301811106C084EF8093540185EF809391
:10417000530120915401E22FE295EF70F0E061A12C
:104180002F7081E090E0AC0101C0440F2A95EAF75E
:10419000342F3095362331A322A1242B22A3209142
:1041A0005301E22FE295EF70F0E031A12F7001C0D2
:1041B000880F2A95EAF7982F9095932391A392A1BF
:1041C000892B82A30E947B206091160349E153E072
:1041D000C4E5D1E003E511E0FA0126C02991822F60
:1041E00082958F7090E0DC0190968C9190E02F701A
:1041F00002C0959587952A95E2F78170D8019D9127
:104200008D01292F22952F7030E0D90190962C91A5
:1042100030E09F7002C0359527959A95E2F790E0BF
:1042200020FD92E0892B81938E2F841B8617B0F29C
:10423000DF91CF911F910F910895EF92FF920F930D
:104240001F93CF93DF93F12CE12C80911603F81686
:1042500030F08E2DCDB7DEB7E6E00C94C22FCF2D17
:10426000D0E0FE01EC5AFE4F2081E22FE295EF7084
:10427000F0E080A190E02F7002C0959587952A9577
:10428000E2F78170FE01ED5AFE4F9081E92FE29531
:10429000EF70F0E020A130E09F7002C035952795C7
:1042A0009A95E2F790E020FD92E0892BFE01E75E0F
:1042B000FC4F9081292F2370281709F442C0990FD1
:1042C000990F982B908300911503E92FEF70F0E080
:1042D000EA51FE4FC95EDC4F80812881820F8883BE
:1042E00023E0280F273020F4937010E0933041F53D
:1042F0000F0D10E0181684F4E02FF0E0EF5EFC4F95
:1043000080818F5F80830E949620182F8823D9F0A8
:1043100061E0802F0E948220888187FF10C0E02FFB
:10432000F0E0EF5EFC4F8081815080830E949620F8
:10433000182F882351F060E0802F0E94822018827D
:10434000E12AF39482CF11E0E7CF11E0F8CF40915A
:10435000160350E06091150370E06F5E7C4F0E9481
:10436000F62F0895B0E0A0E0E8EBF1E20C94A42F62
:104370006C01D0E080E090911303D91740F08111D7
:104380000E947013CDB7DEB7E8E00C94C02FF09018
:104390001403FD0E0F2D10E00F5E1C4FF601ED0F04
:1043A000F11DC081F8019081C91BEC2E1E1444F050
:1043B0009C2FC7FD90E0C91BC1110DC0DF5FDBCF93
:1043C000EA94F80180818F5F808361E08F2D0E94E5
:1043D000822081E0EBCFCF5FF80180818150808324
:1043E00060E08F2D0E94822081E0E6CFCF93DF93A3
:1043F000EB0186319C4711F50E9464119D81992340
:1044000099F08A7A91E009F490E090931B0381116E
:1044100009C089E20E9411110E94E01180E0DF9141
:10442000CF91089585E3F6CF80911B03811104C0DD
:1044300089E20E941911F0CF85E3FBCF81E0EFCF35
:104440000F931F93CF93DF93C42FD22FFC0185814D
:104450008823C9F040931E030E94F92790931D03FF
:1044600080931C0380E28C0F883040F4C77081E099
:1044700001C0880FCA95EAF70E94B909DF91CF9170
:104480001F910F91089510911E03141332C0809153
:104490001C0390911D030E941128883C910548F54A
:1044A000C0E2CD0F1D17B9F080E2810F883040F4D3
:1044B000177081E001C0880F1A95EAF70E94C009C1
:1044C000C83048F481E09D2F977001C0880F9A95FD
:1044D000EAF70E94B909802F0E94B009C83070F62F
:1044E000D77081E001C0880FDA95EAF70E94C00911
:1044F000C5CF80E28C0F883008F6C77081E001C01C
:10450000880FCA95EAF7F2CF0F93DB0188519C47D9
:1045100087309105A0F5FC01E857FF4C0C94812FE2
:1045200006E221EE41EE6AE17CE7CD010E94202205
:1045300080E00F91089507E225EE45EE6BE17CE700
:10454000F4CF06E221EE40EE68E17CE7EECF07E231
:1045500025EE44EE69E17CE7E8CF06E221EE42EE8B
:104560006CE17CE7E2CF07E225EE46EE6DE17CE709
:10457000DCCF08E221E045EE6EE17CE7D6CF159670
:104580008C91882319F010921E03D3CF81E0D1CFF4
:1045900080935C03089580915C0308959C013A9593
:1045A00021153F4478F499279C0124503109243285
:1045B000310578F02752310981E02E30310550F075
:1045C00080E008958F3F910579F370F390E080E0EB
:1045D000EBCF81E008950E94CE2208950E94EB2245
:1045E000882381F0E0912503F0E0EE0FFF1FEA5DE4
:1045F000FC4F808191818F3F2FE7920719F0019640
:104600009183808308958F929F92AF92BF92CF92B1
:10461000DF92EF92FF92CF93C0902603D0902703B2
:104620000D2C000CEE08FF082091550130E0E6E269
:10463000F3E081E090E03296281739070CF0A7C02C
:10464000609158037091590380915A0390915B03D4
:104650000E9420284B015C01C091550189EC88160D
:104660009104A104B10414F18091250390E0019616
:1046700069E170E00E942C2F80932503880F991F19
:10468000FC01EA5DFC4F118210828C2FC83108F0CA
:1046900087E18F5F809355010E940528609358033E
:1046A0007093590380935A0390935B0382E0C8167A
:1046B000D104E104F1040CF476C0A0E6BAEEA7013F
:1046C00096010E94872F6B017C0188ECC89F9001A6
:1046D0001124032E000C440B550B280D391D4A1DC7
:1046E0005B1DA5E0B0E00E94872F9B01AC01C701D4
:1046F000B6010E94402F69017A0181EFC816D104EA
:10470000E104F1042CF080EFC82ED12CE12CF12C27
:1047100060912103709122038091230390912403DF
:104720000E9420284B015C0185E688169104A104B3
:10473000B10484F00E940528609321037093220342
:10474000809323039093240380915C038093200340
:10475000C0921F03C0912003A0911F03AC1BBB0B91
:10476000A50194010E94922F24E630E040E050E041
:104770000E94622FC20FC0935C03CF91FF90EF9015
:10478000DF90CF90BF90AF909F908F900895408121
:104790005181052E000C660B770BC40ED51EE61E4C
:1047A000F71E019648CFCA94CD28CE28CF2841F0D5
:1047B00010922503109255011092270310922603A0
:1047C000C12CD12C7601A4CF1092B9008CE080933B
:1047D000B8000895B0E0A0E0E0EFF3E20C94A12F60
:1047E000B82EEB010E94F9276C01EE24E394F12C22
:1047F000C431D10560F025E0E22EF12CCF3FDC077B
:1048000031F0CE0164E170E00E94182F7B0184EA50
:10481000A82E94E8992E1092BC00A092BC000E9491
:10482000F9278C018091BC0087FF0DC08091B900F1
:10483000887F8830F9F08091B900887F8031D1F08D
:104840000FEF1FEF08C0C8010E941128E816F906F3
:1048500048F70EEF1FEFCF3FDC07E9F2C6010E94D9
:104860001128C817D907B8F6C801CDB7DEB7EBE0F5
:104870000C94BD2FB092BB009092BC000E94F9270F
:104880008C018091BC0087FF0AC08091B900887FAD
:10489000883111F08034A1F610E000E0E5CFC801C6
:1048A0000E941128E816F90660F7D3CF0F931F93E3
:1048B000CF93DF93EB018093BB0084E88093BC002F
:1048C0000E94F9278C018091BC0087FF11C02091C4
:1048D000B900287F81E090E0283211F490E080E078
:1048E000919581959109DF91CF911F910F91089535
:1048F000CF3FDC0741F3C8010E941128C817D90730
:1049000010F78EEF9FEFEFCFB0E0A0E0EAE8F4E21F
:104910000C94A42F6B018A017901B9010E94EA234A
:10492000E6010C0D1D1DC017D10711F097FF08C03F
:1049300024E92093BC00CDB7DEB7E8E00C94C02F8B
:10494000B70189910E945624EECFB0E0A0E0EBEAD7
:10495000F4E20C94A42FC62F6A017901B8010E94D9
:10496000EA2397FD0CC0B8018C2F0E945624E60163
:10497000EC0CFD1CCE15DF0511F097FF08C024E9F3
:104980002093BC00CDB7DEB7E8E00C94C02FB8018F
:1049900089910E945624EECF84E98093BC0008954B
:1049A0008EE14A9B02C08150E1F74A9BFECF0895F9
:1049B0005A9880E28A95F1F75A9A0895FC013BE0F3
:1049C0003A95F1F798E020E080E031E040E14A9547
:1049D000F1F7880F4A9B02C08160232742E04A9585
:1049E000F1F7000040E14A95F1F7915079F790E135
:1049F0009A95F1F799B132E03A95F1F7000040E16C
:104A00004A95F1F792FB992790F992272081920F0E
:104A100090830895A1E0B0E0E0E1F5E20C94A62FC8
:104A200019828C017C01E60EF11C0E151F0541F464
:104A300081E09981911180E02196E6E00C94C22FEB
:104A40000E94D024CE0101960E94DE24F8018193B9
:104A50008F01EBCF529A5A9A089552985A9AEA9A2D
:104A6000E9E6F0E080818F7C808308956150770BC8
:104A700091E001C0990F6A95EAF720E031E09111C9
:104A800008C0222391F05A9A80E28A95F1F75A9849
:104A90000895492F482339F05A9A232740E24A952E
:104AA000F1F79695ECCF5A98F9CF5A98EDCFFF923F
:104AB0000F931F93CF93DF93EC018C01060F111D11
:104AC000C017D10729F4CDB7DEB7E5E00C94C32FAA
:104AD000F9900E94D82468E08F2D0E943625F0CFEF
:104AE0001F920F920FB60F9211240F931F932F93C3
:104AF0003F934F935F936F937F938F939F93AF9366
:104B0000BF93EF93FF93CF93DF930F92CDB7DEB7B1
:104B100019820E94D024CE0101960E94DE24082F23
:104B2000069506950695282F22952570902F95704D
:104B3000290F922F937026952695920F982797709C
:104B40008981982B09F05CC00A3008F059C080E1D7
:104B50008A95F1F75A9A529A82E08A95F1F700C045
:104B60005A9888E0089F80011124D801AC5FBE4F9D
:104B70001696ED91FC9117973097A9F06091DC01A2
:104B80007091DD0114962D913C911597260F371FDA
:104B900011968D919C911297680F791F13964C91E5
:104BA00013978C910995F801EC5FFE4F63816623A2
:104BB00051F02091DC013091DD0184819581820FDB
:104BC000931F0E9457250E94D82480E18A95F1F70F
:104BD0005A9852985A9A80E18A95F1F7F801EC5F59
:104BE000FE4F6081662351F02091DC013091DD01A0
:104BF00081819281820F931F0E940A250E94D024F6
:104C00000F90DF91CF91FF91EF91BF91AF919F9165
:104C10008F917F916F915F914F913F912F911F9154
:104C20000F910F900FBE0F901F9018950F931F9329
:104C3000CF93DF93EC010A970CF04CC0F894529A92
:104C40005A9885E08A95F1F700009C2F969595700B
:104C50008C2F8570980F892F83709695969523E0F9
:104C6000CC0FDD1F2A95E1F7980F8E01092B0E94CA
:104C7000D82400C068E0802F0E94362580E18A9504
:104C8000F1F752985A9A4A9B1EC087E090E04A99E1
:104C90001CC0FE01EC5FFE4F63816623F9F020919A
:104CA000DC013091DD0184819581820F931F0E9488
:104CB0000A25811113C0529A5A9A7894DF91CF91A4
:104CC0001F910F91089500C0DECF019729F4529AE9
:104CD0005A9A789480E0F2CF00C0D9CF0E94D024B5
:104CE00080E28A95F1F75A98529A80E18A95F1F715
:104CF000CC5FDE4F6881662351F02091DC0130915A
:104D0000DD0189819A81820F931F0E9457250E949D
:104D1000D824789481E0D2CF9093F7018093F60164
:104D20000895909363038093620308950E946B1823
:104D3000811103C080915D030895E0916203F091B9
:104D40006303309729F00190F081E02D09950895D3
:104D500080E00895E0916203F0916303309721F0C1
:104D60000280F381E02D09950895A3E0B0E0EBEB1C
:104D7000F6E20C94AA2F209160033091610328176A
:104D80003907A1F09093610380936003E09162037F
:104D9000F0916303309751F023E029839B838A834A
:104DA0000680F781E02DCE01019609952396E2E079
:104DB0000C94C62FA3E0B0E0E0EEF6E20C94AA2F2C
:104DC00020915E0330915F0328173907A1F090937B
:104DD0005F0380935E03E0916203F0916303309779
:104DE00051F024E029839B838A830680F781E02D9C
:104DF000CE01019609952396E2E00C94C62F9C0102
:104E00002E5F3F4FAC01485F5F4F80E024173507AE
:104E100009F40895F90191919F019923B9F38F5FE6
:104E2000F5CF662349F0FC013296089621912617AA
:104E300029F0E817F907D1F780E0089581E0089597
:104E40009C01FC0132969FEF80E04191461751F0A2
:104E50009F3F19F4411101C0982F8F5F8630A9F749
:104E60009F3F09F40895290F311D97FD3A95F901E7
:104E700062830895FC01329608962191261303C09F
:104E8000DF0111971C92E817F907B9F708950E94FE
:104E9000202708950E943A270895029626E0FC01F3
:104EA00011922A95E9F7089508950E9454270895CC
:104EB000811106C081E0809364030E945527089504
:104EC00082E0F9CF83E0809364030E945527089520
:104ED0000E945827089581E0809364030E9455271B
:104EE00008950E946B270895089508950E947527DC
:104EF0000895089508950E9474270895CF930E94FD
:104F000079270E94EC170E947A27C0E08C2F0E941C
:104F1000C916811105C0CF5FCA30C1F7CF9108957E
:104F200081E0FCCF85B7806885BF85B7806885BF85
:104F300008951F921FB61F9211248F939F93AF93D2
:104F4000BF9380916503811113C080919405909166
:104F50009505A0919605B09197054196A11DB11DAB
:104F60008093940590939505A0939605B09397052B
:104F7000BF91AF919F918F911F901FBE1F90189569
:104F800080919C05843031F10E947707109265036F
:104F900088E190E020E40FB6F894A8958093600033
:104FA0000FBE2093600083B7817F846083BF83B787
:104FB000816083BF7894889583B78E7F83BF0FB657
:104FC000F894A895809160008861809360001092A9
:104FD00060000FBE08950E94D9090E947E070895BF
:104FE00082E084BD93E095BD9AEF97BD80936E00FB
:104FF00008952FB7F8948091940590919505A0910C
:105000009605B09197052FBF08952FB7F89460913A
:1050100094057091950580919605909197052FBF05
:1050200008959C014FB7F89480919405909195054F
:10503000A0919605B09197054FBF821B930B0895E1
:10504000CF92DF92EF92FF922FB7F894C090940521
:10505000D0909505E0909605F09097052FBFA70199
:105060009601261B370B480B590BCA01B901FF905B
:10507000EF90DF90CF90089578941F921FB61F9203
:1050800011248F939F93AF93BF9380919405909138
:105090009505A0919605B09197050196A11DB11DAA
:1050A0008093940590939505A0939605B0939705EA
:1050B000BF91AF919F918F911F901FBE1F90189528
:1050C00087E797E7909301088093000888E19AE0CA
:1050D0000FB6F894A895809360000FBE909360007F
:1050E000FFCF88E19AE00FB6F894A895809360000E
:1050F0000FBE90936000FFCF80916E0308950895D6
:105100009B01BA0190919C059430E9F48F708093D3
:10511000E9009FEF8091E800915085FD06C085ED84
:105120008A95F1F700009111F5CF8091E80085FF95
:105130000AC050E040E0C9010E94732A8091E80053
:105140008E778093E800089543E050E0BC0182E050
:105150000E9480280895CF93DF93EC0148E050E04F
:10516000BC0181E00E94802888E0FE01A6E6B3E051
:1051700001900D928A95E1F7DF91CF91089580918A
:105180009B05811109C00E94032C0E94602C809114
:10519000E20084608093E200089510929B050895D8
:1051A0000E946B2708956091980581E0611101C00C
:1051B00080E00E946227089590919C0581E09430E0
:1051C00009F080E0609198050E946827089542E008
:1051D00061EC81E00E947F2B42E261EC82E00E9460
:1051E0007F2B90919C0581E0943009F080E06091E4
:1051F00098050E945827089580919E05833009F4F0
:1052000061C030F48130D1F1823009F49EC008953C
:105210008A3009F48AC08B3009F46FC0893009F0F4
:1052200050C080919D05813209F04BC08091A1054D
:105230009091A205029708F044C08091E800877F12
:105240008093E8008091E80082FF37C09091F300DE
:105250008091F200029731F48091F100813011F0D9
:10526000863021F48091F10080936E038091E800F4
:105270008B778093E8000E94B32B23C080919D051B
:10528000813AF9F48091E800877F8093E80080916B
:10529000A1059091A205892B61F468E086E693E070
:1052A00070E00E94C22A8091E8008B778093E8002A
:1052B000089560E090E080E0F3CF80919C0581113B
:1052C000C1CF089580919D05813AD9F78091A105BC
:1052D0009091A205892BA9F78091E800877F8093A0
:1052E000E8008091E80080FFFCCF80915E01809310
:1052F000F1008091E8008E77BCCF80919D058132CE
:1053000001F78091A1059091A205892BD1F680919A
:10531000E800877F8093E8000E94B32B80919F056F
:1053200080935E010E94D909089580919D05813284
:1053300041F68091E800877F8093E8000E94B32BBC
:105340008091A00580936F03089580919D05813A17
:1053500009F0B7CF8091E800877F8093E8008091C3
:10536000E80080FFFCCF80916F03C1CF84B7877FB7
:1053700084BF0FB6F894A8958091600088618093EF
:105380006000109260000FBE80E890E00FB6F894C5
:1053900080936100909361000FBE0E947127089571
:1053A0000E94032C0E94602CE2EEF0E08081846079
:1053B000808378940E94DF2E089586E591E00E9414
:1053C0009126089580919C05853031F480919C054B
:1053D000853019F00E94EB2708950E94C027809124
:1053E0009A05882399F30E947E27882379F30E94E7
:1053F0005D2A0E94D909EACF08959A014091A30538
:105400005091A4050E94052A0895492F552743303D
:10541000510519F168F44130510509F444C0423096
:10542000510509F445C090E080E050E040E025C01F
:105430004132510549F142325105A9F780E490E02B
:1054400043E55AE061157105C1F082E390E041E265
:105450005AE06130710589F0E6CF992781309105D6
:1054600081F0009729F00297F1F6E6EAF9E002C030
:10547000E0EDF9E0849190E0AF01F90151834083C0
:105480000895E4EBF9E0F6CF89E090E046EE59E0CC
:105490006115710591F389E090E04FEF59E06130BB
:1054A000710559F3C0CF82E190E04FE05AE0E5CFBB
:1054B0008BE390E044ED59E0E0CF80E189BD82E1EB
:1054C00089BD09B400FEFDCF8091D8008F7D809307
:1054D000D8008091E00082608093E0008091E0003D
:1054E00081FDFCCF0895AF92BF92CF92DF92FF92E1
:1054F0000F931F93CF93DF936C01EB018A010E94FE
:10550000D22BF82E811123C00115110539F0F801B5
:1055100080819181C81BD90BC80ED91EB12CA12C3A
:105520002097A9F08091E80085FD22C08091E800D5
:105530008E778093E80001151105A1F0F8018081B4
:105540009181A80EB91EB182A08285E0F82E8F2D20
:10555000DF91CF911F910F91FF90DF90CF90BF907F
:10556000AF9008950E94D22B8823D1F2F82EEFCF6E
:10557000F60181916F018093F1002197FFEFAF1A3F
:10558000BF0ACECFFC018091A3059091A405861798
:105590009707A0F06115710529F49091E8009E77B6
:1055A0009093E80090E06115710551F4911108C0E5
:1055B0008091E80082FF34C080E00895BC01F2CF02
:1055C00080919C058823C1F18530C1F18091E8006C
:1055D00083FD30C08091E80082FDEACF8091E80031
:1055E00080FFE1CF8091F3002091F200382F611508
:1055F000710519F02830310558F091E02830310557
:1056000009F090E02091E8002E772093E800CBCFBE
:1056100081918093F100615071092F5F3F4FE7CF77
:1056200080919C05882341F0853041F08091E8000D
:1056300083FFBECF81E0089582E0089583E008955E
:10564000FC018091A3059091A40586179707A0F00F
:105650006115710529F48091E8008E778093E80048
:1056600090E06115710551F4911108C08091E80036
:1056700082FF35C080E00895BC01F2CF80919C0587
:105680008823C9F18530C9F18091E80083FD31C0DC
:105690008091E80082FDEACF8091E80080FFE1CFB1
:1056A0008091F3002091F200382F6115710519F0F7
:1056B0002830310558F091E02830310509F090E0AC
:1056C0008091E8008E778093E800CBCF849180931F
:1056D000F1003196615071092F5F3F4FE6CF809105
:1056E0009C05882341F0853041F08091E80083FFDC
:1056F000BDCF81E0089582E0089583E00895982F5A
:10570000973028F08F708093E90081E0089590939E
:10571000E900242F762F50E0981731F07091EC00BB
:105720002091ED005091F00021FD02C09F5FE8CF75
:105730003091EB003E7F3093EB003091ED003D7FE8
:105740003093ED003091EB0031603093EB007093BB
:10575000EC002093ED005093F0002091EE0027FD27
:10576000E5CF80E0089580919D0587FF13C080916B
:10577000E80082FF06C08091E8008B778093E80004
:1057800004C080919C058111F2CF089580919C0501
:105790008823D9F38091E80080FFF8CF8091E8005A
:1057A0008E77ECCF2091E4003091E50095E6A901D9
:1057B0002091EC00822F817020FF06C08091E800CC
:1057C00080FF06C080E008952091E80022FD1AC005
:1057D00080919C05882389F0853089F08091EB00C9
:1057E00085FD0FC02091E4003091E500421753077A
:1057F000F9F29150E1F684E0089582E0089583E0A3
:10580000089581E008950E94722C0E947A2CE0EEA7
:10581000F0E0808181608083E8EDF0E080818F7727
:10582000808319BCA7EDB0E08C918E7F8C93808132
:105830008F7E808310929B0508950F931F93CF93C3
:10584000DF930E94722C0E947A2CC8EDD0E08881F0
:105850008F77888388818068888388818F7D88831B
:1058600019BC10929C051092980510929A051092FE
:10587000990500EE10E0F80180818B7F808388819C
:105880008160888342E060E080E00E947F2BE1EE4F
:10589000F0E080818E7F8083E2EEF0E080818160A5
:1058A0008083808188608083F80180818E7F8083FF
:1058B000888180618883DF91CF911F910F91089536
:1058C000E8EDF0E080818F7E8083E7EDF0E080817D
:1058D0008160808384E082BF81E080939B050E9489
:1058E0001D2C0895E8EDF0E080818E7F808310927A
:1058F000E20008951092DA001092E10008951F92DC
:105900000F920FB60F9211242F933F934F935F93F3
:105910006F937F938F939F93AF93BF93EF93FF9377
:105920008091E10082FF0BC08091E20082FF07C0FE
:105930008091E1008B7F8093E1000E94DE2E8091B8
:10594000DA0080FF19C08091D80080FF15C08091D7
:10595000DA008E7F8093DA008091D90080FF96C0B4
:1059600080E189BD82E189BD09B400FEFDCF81E0FF
:1059700080939C050E94BF288091E10080FF19C0A0
:105980008091E20080FF15C08091E2008E7F8093BD
:10599000E2008091E20080618093E2008091D80073
:1059A00080628093D80019BC85E080939C050E949A
:1059B000D3288091E10084FF2BC08091E20084FF16
:1059C00027C080E189BD82E189BD89B5982F91709A
:1059D00080FFFBCF8091D8008F7D8093D80080918D
:1059E000E1008F7E8093E1008091E2008F7E8093C2
:1059F000E2008091E20081608093E200809198054E
:105A0000882309F449C084E080939C050E94DC2827
:105A10008091E10083FF29C08091E20083FF25C0CF
:105A20008091E100877F8093E10082E080939C0574
:105A3000109298058091E1008E7F8093E100809123
:105A4000E2008E7F8093E2008091E200806180938B
:105A5000E20042E060E080E00E947F2B8091F00055
:105A600088608093F0000E94D028FF91EF91BF9151
:105A7000AF919F918F917F916F915F914F913F91E6
:105A80002F910F900FBE0F901F90189519BC109278
:105A90009C050E94CD2870CF8091E30087FD93E0A4
:105AA00090939C05B3CF1F920F920FB60F921124C3
:105AB0002F933F934F935F936F937F938F939F9316
:105AC000AF93BF93CF93DF93EF93FF93D091E90010
:105AD000DF708091EC00C82FC17080FDC0E810928B
